:020000040800F2
:1000000000000824B1170008991600089B16000884
:100010009D1600089F160008A116000800000000A9
:10002000000000000000000000000000F1B5000822
:10003000A31600080000000081B6000829AE0008E1
:10004000011800080118000801180008011800082C
:10005000011800080118000801180008011800081C
:10006000011800080118000801180008011800080C
:1000700001180008011800080118000801180008FC
:1000800001180008011800080118000801180008EC
:1000900001180008011800080118000801180008DC
:1000A00001180008011800080118000801180008CC
:1000B00001180008011800080118000801180008BC
:1000C00001180008011800080118000801180008AC
:1000D000011800080118000801180008011800089C
:1000E00001180008011800080000000001180008AD
:1000F000011800080118000801180008011800087C
:10010000011800080118000801180008011800086B
:100110000118000801180008A516000801180008B9
:10012000011800080118000801180008011800084B
:10013000011800080118000801180008011800083B
:10014000011800080118000800000000000000006D
:10015000011800080118000801180008011800081B
:10016000011800080118000801180008011800080B
:10017000011800080118000801180008000000001C
:1001800001180008011800080118000801180008EB
:1001900001180008011800080118000801180008DB
:1001A000B116000801180008BD1600080118000863
:1001B00001180008011800080118000801180008BB
:1001C00001180008011800080118000801180008AB
:1001D000011800080118000801180008011800089B
:1001E000011800080118000801180008011800088B
:1001F000011800080118000801180008011800087B
:10020000011800080118000801180008011800086A
:10021000011800080118000801180008011800085A
:1002200001180008C9160008D5160008F1160008C4
:1002300001180008FD160008011800080118000840
:10024000011800080118000801180008011800082A
:10025000011800080118000801180008011800081A
:10026000011800080118000801180008011800080A
:1002700001180008011800080118000801180008FA
:10028000011800080118000801180008000000000B
:08029000011800080118000824
:1002A00010B5054C237833B9044B13B10448AFF3B0
:1002B00000800123237010BD40990024000000003D
:1002C0008414020808B5034B1BB103490348AFF37C
:1002D000008008BD00000000449900248414020836
:1002E00001F0FF01102A2BDB10F0070F08D010F8E7
:1002F000013B013A8B422DD010F0070F42B3F6D1EB
:10030000F0B441EA012141EA014122F007047FF003
:1003100000070023F0E80256083C85EA010586EA5A
:10032000010685FA47F5A3FA87F586FA47F6A5FA96
:1003300087F68EB9EED1F0BC01F0FF0102F00702A2
:1003400032B110F8013B013A83EA010313B1F8D14D
:100350000020704701387047002D06BF354603382E
:10036000073815F0010F07D1013015F4807F02BF67
:10037000013015F4C03F0130F0BC0138704700BFB8
:1003800081F0004102E000BF83F0004330B54FEA46
:1003900041044FEA430594EA050F08BF90EA020FB3
:1003A0001FBF54EA000C55EA020C7FEA645C7FEA46
:1003B000655C00F0E2804FEA5454D4EB5555B8BF69
:1003C0006D420CDD2C4480EA020281EA030382EADA
:1003D000000083EA010180EA020281EA0303362D6C
:1003E00088BF30BD11F0004F4FEA01314FF4801C3F
:1003F0004CEA113102D0404261EB410113F0004F51
:100400004FEA03334CEA133302D0524263EB430307
:1004100094EA050F00F0A780A4F10104D5F1200EA5
:100420000DDB02FA0EFC22FA05F2801841F1000100
:1004300003FA0EF2801843FA05F359410EE0A5F1D4
:1004400020050EF1200E012A03FA0EFC28BF4CF005
:10045000020C43FA05F3C01851EBE37101F00045BB
:1004600007D54FF0000EDCF1000C7EEB00006EEBC8
:100470000101B1F5801F1BD3B1F5001F0CD3490852
:100480005FEA30004FEA3C0C04F101044FEA4452A9
:1004900012F5800F80F09A80BCF1004F08BF5FEA30
:1004A000500C50F1000041EB045141EA050130BD10
:1004B0005FEA4C0C404141EB0101013C28BFB1F522
:1004C000801FE9D291F0000F04BF01460020B1FA6D
:1004D00081F308BF2033A3F10B03B3F120020CDA40
:1004E0000C3208DD02F1140CC2F10C0201FA0CF01E
:1004F00021FA02F10CE002F11402D8BFC2F1200C83
:1005000001FA02F120FA0CFCDCBF41EA0C01904038
:10051000E41AA2BF01EB0451294330BD6FEA040481
:100520001F3C1CDA0C340EDC04F11404C4F120026C
:1005300020FA04F001FA02F340EA030021FA04F37E
:1005400045EA030130BDC4F10C04C4F1200220FAD5
:1005500002F001FA04F340EA0300294630BD21FA13
:1005600004F0294630BD94F0000F83F4801306BFD9
:1005700081F480110134013D4EE77FEA645C18BFCD
:100580007FEA655C29D094EA050F08BF90EA020F64
:1005900005D054EA000C04BF1946104630BD91EA5C
:1005A000030F1EBF0021002030BD5FEA545C05D15F
:1005B0004000494128BF41F0004130BD14F580049E
:1005C0003CBF01F5801130BD01F0004545F0FE4112
:1005D00041F470014FF0000030BD7FEA645C1ABF47
:1005E000194610467FEA655C1CBF0B46024650EA7E
:1005F000013406BF52EA033591EA030F41F40021AA
:1006000030BD00BF90F0000F04BF0021704730B52F
:100610004FF4806404F132044FF000054FF0000104
:1006200050E700BF90F0000F04BF0021704730B5C5
:100630004FF4806404F1320410F0004548BF40429A
:100640004FF000013EE700BF42004FEAE2014FEAEF
:1006500031014FEA02701FBF12F07F4393F07F4FCA
:1006600081F06051704732F07F4208BF704793F0CD
:100670007F4F04BF41F40021704730B54FF46074E0
:1006800001F0004521F000411CE700BF50EA0102E3
:1006900008BF704730B54FF000050AE050EA01028C
:1006A00008BF704730B511F0004502D5404261EBFC
:1006B00041014FF4806404F132045FEA915C3FF43D
:1006C000D8AE4FF003025FEADC0C18BF03325FEADA
:1006D000DC0C18BF033202EBDC02C2F1200300FA8B
:1006E00003FC20FA02F001FA03FE40EA0E0021FAB0
:1006F00002F11444BDE600BF014900200CF03CB9F2
:10070000E12000080C4C08B5002006F05DFC4FF419
:100710008051094806F044FC012804D14FF40051EF
:10072000204606F048FC0021084606F05BFC4FF42A
:10073000FA700AF0F7FBE7E700200258F0B59DB029
:100740004C22002109A820F0ABF82022002101A8AA
:1007500020F0A6F8042008F0A3FA00230093264B0B
:10076000DA6A22F00102DA62DB6A03F00103009325
:10077000224B9A6942F440429A619A6902F44042DB
:100780000092009A9A699104FCD54FF480330327B4
:10079000402505220224082609A81894CDE90973EA
:1007A0000123CDE90C35A023CDE914230023CDE9A5
:1007B0001244CDE91644CDE919631B9308F06AFD94
:1007C00008B172B6FEE73F232146CDE901374FF469
:1007D0008063CDE9030601A8CDE90555CDE90735CC
:1007E00009F0F0F8014608B172B6FEE74FF4802236
:1007F00008F0F8FF1DB0F0BD000400580048025892
:100800002DE9F04FBBB01022002101242DA80425B2
:1008100020F046F805F03CFC4FF01041BE4B2DA8EF
:10082000ADF8B4403094CDE92E1305F04FFC1A23F7
:100830002DA88DF8B5408DF8BC3005F047FC02239B
:100840002DA88DF8C2408DF8B5304FF050432E934F
:1008500018238DF8BC3005F039FC03232DA88DF842
:10086000B5304FF010532E9312238DF8BC30002377
:100870008DF8C03005F02AFC4FF080532DA88DF87C
:10088000B5502E9311238DF8BC3005F01FFC0523C5
:100890002DA88DF8C0408DF8B530A04B2E930E23B7
:1008A0008DF8BC3005F012FC284605F0FFFB9C4B90
:1008B0005A6912F4003211D1BFF34F8FBFF36F8F1B
:1008C000C3F85022BFF34F8FBFF36F8F5A6942F4C2
:1008D00000325A61BFF34F8FBFF36F8F904A536955
:1008E00013F4803323D1C2F88430BFF34F8FD2F892
:1008F000803043F6E074C3F3C900C3F34E335B01A9
:1009000003EA0406014646EA81750139C2F86052DD
:10091000F9D2203B13F1200FF2D1BFF34F8F53696F
:1009200043F480335361BFF34F8FBFF36F8F4FF6A4
:10093000FF737C4D2C6814F4004400F00683013BE7
:10094000F8D272B6FEE772B6FEE77748774A83615F
:10095000C0F82090C0E90026C0E90253C0E9045362
:1009600008F0BAFA08B172B6FEE740F203132DA9F7
:100970008DF8B690ADF8B43004F06AFE08B172B6E6
:10098000FEE704F011FE034608B172B6FEE76848C0
:100990004FF44032674FC0E90253C0E9007205F0DE
:1009A00022FC074608B172B6FEE70246414662489D
:1009B00006F0FCFA142005F0EFFA41462A465E489C
:1009C00006F0F4FA0A2005F0E7FA2422394617A8BF
:1009D0001FF066FF1822394611A81FF061FF34226C
:1009E00039462DA81FF05CFF39462C2220A81FF0A5
:1009F00057FFDFF848814FF0A0430EA940461095FD
:100A0000C8E900377723C8E90245CDE90E3605F07D
:100A100037FD08B172B6FEE7CDE91750CDE91900F0
:100A2000CDE91B00CDE91D001F9017A9404605F038
:100A300093FF08B172B6FEE721231C240F2511A9EC
:100A4000CDE911431923CDE915004046CDE91353F3
:100A500005F045FF08B172B6FEE70421374805F0FE
:100A60002DFF08B172B6FEE742F21071334806F06E
:100A7000FCF8014608B172B6FEE7304805F09DFC6F
:100A800008B172B6FEE74FF400734FF480794FF46B
:100A9000806A4FF4805B4FF480424FF400314FF492
:100AA00000204FF00208CDE92D934FF40063CDF8FC
:100AB000E480CDE92FA34FF40053CDE931B34FF4D7
:100AC0008033CDE933234FF48023CDE935134FF044
:100AD00080732DA9CDE93703184805F0BBFE08B196
:100AE00072B6FEE705234FF4C877012620902790C1
:100AF0002A96CDE921371023CDE923308023CDE993
:100B000025000DEB0301CDE928300C4805F030FE3F
:100B10000146A8B172B6FEE71B00000300000410F6
:100B200000ED00E000440258CC990024005000522F
:100B30000C9C00240010005200180258F09B002466
:100B40005E4805F004FE044608B172B6FEE73422A2
:100B5000014620A85A4D1FF0A3FEDFF8B0C14FF0A8
:100B600000434FF4C97EC5F820802846AC8685F83E
:100B70003640C5E900C34FF08043C5E902344FF465
:100B8000F173C5E90648C5E909E340F2931840F25C
:100B9000E313C5E90444C5E90B8307F077FD02467A
:100BA00008B172B6FEE7FF2122904FF4F073ADF862
:100BB000B0208DF8B2202B93CDE92510CDE9200788
:100BC00007214FF4C060CDE927014FF0504128467E
:100BD000CDE9291720A9CDE9233607F00CFE0446FC
:100BE00008B172B6FEE72A683448936923F001031E
:100BF000936105F017FF3349334B3448CB60344BD6
:100C00000C804B60334B8B6004F0C4FA32462146B3
:100C10002E4803F02FFF2823152221462748009451
:100C200005F033FF2DA925483794CDE92D44CDE9B2
:100C30002F44CDE93144CDE93344CDE9354405F0C5
:100C400009FE22464FF44871284607F001FE2A6843
:100C500021489369848043F0010393611F4B06622E
:100C60000360C0E9054405F05DFA08B172B6FEE71D
:100C70001B481C4B036006F003FF08B172B6FEE789
:100C800000F0C0FD00F0BDFD0AF0DCF8164A0021BE
:100C900016480AF003F9164B164A00211860164848
:100CA0000AF0FCF8154B164A0021186015480AF0A6
:100CB000F5F8154B18600AF0D7F8FEE7F09B002412
:100CC000189A00245C990024795500086C99002436
:100CD000D91D0008111E0008749C0024004C025805
:100CE000989B002400300052443202081318000878
:100CF0009499002420320208653900089099002454
:100D0000FC310208050700088C99002400100050EF
:100D1000142200212DA801251FF0C2FDD4F8E030D7
:100D2000002241F2083143F4807399484FF0000BE0
:100D30000326C4F8E0300227D4F8E0304FF480797D
:100D40004FF4805A4FF0080803F480730493049B17
:100D5000D4F8E03043F00203C4F8E030D4F8E030D7
:100D600003F002030593059BD4F8E03043F0400301
:100D7000C4F8E030D4F8E03003F040030693069B5B
:100D8000D4F8E03043F01003C4F8E030D4F8E03099
:100D900003F010030793079BD4F8E03043F080037F
:100DA000C4F8E030D4F8E03003F080030893089BE7
:100DB000D4F8E03043F00403C4F8E030D4F8E03075
:100DC00003F004030993099BD4F8E03043F4007363
:100DD000C4F8E030D4F8E03003F400730A930A9BBF
:100DE000D4F8E03043F00803C4F8E030D4F8E03041
:100DF00003F008030B930B9BD4F8E03043F001039E
:100E0000C4F8E030D4F8E03003F001030C930C9BFD
:100E1000D4F8E03043F02003C4F8E030D4F8E030F8
:100E200003F020030D930D9B06F0C0F800224FF451
:100E30000051584806F0BAF800220821564806F03A
:100E4000B5F800224FF48071544806F0AFF841F233
:100E500008332DA94E48CDE92D35CDE92FB605F043
:100E60001BFF2DA94E48CDF8C4B0CDE92D97CDE993
:100E70002FBB05F011FF4FF400532DA94548CDE9D4
:100E80002D35CDE92FBB05F007FF2DA94148CDE950
:100E90002DA5CDE92FBB05F0FFFE2DA93E48CDE9DC
:100EA0002D85CDE92F5605F0F7FE2DA93B48CDE95C
:100EB0002D95CDE92FB605F0EFFED4F8D4305A4683
:100EC00005212B437A204FF04009C4F8D430D4F8E0
:100ED000D43004242B400393039B05F087F87A2039
:100EE00005F0B6F82F4A30482DA9136823F0010306
:100EF00013602E4B2D978560C0F81CB0C0F828B049
:100F0000C0E900352023C0E903434FF4C073C0E9B2
:100F100005934FF40063C0E9083A0723CDE932771F
:100F2000CDE92E34CDE9303609F0D8FC074600284B
:100F30007FF409AD04F046FD384604F091FD034608
:100F400000283FF402AD72B6FEE704F0E5FFFFF7BC
:100F5000F5FBD5F8E030204643F00073C5F8E030EB
:100F6000D5F8E03003F000730293029B06F02CF8F2
:100F70002146204606F036F80D4C4FF6FF732268E6
:100F800012043FF5C5AE013BF9D272B6FEE700BFD1
:100F90000024025800200258001802580014025879
:100FA000000002580040005298990024404100522D
:100FB000004402580268034B9A4201D104F0DABFA0
:100FC000704700BF0010004072B6FEE70F4B07B538
:100FD000D3F8F4200F216FF0010042F00202C3F8B1
:100FE000F4200022D3F8F43003F002030193019BB4
:100FF00004F0FCFF002205217D2004F0F7FF7D2096
:1010000003B05DF804EB05F023B800BF00440258BC
:10101000026882B0094B9A420DD1A3F50063D3F860
:10102000E02042F40022C3F8E020D3F8E03003F4DB
:1010300000230193019B02B0704700BF004C02588F
:101040000F4B07B502689A4217D10E4B07215A2061
:10105000D3F8D42042F01002C3F8D4200022D3F8F1
:10106000D43003F010030193019B04F0BFFF5A201A
:1010700003B05DF804EB04F0EBBF03B05DF804FBD4
:10108000001000520044025810B5BAB004461422B1
:10109000002103A81FF004FCC822002108A81FF0AB
:1010A000FFFB2368B3F1A04F38D14FF080620023DB
:1010B00008A8CDE9082308F007FF08B1FFF784FF6F
:1010C000174B002403A91748D3F8E42042F010027C
:1010D000C3F8E420D3F8E42002F010020192019A50
:1010E000D3F8E02042F40072C3F8E0200422D3F8E1
:1010F000E03003F400730293029B0223CDE9032343
:101100000D23CDE90544079305F0C6FD7B2022465B
:10111000072104F06BFF7B2004F09AFF3AB010BD6A
:10112000004402580024025837B53C4B054602687B
:101130009A4270D13A4B02213A4C4FF0007ED3F8DC
:10114000D420DFF8ECC0204642F02002C3F8D420BF
:101150008022D3F8D43003F020030193019B1123A4
:10116000C4E900C30023C4E90232C4E907322022E3
:101170002361C4E90513C4E909E24FF4A0414FF427
:101180000032C4E90D33C4E90B1207F0BEFB08B10D
:10119000FFF71AFF00222348114607F044FC08B16C
:1011A000FFF712FF2C6313231F4A082125644FF415
:1011B000A0401E4CC4E900230023C022C4E902322F
:1011C00020222362C4E906124FF00071C4E909121B
:1011D0004FF42032C4E90B022046C4E90433C4E9C9
:1011E0000D3307F092FB08B1FFF7EEFE00220F4827
:1011F000114607F018FC08B1FFF7E6FE6C63002209
:1012000005217920256404F0F1FE792003B0BDE8C2
:10121000304004F01DBF03B030BD00BF00300052AD
:10122000004402582C9B0024C0010052C09A0024A4
:101230000002005210B5B4B00446C822002102A832
:101240001FF02EFB2268184B9A422BD14FF0005210
:101250000023152102A8CDE90223A1230522CDE90F
:101260000C230223CDE90E334FF40063CDE91013B4
:1012700008F02AFE08B1FFF7A7FE0C4B5820072103
:10128000D3F8E42042F00802C3F8E4200022D3F8A7
:10129000E43003F008030193019B04F0A7FE5820FB
:1012A00004F0D6FE34B010BD0010005000440258C7
:1012B000F0B5BFB004461422002107A81FF0F0FAD1
:1012C000C82200210CA81FF0EBFA2268534B9A4267
:1012D00040F0A1804FF0007200230CA8CDE90C2350
:1012E00008F0F2FD08B1FFF76FFE4D4B0225002418
:1012F0000926D3F8D42007A94A480A2742F4804295
:10130000C3F8D420D3F8D42002F480420192019A89
:10131000D3F8E02042F04002C3F8E020D3F8E02008
:1013200002F040020292029AD3F8E02042F020023A
:10133000C3F8E020D3F8E02002F020020392039AE1
:10134000D3F8E02042F08002C3F8E020D3F8E02098
:1013500002F080020492049AD3F8E02042F00202E4
:10136000C3F8E020D3F8E02002F002020592059ACB
:10137000D3F8E02042F00802C3F8E020D3F8E030D0
:1013800003F008030693069B4FF48443CDE9073529
:10139000CDE909440B9605F07FFC402307A92148BD
:1013A0000B97CDE90735CDE9094405F075FCC0235D
:1013B00007A91D480B96CDE90735CDE9094405F08D
:1013C0006BFC4FF4007307A917480B97CDE907355D
:1013D000CDE9094405F060FC0C2307A913480B96DE
:1013E000CDE90735CDE9094405F056FC042307A9EA
:1013F0000F480B96CDE90735CDE9094405F04CFCC3
:101400004FF4006307A90B480B96CDE90735CDE9EA
:10141000094405F041FC3FB0F0BD00BF0050005250
:10142000004402580018025800140258001C0258C8
:1014300000040258000C0258F0B5B9B00021142283
:1014400001A81FF02DFA3F4B1968002977D101221E
:1014500008A81A60C0221FF023FA4FF08072002300
:1014600006A8CDE9062308F02FFD08B1FFF7ACFD73
:10147000354B022700260325D3F8D4200C2401A9DC
:10148000324842F48052C3F8D420D3F8D4300594C3
:1014900003F480530093009B40F2FF63CDE90365A2
:1014A000CDE9013705F0F8FB602301A92848059430
:1014B000CDE90137CDE9036505F0EEFB4FF6837307
:1014C00001A924480594CDE90137CDE9036505F06C
:1014D000E3FB4FF47F4301A91F480594CDE9013791
:1014E000CDE9036505F0D8FB48F2331301A91B4889
:1014F0000594CDE90137CDE9036505F0CDFB4CF24C
:10150000037301A916480594CDE90137CDE90365B8
:1015100005F0C2FB4FF63F0301A912480594CDE93F
:101520000137CDE9036505F0B7FB012301A90E489A
:101530000594CDE90137CDE9036505F0ADFB39B080
:10154000F0BD00BF9C9C00240044025800200258BB
:101550000004025800100258001C025800180258DB
:10156000000C025800140258000802581A4B1A685E
:1015700010B582BB194A012440F2FF6118481C6073
:10158000D2F8D43023F48053C2F8D43005F06CFC88
:101590006021144805F068FC4FF68371124805F08D
:1015A00063FC4FF47F41114805F05EFC48F23311B3
:1015B0000F4805F059FC4CF203710E4805F054FC3D
:1015C0004FF63F010C4805F04FFC21460B48BDE8A3
:1015D000104005F049BC10BD989C002400440258FE
:1015E000002002580004025800100258001C025843
:1015F00000180258000C0258001402580008025843
:101600000F2810B504468AB002D901200AB010BDD7
:1016100001460022362004F0E9FC362004F018FDD3
:10162000184B694602A81C60174BD3F8E82042F01B
:101630001002C3F8E820D3F8E83003F01003019358
:10164000019B08F02BFB079BC3B908F003FB0F4C71
:101650000F4B236040F2E733E3600E4BB0FBF3F037
:1016600001380023606020462361A36009F014FB69
:101670000028CAD1204609F0D9F9C7E708F0EAFAEC
:101680004000E4E77400002400440258A09C0024B9
:101690000010004040420F00FEE7FEE7FEE7FEE7D5
:1016A000FEE77047014809F003BA00BFA09C002480
:1016B000014807F043B800BF189A0024014804F01D
:1016C000D1BD00BF0C9C0024014806F00FBF00BF35
:1016D000989B0024044808B507F02AFA0348BDE89F
:1016E000084007F025BA00BFC09A00242C9B0024B4
:1016F000014804F0BABF00BFF09B002405F07CBC99
:101700000120704708B51FF0DDF9162303604FF084
:10171000FF3008BD08B51FF0D5F916230360FEE7BA
:1017200070B50D4614460E46731B9C4201DC2046E4
:1017300070BDAFF3008006F8010BF5E770B50D46FC
:1017400014460E46731B9C4201DC204670BD16F801
:10175000010BAFF30080F5E74FF0FF3070474FF417
:10176000005300204B6070470120704700207047F5
:101770000B4A0346116810B509B90A49116010688F
:1017800009490A4C0344091B8B4206D91FF09AF9F8
:101790000C2303604FF0FF3010BD1360FCE700BF67
:1017A000EC9C0024985E0224000008240010000035
:1017B000DFF834D004F040FB0C480D490D4A0023FB
:1017C00002E0D458C4500433C4188C42F9D30A4AF6
:1017D0000A4C002301E013600432A242FBD31FF045
:1017E00077F9FFF70DF87047000008240000002487
:1017F0003C0100246845020840990024945E0224BC
:10180000FEE7704708B501F021FDBDE8084001F092
:10181000A5BC01F01DBD4068704741607047521A79
:1018200002EB5302B2FBF3F070470000024BC068BA
:101830001B685B6A58437047F09C002470470000A7
:1018400037B51E4A4FF0804105464FF0FF30D2F8C1
:10185000E83043F00103C2F8E830D2F8E83003F092
:1018600001030193019B164B19600021D860196197
:101870009960596001215961D369102203F0700306
:1018800092FAA2F2B2FA82F2D3400E4AD35C83B942
:1018900008F0BEF9044607F0F3FFB0FBF4F0E8608F
:1018A000074809F0F9F9064803B0BDE8304009F0EF
:1018B00083B808F0CFF94400EDE700BF00440258B8
:1018C000F09C00245439020810B5044610211EF083
:1018D000D2F9204610BD38B5036804461B6931B102
:1018E0008568984763685B1B0344636038BD98470D
:1018F000A060FBE770470000F8B50A4B0F4616469C
:101900001D7815B900252846F8BD074C0020214652
:1019100004F036FA2368002BF4D063683B60A368B8
:101920003360F0E74C9D00243C9D002410B5044634
:1019300004211EF0A0F9204610BD000008B50E4B92
:101940004FF44872002019684FF4F073C1E9002386
:101950000C23C1E9023004F083F9084B10B90122CD
:101960001A7008BD1B78002BFBD1054B2E21054AB0
:1019700005481EF0F9FC00BF489D00244C9D002442
:10198000FD140208101502083A150208032825D88C
:10199000DFE800F0020B131B114B08211A68B2FAA2
:1019A00082F252090F4805F001BB0D4B4FF48071D4
:1019B0005A68B2FA82F25209F4E7094B4FF4007107
:1019C0009A68B2FA82F25209ECE7054B4FF4807143
:1019D0000548DA68B2FA82F25209E4E7704700BFBC
:1019E000509D00240024025800140258032825D8D2
:1019F000DFE800F0020B131B114B08211A68003AB4
:101A000018BF01220F4805F0D1BA0D4B4FF4807179
:101A10005A68003A18BF0122F4E7094B4FF40071ED
:101A20009A68003A18BF0122ECE7054B4FF4807129
:101A30000548DA68003A18BF0122E4E7704700BFA2
:101A4000509D00240024025800140258032811D885
:101A5000DFE800F00206090C0821074805F0ABBAE0
:101A60004FF48071F9E74FF40071F6E74FF480719D
:101A70000248F3E7704700BF0024025800140258E0
:101A800008B5032815D8DFE800F0020A0D10082178
:101A9000094805F085FA431E5842584108BD4FF4E5
:101AA0008071F5E74FF40071F2E74FF4807103485D
:101AB000EFE70020EFE700BF0024025800140258AF
:101AC00070B5084D00240126E0B2FFF7D9FF18B128
:101AD0002B68012B18BF2E6001340435052CF3D17F
:101AE00070BD00BF509D0024012380F8781080F85D
:101AF000793070477047002070470000416400391A
:101B0000024B18BF01211970704700BF73510224A6
:101B1000704700207047836B0BB108461847704729
:101B20004FF6FF707047406803689B69184770471D
:101B300070470000014B1868704700BF749D002477
:101B4000704701F082BC01F013BC01F0E3BD01F06D
:101B5000D5BD000010B5044601F098FD94F84B3057
:101B600013B1024B01221A7010BD00BF0C000024FB
:101B700001F006BC10B504460CF000FC23682046BA
:101B8000D3F8BC30BDE81040184710B504460BF040
:101B90004DFF60680368BDE810401B6918470BF0F3
:101BA0000DBE10B5044684211EF065F8204610BD18
:101BB000024B00221A700BF03DBE00BF0C00002447
:101BC00038B50446064D01F001FC0023284684F890
:101BD0004A30FFF735FE0123256184F8703038BDA7
:101BE000649D00240368044607B5D3F88430984701
:101BF00023682046DB6F984700F066FF2368204685
:101C00005B6F98470021292315220548009104F0B5
:101C10003CFF00F059FF236820465B6F9847F8E7C8
:101C2000F09B002490F834100D4B10B590F87840DC
:101C30001A788C4209D03AB90A490B4A08881488A4
:101C4000108001220C801A7010BD002AFCD0064AB8
:101C50000449148808880C8010800022F3E700BF34
:101C60006C5102246A5102246851022408B5094BC0
:101C70001B888B4203D8084B1B88934205D9074B1E
:101C8000A321074A07481EF06FFB074B1980074B3B
:101C90001A8008BD685102246A510224771502088F
:101CA000DA1502081D1602086E5102247051022432
:101CB000034690F87A0018B1586803681B68184703
:101CC0007047000070B50D4619460B4B1D6035B9C5
:101CD0000A4B40F2FF210A4A0A481EF045FBC0E9C0
:101CE0000F52003A084B18BF01221A700368BDE872
:101CF0007040D3F890301847749D00247016020885
:101D0000A81602081D1602087251022470B5C0E917
:101D10000112C3604FF480720023BDF81460BDF857
:101D200010500321038580F82A302035C3620386D2
:101D3000ADB280F858304366B54280F87030C0E9E3
:101D400012231C4AC0E91A231B4AC0E90433C0E924
:101D50000633C0E90833C0E90E33C0E91033C0E9E7
:101D60001433C0E91733436782674FF48062A0F8E9
:101D70007C204FEA9602A0F87E20B2FBF1F2A0F898
:101D800080204FF01402A0F882200C4A10600C4A08
:101D900015800C4A158028BF00250B4A38BF012545
:101DA00016800A4A80F834501680094A1370094B8D
:101DB000036070BD010000010000010174510224A4
:101DC000685102246E5102246A5102247051022487
:101DD0006C510224B0320208012B13B50ED8D35C2B
:101DE000152200930B460146084804F04EFE18B138
:101DF0006FF0070002B010BD0020FBE7CDE9001234
:101E000001463922014804F051FEF0E7F09B00241E
:101E10001FB5CDE90112062100910146054804F0E5
:101E2000A5FE002814BF6FF00700002005B05DF884
:101E300004FB00BFF09B00241FB54FF201430B4C85
:101E400039220021ADF80C3003AB20460193442326
:101E50000093022304F02AFE002135231522204698
:101E6000009104F012FE04B010BD00BFF09B0024EE
:101E700008B5FFF7E1FF0C4B02221B68C3F81024E2
:101E80000122C3F81024D3F8082442F00102C3F859
:101E90000824D3F8082442F00202C3F808240322DD
:101EA000024B5A6308BD00BFF09B00240010005095
:101EB000074B07B5197839B9012206481A7029234A
:101EC0001522009104F0E1FD03B05DF804FB00BFB2
:101ED000609D0024F09B0024064B07B501932A2344
:101EE0003922002100930423034804F0DFFD03B0EE
:101EF0005DF804FB08000024F09B0024064B07B5A6
:101F000001932A233922002100930423034804F07B
:101F1000CDFD03B05DF804FB04000024F09B002419
:101F200038B5154D04460020FFF730FD2B6893F8B7
:101F30006A20013283F86A20002283F87C2000F0B6
:101F4000B7FD0E4B2A6819781B7882F84A1073B1D6
:101F50000B4D2B7803F0FF024BB90A4B1A60FFF7C9
:101F6000BBFF204604F081FD01232B7038BD00200B
:101F7000BDE83840FFF73ABD745102240C0000243C
:101F80007C9D0024789D00242DE9F043494E85B0C6
:101F900004463378002B00F08980DFF83C91DFF8AD
:101FA0003C81D9F80050444F002D3ED10120434ED2
:101FB00003F0F2FF23680095D3F80424386822F078
:101FC000080200F59660C3F80424D3F8042402F054
:101FD00008020092009AD8F80020C2F8AC003848F5
:101FE0000661384E46613848C2F888003748C2F862
:101FF000B000516A41F0010151620195D3F8042407
:1020000042F00802C3F80424D3F8043403F00803B0
:102010000193019BFFF772FF01232046C9F80030AE
:1020200005B0BDE8F04304F020BD03680025386822
:102030000295D3F80424264C22F00802C3F80424A5
:10204000D3F8042402F008020292029AD8F8002081
:10205000C2F8AC001A48046104F1011444611A4842
:10206000C2F888001948C2F8B0002846516A41F009
:10207000010151620395D3F8042442F00802C3F829
:102080000424D3F8043403F008030393039BFFF7FD
:10209000ADFCFFF70DFF0F4B35701C6834B12368A2
:1020A00020461B6A9847012384F87C3005B0BDE8C0
:1020B000F08300BF7C9D0024749D0024E201B201E6
:1020C00000100050E301920103009201B304C00923
:1020D000E201920174510224789D0024189A002490
:1020E000014608B5034B186801B101210CF060F9F5
:1020F000012008BD74510224034B00225A609A60EB
:10210000024A1A60704700BF649D002470320208C2
:102110004069704790F840007047036B23B9C06A6C
:10212000003818BF01207047012070478068704751
:102130007047043010B50C460FC884E80F0010BD7E
:102140007047000008B5034A4FF4E471024B03489E
:102150001EF00AF9F6160208962F02085117020817
:1021600010B5044648211DF086FD204610BD000034
:1021700000220E4B10B5114604460360C26380F87E
:102180004020C0E90522C0E90722C0E90922C0E9D0
:102190000B22C0E90D22C0E90322C0E9012201207F
:1021A00008F046FF024B1860204610BD9C33020821
:1021B0009C9D002410B40C4611461A46036B3BB19B
:1021C000C36B406BE41A20445DF8044B1EF070BBF7
:1021D000C06AF8E7036B10B573B1C36B426BC91AE1
:1021E0005318525C98785C78000440EA042010434D
:1021F000DB7840EA036010BDC26A5318525C59781C
:102200009878000440EA0120F1E7036B43B1C36B07
:10221000C91A436B5A18585C527840EA022070473A
:10222000C36A5A18585C537840EA0320704700008C
:1022300070B50446006B0D461646D8B1A36B9342A9
:1022400008D209230D4AA0210D4884F840300D4BD7
:102250001EF08AF80368DB689847206B3246616B92
:1022600003681B69984710B90D2384F84030606BF0
:10227000E56370BDE06A0844FBE700BFAB170208E6
:1022800051170208981702082DE9F84343690446DC
:102290002BB9224BE621224A22481EF065F808227B
:1022A0008169FFF7C5FFA16943F2300646F2643742
:1022B00004312046FFF78EFFA3691844A36A00F19A
:1022C00008029A4206D3012300206361236AA361B6
:1022D000BDE8F883636900F1090108222046013353
:1022E00021F001016361A161FFF7A2FFD4F818900A
:1022F00020464946FFF789FF09F102018046204642
:10230000FFF783FF09F1040105462046FFF762FF4E
:10231000B045D1D1BD42CFD10120D9E7ED17020898
:1023200036180208511702080129036838BF012135
:10233000DB6A70B50D4604469847A84204D223686C
:102340002046DB6A984705466B1EE6691022204648
:1023500006EB031606F10801FFF76AFF06F110010C
:102360002046FFF737FF236A043B0344C4E90553C3
:1023700070BD0000002148222DE9F0410446816132
:1023800080F84010FFF754FFA6690423634A3146E2
:102390002046FFF70FFF48B10323614A4FF49771BE
:1023A00084F840305F4B60481DF0DEFF06F1080105
:1023B00004235E4A2046A161FFF7FCFE38B10423E6
:1023C000574A4FF49B7184F84030594BEBE706F1C4
:1023D0000C010423574A2046A161FFF7EBFE074694
:1023E00038B105234E4A40F23D1184F84030524B3B
:1023F000D9E706F110012046FFF7ECFE054620B9AB
:102400004E4B40F24311464ACDE706F1140804232F
:102410004B4A20464146FFF7CDFE002849D006230F
:1024200084F840300423474A06F118012046FFF79C
:10243000C1FE00283FD0072384F840304544424F76
:102440000C2220462946FFF7F3FE05F10806042377
:102450003A4620463146FFF7ADFE94F8403000285A
:1024600048D0002B48D1A36AAB4249D805F10C03F0
:1024700004352046A3612946FFF7ACFE30442946C7
:1024800060622046FFF7A6FE06440422204631463D
:10249000FFF7CEFE04232D4A31462046FFF78AFE81
:1024A000002838D10123E6616361A3692362BDE896
:1024B000F0810127B6E7002FC0D006F120012046A9
:1024C000FFF788FE4FF47A7306F13001B0FBF3F0AA
:1024D00060602046FFF77EFE06F14001A0602046C6
:1024E000FFF778FE06F14401E0602046FFF772FE38
:1024F0002061A3E7002BB9D00A2384F84030D6E747
:10250000291D2046FFF766FE85190C222046294624
:10251000FFF78EFE99E70B23EFE700BF691802086B
:10252000871802086E18020851170208B41802082A
:10253000B9180208D1180208D6180208EC180208C7
:10254000F8180208FD180208021902080719020803
:10255000C0E90A2100220263FFF70CBF10B5002377
:1025600004460846E3620B6821639B689847A062B3
:102570002046BDE81040FFF7FDBE000037B5134B05
:102580000024134D1C60134B1C60134B2C601C600B
:10259000124B1960124B1A60124B1C60124B2A68C6
:1025A0004FF4C0751C701C74C3E90244C3E90644AF
:1025B00003EB02130D4AD2686A4300924FF4504273
:1025C0005B6805F00BFC204603B030BDB49D0024D1
:1025D000A49D0024989D0024C49D0024BC9D00243B
:1025E000C09D0024A09D002410000024809D002494
:1025F0004B68012B15D1CB681A071EBF23F00F03C0
:102600001033CB608B6818071EBF23F00F03103305
:102610008B60CB688A681B09120953430E4A13600A
:102620007047022B0ED1CB681A0703D023F00F039B
:102630001033CB608B685A071EBF23F007030833A3
:102640008B607047002BFCD1CB685807F2D023F089
:1026500007030833EDE700BFAC9D00240B4A136865
:102660000B4430B413600A4A126893420CD2094CEE
:10267000D21A2568B2F5504F294428BF4FF4504272
:10268000216030BC05F00CBC30BC7047C49D0024F8
:10269000C09D0024BC9D0024F8B5204C0121204D94
:1026A000064623681F4F1B01E954236805EB0313FB
:1026B0009A601D4B1968226805EB0212D1601A68F6
:1026C000F9680A441A602368013323602368012BE8
:1026D00001D90023236023681B01EB5C33B1022185
:1026E000304605F0AFFB114B01221A6022683046DC
:1026F000FB6805EB02154FF4C07269685A4305F098
:10270000D2FB0B4B1B681A7A3AB99B7A2BB9094B4F
:102710001868BDE8F84008F001BDF8BDA49D00248C
:1027200010000024809D0024A09D0024B49D00245E
:10273000A89D00249C9D002472B6FEE7014B012257
:102740001A607047B89D002438B5164D04462B68B2
:1027500013B1154B1B681BBB144B1868037A63B984
:10276000134B144A1B681B01D35C012B05D10E4B84
:102770001B6813B903681B6998470F4A1368012B3C
:102780000CD10E4B0B491B681B01CB5C33B92B687A
:1027900023B902212046136005F0B1FD022038BDA7
:1027A0000120FCE7B89D0024949D0024A89D0024EE
:1027B000989D002410000024B49D0024A49D0024B2
:1027C00070B50546002A37D0002B35D01B480324AE
:1027D0000461EC6826074FF4166618BF24F00F0456
:1027E000466018BF103404602409C4602C6914F0DA
:1027F0000F0418BFC4F1100484601148114C036029
:102800001148FFF7BBFE6A6C104B0F4D1A6028464B
:10281000FFF79AFF20602368022B05D10C4B4FF085
:10282000FF31186808F04EFC2368012BEFD100231C
:10283000084A1360084A136070BD00BF809D0024E1
:10284000C89D0024B09D0024989B0024A89D0024CE
:102850009C9D0024B89D0024949D00242DE9F04FF8
:102860009946436985B004460F4690462BB9294BDB
:10287000B221294A29481DF077FD08228169FFF716
:10288000D7FCA66920463146FFF7BFFCB11C834642
:102890002046FFF7BAFC311D82462046FFF79AFC1E
:1028A00006F10801A36A05460A189A4226D243F2A5
:1028B00030039B4517D146F264339A4513D190B14A
:1028C0000246A1612046FFF7B3FC0E9B01462A4653
:1028D0002046CDF80080CDE901933B46FFF770FF1D
:1028E000636901336361A3692B4405B9083301337C
:1028F000626A23F001039342A36109D101230120FD
:102900006361236AA36180F0010005B0BDE8F08F28
:102910000020F8E7ED1702080C1902085117020809
:10292000F8B50446816916460822FFF781FCA769BD
:102930002046391DFFF74EFC07F108010246054607
:102940002046FFF775FC01466EB12A46074C084D3C
:1029500033460748FFF712FE2846FFF7F5FE2060D2
:102960002368002BF8D00120F8BD00BFB09D0024E3
:10297000989B0024F0B5C7680122154C3901154E0B
:102980002368B1FBF3F163685943134B5A630901A0
:10299000E26836681505B61AB74215D3A468C4F1C3
:1029A00010042C435C640D4CC2F132022468120105
:1029B0002144D9631A6400221A61094ADA61426823
:1029C000DA60084A1A60F0BD45F010055D64EAE778
:1029D000809D0024AC9D002400100052C89D00245E
:1029E0000B0009FF012301000C4B00220270196843
:1029F0008260013119601968012900D91A60084BF9
:102A0000084A1B68D2689B1AC2689A4202D3064BD6
:102A100001221A60054B186808F080BB989D0024BD
:102A2000AC9D0024809D0024949D00249C9D002446
:102A30000121002208B5084608F0FAFA0A4B18608E
:102A400028B90A4B28210A4A0A481DF08DFC0022A9
:102A50000421012008F08BFB074B186018B9074BC5
:102A60002C21034AF0E708BDD09D00246719020815
:102A7000B0190208DF190208CC9D00241C1A0208B4
:102A8000024B4FF0FF31186808F01CBBD09D0024AA
:102A9000014B186808F042BBD09D0024024B002176
:102AA000186808F00FBB00BFD09D0024FFF7F0BFEF
:102AB0000023034803491A46006808F093BB00BF8F
:102AC000CC9D00243000002413B50023074C01A93D
:102AD0001A46206808F0B7FB4FF0FF33002201A927
:102AE000206808F0B0FB02B010BD00BFCC9D0024F0
:102AF00003685B6C184701207047FEE740F2EF3037
:102B00007047000010B504464FF0FF31D0F8A40D17
:102B100008F04CFA606803681B68984778B9637AD4
:102B20006BB1237A5BB984F8A03D204623685B6AC9
:102B30009847D4F8A40DBDE8104008F05ABA0B49E4
:102B40000B4A0B681B01D35C012BF2D1207A0028C1
:102B5000EFD1A07A0028ECD1086884F8A03D02EB00
:102B600000102372FFF706FFE3E700BF989D0024E3
:102B700010000024054B4FF080620360044BC3F843
:102B80008820BFF34F8FBFF36F8F7047E033020889
:102B900000E100E010B5044640F6A851FFF7EAFF57
:102BA00020461DF068F8204610BD0000104B82B092
:102BB000D3F8D42042F01002C3F8D420D3F8D420A4
:102BC00002F010020192019ADA6F42F01002DA6705
:102BD000DA6F22F01002DA67064B074A1A62074AD8
:102BE0005A62074B4FF080629A6002B0704700BF94
:102BF000004402580C9C0024492E0008FB2A0008BF
:102C000000E100E008B50A2809D8DFE800F0061066
:102C10000E080808081010101000022008BD054B0F
:102C20009121054A05481DF09FFB0020F6E7012091
:102C3000F4E700BF5E1A0208791A0208C41A0208F3
:102C400038B50C46887FFFF7DDFF124BA58AE28A74
:102C5000586342EA054221695A64628BD963521B68
:102C60001A642568082D0ED19A611A6158620A4AC1
:102C7000207F42EA0062DA61E2681A62074A59611B
:102C8000D9601A6038BD0022D8611A61E2689A637F
:102C9000034AF6E700100052090001000123020078
:102CA0000123030008B50B280BD8DFE800F006125B
:102CB000100A0A0A0A0808080808022008BD0520A8
:102CC000FCE7054B7021054A05481DF04DFB00202F
:102CD000F4E70120F2E700BF5E1A0208FF1A0208BB
:102CE000C41A02082DE9F8434F7F89463846FFF79A
:102CF000D9FF99F81E5080462846FFF7D3FF0646B5
:102D00002846FFF77FFFB9F81410B9F81A40B9F850
:102D10001820454B641A521A1C649C611A61B9F858
:102D20001620586342EA0142D9F810105A64D9F8C3
:102D30000420D963DA60D9F8004099F81C20802C6F
:102D400022D00FD8202C66D0402C64D0042C5CD02C
:102D500048EA0260344BAF4240F40030D86160D0A2
:102D6000324A3FE0B4F5807F04D0B4F5007FEFD164
:102D70002F4800E02F4840EA0262DA61D9F80C20BF
:102D80001A625E6259612CE048EA0260D9F8084094
:102D900040F40030D8615E625961211DD96221780A
:102DA00041B1012921D0244B40F20B11234A244880
:102DB0001DF0DAFADA69618822F47F42013922F0E3
:102DC000100242EA0122DA610122174BD96941F06F
:102DD0002001D961D9698906FCD410219960002AA3
:102DE000BED0184A1A60BDE8F883D969FF3A6088F6
:102DF00021F47F4118BF0122013821F0100141EA7E
:102E0000002141F01001D961DFE748EA026242F493
:102E10000032DA61B5E748EA0262034B42F400325D
:102E2000F7E742F20132DDE7001000520123010012
:102E3000090002000A000200491B0208631B020885
:102E4000C41A020801230200024B1B685868036879
:102E50005B6918477451022490F8A03D10B50446F0
:102E6000D3B903689B6A984719491A4A0B681B0132
:102E7000D35C012B2AD11848006838BB207A28BBC4
:102E8000A07A18BB086884F8A03D237202EB0010FA
:102E9000BDE81040FFF76EBD037A43B10023037213
:102EA0000B4B18680B4B03EB0010FFF79DFD6068A0
:102EB00003681B68984748B9637A3BB1236884F874
:102EC000A00D20465B6ABDE81040184710BD00BF4A
:102ED000989D002410000024949D002470B50446A1
:102EE0000E4B0C300026254660226060267266720A
:102EF00045F8203B29460BF09DFB04F55A63EE6034
:102F000024359D42FBD184F8A06D0020C4F8A46D47
:102F100008F014F8C4F8A40D204670BDE033020890
:102F2000034B1A68D207FCD423229A60704700BF73
:102F3000001000520B4A5369DB0311D500290FDD45
:102F400000F01F031944BFF34F8F0144C2F8680219
:102F500020300B1A002BF9DCBFF34F8FBFF36F8FBC
:102F6000704700BF00ED00E030B5104C2568ED075C
:102F7000FCD423250904FF2BA5604FF0010541EA8D
:102F8000050165636164E0630CD0094922F07F426A
:102F9000656241EA0363E361064B22626061E060BF
:102FA000236030BDE561044BA263F9E700100052D5
:102FB00009000100010002000100030030B50E4CC1
:102FC0002568ED07FCD423251204FF2BA5604FF0E4
:102FD000010542EA050265636264E063E16007D0CF
:102FE000064A42EA0363E36165626061226030BDC4
:102FF000034BE3612560FAE7001000520100020074
:10300000010002FF30B50B4C2568ED07FCD42325E9
:1030100012041B06A560012543F400332A436563AF
:103020006264E063E160E361034B656260612360B9
:1030300030BD00BF001000520100020001207047A7
:103040000C2070470C2303FB0100083070470C2351
:1030500003FB01000830704701207047982070473B
:10306000982303FB010008307047982303FB0100FD
:1030700008307047012070471020704700EB0110A6
:103080000830704700EB011008307047084600F028
:1030900037BE0000034B10B5044603600AF0E5F8A4
:1030A000204610BD9834020810B50446FFF7F2FF21
:1030B000142120461CF0DFFD204610BD034B10B547
:1030C000044603600AF0D1F8204610BD64340208BB
:1030D00010B50446FFF7F2FFA02120461CF0CBFDFF
:1030E000204610BD034B10B5044603600AF0BDF83E
:1030F000204610BD3034020810B50446FFF7F2FF39
:10310000182120461CF0B7FD204610BD084B10B515
:10311000044640F8CC3BFFF7BDFF04F12C00FFF75D
:10312000CDFF04F11400FFF7DDFF204610BD00BF06
:10313000CC34020808B50248FFF7E8FF08BD00BF1D
:1031400094AC002410B50446FFF7E0FF4FF4107173
:1031500020461CF090FD204610BD00002DE9F341F3
:1031600000F052FC0024054600F052FC23460146C4
:1031700022462846009411F0F9FF274B274A2046A3
:10318000274D1A6000F0C8FF264B274A27489A604F
:1031900011F098FE2B68BFF35B8FDB0735D4284610
:1031A0001CF06BFD88B3224C224B04F1E40604F1C1
:1031B000140004F12C0804F1CC0723606060C4F80B
:1031C0000880E76026610AF051F81B4B40466361B6
:1031D0000AF04CF8194B3846E3620AF047F8184BEE
:1031E00004F1E000C4F8CC3001F00CF8224604F100
:1031F000E001304600F0FCFF304600F081FD114850
:103200001DF0D0F828461CF044FD0F4802B0BDE880
:10321000F041FEF7D5BC00BFD8510224589E0024CF
:1032200090AC0024789E00245C9E0024340000248E
:1032300094AC0024CC340208303402086434020810
:103240009834020835310008D49D002470470000EE
:103250000148FEF7C7BC00BFD49D002473B50E4CD7
:103260000E4B0F4E20460F4D3360FFF737FE2846BA
:1032700015F094FD0C480FF0A7FF4FF448734FF47E
:10328000F07221460948CDE9003233462A46FEF75E
:103290003DFD02B070BD00BFE49E002498320208DC
:1032A0008CAC0024789E00245C9E0024D49D0024D5
:1032B0000148FFF75FBC00BFE49E00240020704778
:1032C00081807047C180704701817047418170479C
:1032D0007047704770477047704710B4C4880368E0
:1032E000121B84885B6D091B12B25DF8044B09B296
:1032F00018474FF6FF7383814FF0FF330362136863
:10330000C36110607047002070478B888380012064
:103310007047704780F82610704790F82600704775
:1033200010B50022B1F90840B1F90A1002804280BC
:103330008480C18010BD0022028042808280C280D1
:1033400070470177704780ED080A704780F82410B5
:10335000704780F8251070470120704798307047FB
:103360008C3070478430704770477047704700005A
:10337000024B902283F85A23704700BF00E100E01F
:1033800070470163C0E90D217047704700EB810071
:10339000114640680368DB68184780F83C107047A6
:1033A00010B5044648211CF066FC204610BD10B53F
:1033B00004462C211CF05FFC204610BD10B50446CD
:1033C000BC211CF058FC204610BD000038B5044656
:1033D0000AF049FA23689D6E0EF088FC01462046EB
:1033E000A847236808492046D3F88C5000231A4682
:1033F000A8476368054A5364054B5A60054A1A6337
:103400009A63054A5A6338BD009411D0DCAF00249A
:1034100094AF0024000000D00094110038B5044699
:103420000D46406C4FF0FF3107F0C0FD606C07F0B7
:10343000E0FD242303FB0545002385F8283094F89C
:1034400028300BB9236BA36338BD0AF0BDB90AF06D
:103450002CBB90F8252012B103685B6918477047B0
:10346000124A5369DB0370B51ED50023C2F88430BD
:10347000BFF34F8FD2F8803043F6E074C3F3C90036
:10348000C3F34E335B0103EA0406014646EA817545
:103490000139C2F87452F9D2203B13F1200FF2D156
:1034A000BFF34F8FBFF36F8F70BD00BF00ED00E023
:1034B00008B531B1044B4FF4B871044A04481CF00C
:1034C00053FF90F8290008BDA11B0208B51B020894
:1034D0003F1D020810B531B1064B4FF4B571064AD5
:1034E00006481CF041FF406811460368BDE81040E3
:1034F0001B6B1847A11B0208891D02083F1D02080B
:1035000008B529B1034B7921034A04481CF02CFF6C
:10351000C06808BDA11B0208371F02083F1D020832
:1035200010B5044629B1194BA221194A19481CF0BB
:103530001BFF052A15D8DFE802F0031115171C221E
:10354000406803681B69984758B1012384F8293003
:1035500084F82C300023C4E9043302E0002380F80F
:10356000293010BD0362F5E70362012380F82A3099
:10357000F0E7002380F8293001230362F1E7003BE4
:1035800018BF012380F82D30EBE700BFA11B020814
:10359000EC2002083F1D020810B50C4611461A46E1
:1035A0002CB1064B9021064A06481CF0DDFEC46093
:1035B00040680368BDE810409B681847A11B0208DB
:1035C000C02202083F1D020808B529B1054B82211F
:1035D000054A06481CF0C8FEC0E90411C0E90632DD
:1035E00008BD00BFA11B02089B2402083F1D020862
:1035F00090F83D3010B5044653B14FF0FF31406CA8
:1036000007F0D4FC002384F83D30012384F83E30D9
:1036100010BD90F825201AB190F8242002B118604E
:103620007047000010B50446104629B1134BD02155
:10363000134A14481CF098FE94F8293033B1124B09
:103640001B6893F86B2063691344636194F82B3013
:103650000BB9012010BDA368036303685B69984739
:10366000002394F82C0084F82B300028F1D194F832
:103670002D30002BEED184F82900EBE7A11B0208C6
:10368000572602083F1D02087451022470B51A4CD7
:1036900005460AF0DBF894F8293013B994F82A307B
:1036A000ABB1E169D4E90532534322694A439342FD
:1036B0000DD394F83C0038B19B1AB3FBF1F2994258
:1036C00098BF02F1FF326262012384F82E30012399
:1036D000206C84F83D3007F021FD94F83E302BB18A
:1036E000606C07F086FC002384F83E30686803684D
:1036F000BDE870401B69184794AF0024044B4FF09D
:103700008062C3F88820BFF34F8FBFF36F8F70477D
:1037100000E100E0024B4FF080629A60704700BF0A
:1037200000E100E0F8B5034690F82800D8B94FF45E
:1037300080729E6B0125D8609A8506F58C121861FF
:1037400002F5A05258619861D861186258629D6272
:1037500083F82E00D3E90C473C44A2420AD90B4B14
:1037600052210B4A03E00B4B40F2C5110A4A0B48A9
:103770001CF0FAFD9E609A634FF4487381F8345050
:10378000CB864FF4F07308630B87F8BDAF290208AE
:10379000EA290208F8270208282802083F1D020823
:1037A000002370B5124E04468380124B03603368C9
:1037B00093F858200AB1D86C00B998680368DB6A9E
:1037C0009847431E5D425D413368D86C30B1036851
:1037D000DB6A9847012808BF45F001052DB9064B63
:1037E0002721064A06481CF0BFFD204670BD00BFD9
:1037F00074510224E03402088D2B0208EB2B0208DE
:10380000242C020870B5254E3568BFF35B8F15F088
:10381000010540D130461CF030FA00283BD0204C46
:10382000204B04F134002561E584A562A585C4E937
:103830000035C4E902550FF0ACFF04F158000CF05C
:1038400039FB194B2046A365184B40F8843BFFF722
:10385000A7FF174B1748C4F884302433C4F890509E
:10386000C4F88C304FF4C803C4F89C50C4F8A85076
:10387000C4E928350023C4F8AC30C4F8B030C4F82B
:10388000B430C4F8B8300C4BC4F898301CF08AFD42
:1038900030461CF0FEF9024870BD00BFD4AE0024D3
:1038A000D8AE0024D83C020800350208783502085A
:1038B000243D02086D3300085C3D02082DE9F74302
:1038C000044601264FF416674FF0FF31206C07F0D5
:1038D000F9FB4FF0FF31606C07F068FB94F82E3075
:1038E00043B36568D4F820802B6884F82B60B8F166
:1038F000000F23D05B6A4146284698470023236285
:103900002B684FF4487200972846D3F814804FF480
:10391000F073A168C047236984F82C000133236148
:10392000F0B12B6828469B6A984701380023E06075
:1039300084F82E30606C07F05CFBC5E7626A002AF1
:10394000DED02846D3E909939847616A01442846A6
:10395000C8472369626AC4F8248013442361CFE70F
:103960000120E3E7014808B5FFF7A8FF94AF002462
:1039700038B514480025FEF7FBFB134C134B2A46C1
:103980002946012023604FF48073A563A387A38594
:1039900084F83E5084F82E50C4E90C55C4E9105503
:1039A000C4E90155C4E90355C4E90555C4E90755FF
:1039B000C4E9095507F03CFB2064284607F0BEFA2D
:1039C000606438BDDCAF002494AF0024C435020825
:1039D000704710B5044604211CF04DF9204610BD77
:1039E000012908B506D0022908D059B900F0D2FB48
:1039F000006808BD00F0CEFB4068FAE700F0CAFBA3
:103A00008068F6E70020F4E70048704714360208A3
:103A10000120704713B5002451B1036801AA019435
:103A20008DF803409C680DF10303A04702B010BD60
:103A30000846FBE7C0897047008A7047C088704716
:103A400080887047807A00F07F007047807AC009D4
:103A500070470020704700009FED010A704700BFCB
:103A6000000000007047704700F5987308684968C7
:103A700003C3704770477047416070477047704795
:103A8000064BC0F84801C0F84C310023C0F8503153
:103A900000F5A273C0F84031704700BF413B0008F9
:103AA000012303727047704710B441680346C2682F
:103AB0009B68541001EB6200D20748BF0A595DF8B9
:103AC000044B48BFD35818470346406830B19A6842
:103AD0001AB9D86800F0010070470120704710B58E
:103AE00004460C211CF0C7F8204610BD10B5044652
:103AF00010211CF0C0F8204610BD10B504464FF44C
:103B0000AE711CF0B8F8204610BD10B50EF0EEF8FE
:103B10000368BDE81040DB6B184710B50446D0F8C9
:103B2000400158B10368DB68984738B1D4F84001C8
:103B300003689B6898470023C4F8403110BD00001B
:103B40002DE9F14FD0E9556A0746B06803681B6A52
:103B50009847972805D8444BA321444A44481CF071
:103B600003FC706803681B6A98470F2803D8414B11
:103B7000A4213E4AF2E7F06803681B6A98470B28C5
:103B800003D83D4BA521394AE8E7DFF8F4900EF061
:103B9000ADF804300EF0CFF8D9F8000010B103688A
:103BA000DB689847D9F8000010B103681B68984794
:103BB000DFF8D080D8F8000010B103685B6998473F
:103BC000D7F83C0110B103685B689847D8F800004B
:103BD00010B103681B689847D7F83C0110B103681F
:103BE0009B689847F06800214FF0000B03685B6A00
:103BF0009847224B0446C0F804B080F808B05946F4
:103C00000360B06803685B6A9847054600F02CFBC8
:103C10007068594603685B6A98470646294600F073
:103C200003FB331DC7F83C612846C9F80040C8F8BB
:103C30000050CAF800302B68C6F808A0DB68EE63B5
:103C40009847336830461B6898472146284610F04D
:103C500003FA236820461B699847236820465B695E
:103C600001B0BDE8F04F1847942C0208222D02083D
:103C7000F42D0208492E0208EC2E02089C36020898
:103C8000BC510224B8510224044B1B6893F85820FD
:103C90000AB1D86C00B99868704700BF745102240B
:103CA00070B5164604460D460EF0E6F8104B00219E
:103CB0001C60104B2360104BC4E951310F4B186846
:103CC000C4E953110368C4E94F119B68C4E9556501
:103CD0009847FFF7D9FF16F062F9FFF7D5FF16F006
:103CE000D5F9FFF7D1FF16F0DDF9204670BD00BF12
:103CF000C8510224483602083036020874510224A2
:103D0000064BC0F84801C0F84C310023C0F85031D0
:103D100000F5A273C0F84031704700BF413B000876
:103D2000406A7047806A704770470B888A889BB2E8
:103D3000D20A10B54C88C16943EA044351F8220005
:103D4000184410BD10B50446BAB1107B68B1537B5E
:103D5000D27A1B0203F4E0631A43236A03EB820363
:103D60001A888A4202D193F9020010BD05D80138A1
:103D7000043380B20028F3D1F7E70020F5E710B54F
:103D800004462C211BF077FF204610BD30B58BB0C8
:103D90000446BDF860500895BDF85C5007959DF845
:103DA000505006959DF84C5005959DF84850049547
:103DB0009DF8445003959DF8405002959DF83C5065
:103DC0000195BDF8385000950FF0A0FD064B204638
:103DD0002360159BE361169B2362199B63621A9B08
:103DE000A3620BB030BD00BFC036020870477047F9
:103DF0007047704770477047704710B50446982168
:103E00001BF039FF204610BD2DE9F0411D46036827
:103E1000044616461B6BBDF9187098472368314657
:103E200020465B6B98472368294620469B6B984742
:103E3000236839462046DB6BBDE8F0411847000097
:103E4000094A4FF48071026000228184FF2182625E
:103E500080F82610C0E90122C0E90322C0E905224A
:103E6000C0E90722704700BFF43D02082DE9F7437F
:103E7000044600260FF044FF1A4B254604F16C0758
:103E80004FF4F079E66345F8403B2846FFF7D8FF4A
:103E90003846FFF7D5FF3246314628464FF448737F
:103EA000CDF80090FFF7B0FF04F104084FF07F4316
:103EB00029464046A36609F0EDF9324631463846B8
:103EC0004FF44873CDF80090FFF79EFF4FF0FF339B
:103ED00040463946C4F8943009F0DCF9204603B076
:103EE000BDE8F083283702087047000030B5164D52
:103EF0008FB02C68BFF35B8F14F0010420D12846EB
:103F00001BF0BBFEE0B13F23012210490993104B87
:103F100010480893104B0A940594CDE906430423F6
:103F2000CDE903320A23CDE90B440093CDE90144E6
:103F3000FFF72CFF09481CF035FA28461BF0A9FEB4
:103F400004480FB030BD00BF24B00024F444020880
:103F50002445020828B0002430450208E93E000844
:103F60007047000030B5164D8FB02C68BFF35B8FE3
:103F700014F0010420D128461BF07FFEE0B13F235E
:103F8000012210490993104B10480893104B0A94D2
:103F90000594CDE906430423CDE903321423CDE98A
:103FA0000B440093CDE90144FFF7F0FE09481CF0F3
:103FB000F9F928461BF06DFE04480FB030BD00BF74
:103FC00054B00024044502082845020858B00024D3
:103FD00034450208613F00087047000030B5164DB7
:103FE0008FB02C68BFF35B8F14F0010420D12846FA
:103FF0001BF043FEE0B13F23012210490993104B0F
:1040000010480893104B0A940594CDE90643042305
:10401000CDE903322823CDE90B440093CDE90144D7
:10402000FFF7B4FE09481CF0BDF928461BF031FE2D
:1040300004480FB030BD00BF84B00024144502080E
:104040002C45020888B0002438450208D93F0008F2
:1040500000207047002070470EB403B503AB002169
:1040600053F8042B01930EF0CFFE02B05DF804EB81
:1040700003B070470CB407B504AB53F8042B01939D
:104080000EF0C2FE03B05DF804EB02B07047000012
:10409000436C10B5044673B3038F2BB9184BC5217D
:1040A000184A19481CF060F9C38E00EB43035B8C7F
:1040B0000BB310F0CBFC238F012B03D8134BCB2178
:1040C000134AEEE7E28E40F63F10531C9BB2092BD9
:1040D000194688BFA3F10A0104EB4101498C8142D2
:1040E00009D10A2B04EB420228BF0023508C04EBB9
:1040F0004303588451842046BDE8104010F0A8BB0B
:104100008F2F0208982F0208433002089B300208C4
:10411000A930020810F065BB38B518BB124B134824
:104120001C681349B4B122682244026062682244C8
:104130000A60A26814440F4B00221A8000F02AF88B
:10414000054600F025F80C4B1C600C4B1D600C4B19
:10415000188007E00B4B03600B4B0B600B4B1C688C
:10416000002CE8D138BD00BFC0B00024B8B0002496
:10417000B4B00024BCB00024CC510224D451022499
:10418000D05102240400009000000090080000902C
:104190000020704700487047C4B0002410B5054C9B
:1041A000FFF7E0FE2060FFF719FF6060FFF79EFE5B
:1041B000A06010BDC4B0002410B5002404600C60E1
:1041C00014601C6010BD704710B504464FF4AE710A
:1041D0001BF051FD204610BD10B50446D0F8580123
:1041E00000F013F82046BDE810400DF001BE0000BD
:1041F00010B50446FFF754FD014B2046236010BD67
:104200005C3702080022026070477047704704382C
:104210007047704710B5044610211BF02CFD204656
:1042200010BDA0F10400F5E70022C1608260024ADF
:104230000260183242607047B037020870470000D1
:10424000034B10B504460360FFF7D5FD204610BDB3
:10425000D837020810B50446FFF7F2FF9821204630
:104260001BF009FD204610BD10B50446FFF7FEFD0A
:10427000014B2046236010BDD8370208FFF7BCBDB4
:1042800001234FF4487200200B8002238B704FF4FF
:10429000F073C1E90123704790F82430012B04BF6B
:1042A000002380F82430002070470020704710B4AD
:1042B00004690089A4465DF8044B604710B4C468E3
:1042C0000089A4465DF8044B604770B500F11805FD
:1042D0000E460978284600F011F90446317928463F
:1042E00000F018F90444317A284600F01FF904441C
:1042F000317B284600F026F90444317C284600F042
:104300002DF90444317D284600F034F9C44214BF2D
:104310004FF0FF30002070BD13B50C4618300DF182
:10432000070100F03FF99DF80730236002B010BD8F
:1043300037B500F118050C4601A9284600F0D1F860
:1043400008BB9DF80430022B98BF18460423206058
:10435000032128460DEB030200F0B0F8B0B99DF838
:1043600004309DF805201B0203F4706313439DF88D
:10437000072063609DF806301B0203F4706313434B
:10438000A36003B030BD4FF0FF30DFE74FF0FF30E8
:10439000F7E7183000F0A0B80121183000F0F6B8A7
:1043A0000021183000F0F2B810B590F8243004461F
:1043B0006BB9036898472046FFF7F2FF00384FF0CB
:1043C000010318BF012084F82430404210BD0020B2
:1043D000FCE70020704730B500F1180585B00C46A9
:1043E000284601A900F07DF8002845D19DF8043049
:1043F000022B98BF184620600C2301AA03212846EF
:1044000000F05CF800283AD19DF804209DF80510D2
:104410001302920903F47063E2610B439DF80710E5
:104420009DF80A2063609DF806301B0203F4706358
:104430000B439DF80B10E3609DF8083063619DF815
:1044400009301B0963621302920903F4706322624C
:104450000B439DF80D10A3609DF80C301B0203F474
:1044600070630B4323619DF80E30A3619DF80F30FC
:104470001B09A36205B030BD4FF0FF30BBE74FF022
:10448000FF30F7E790B14A680B6842600A89036021
:104490000281CA68C2600A6902614A6900624261B7
:1044A000044AC261044A826103B118474FF0FF30E9
:1044B000704700BFAF420008BD42000810B4D0E909
:1044C0000140A4465DF8044B604710B4046880685E
:1044D000A4465DF8044B604701230A461946FFF7DE
:1044E000EDBF10B50A460C4601230221FFF7E6FF97
:1044F00018B9237803F00F03237010BD07B501230B
:104500008DF807100DF107029121FFF7DEFF03B0D0
:104510005DF804FB07B501238DF807100DF10702C4
:104520009221FFF7D2FF03B05DF804FB07B501232A
:104530008DF807100DF107029321FFF7C6FF03B0B6
:104540005DF804FB07B501238DF807100DF1070294
:104550009421FFF7BAFF03B05DF804FB07B5012310
:104560008DF807100DF107029521FFF7AEFF03B09C
:104570005DF804FB07B501238DF807100DF1070264
:104580009621FFF7A2FF03B05DF804FB07B50123F6
:104590008DF807100DF10702A421FFF796FF03B075
:1045A0005DF804FB0A460123A821FFF787BF00003E
:1045B00008B50122074BC3E900219A600022194681
:1045C000DA604FF6FF7206F0BFF9003818BF01201D
:1045D000404208BDD0B0002408B50222084BC3E910
:1045E000002101210022C3E902124FF6FF72194691
:1045F00006F0AAF9003818BF0120404208BD00BFEC
:10460000D0B000240A46D1E9033110B50B435169FB
:1046100004240B4391690B43D16912680B4307498A
:104620004A6001220C60C1E902234FF6FF7206F0D6
:104630008BF9003818BF0120404210BDD0B00024D3
:1046400008B5084BC3E9002108210022C3E9021282
:104650004FF6FF72194606F077F9003818BF0120AF
:10466000404208BDD0B0002408B506F08CF90038EF
:1046700018BF0120404208BD70B50C4609680546C8
:10468000FFF796FF10B14FF0FF3070BD01F07EFCD8
:10469000064601F07BFC8642FBD021682846FFF7E6
:1046A0009BFF0028EFD12846D4E90012FFF7C8FF8E
:1046B0000028E8D121462846FFF7A4FF0028E2D1D0
:1046C000A1682846FFF7D0FF003818BF01204042FC
:1046D000DBE74FF000624FF400534FF48071C0E904
:1046E00000234FF48043C0E902314FF400230361FB
:1046F0000020704700B54FF4407395B04FF0407202
:104700000C9305230F920222069300230B9206A915
:1047100013930093049303926A46CDE90D33CDE9D8
:104720001133102302934FF48003059340F20113D9
:10473000019341F2883304F01BFD002814BF6FF091
:104740000400002015B05DF804FB032941F2883213
:1047500030B518BF4FF4807395B008BF4FF4407365
:104760000C4606A905460C93062306930023CDE9C3
:104770000D330F930B931393CDE9113304F0F8FB32
:1047800020BB40F202230222032C4FF4800104904C
:104790002846CDE900334FF01003CDE902324FF047
:1047A00005036A46CDE9051314BF4FF080734FF03F
:1047B000407306A90F9341F2883304F0D9FC002816
:1047C00014BF6FF00400002015B030BD6FF0010081
:1047D000FAE7032930B518BF4FF480738FB008BFD4
:1047E0004FF4407304460D460693B723009300230D
:1047F000CDE90733099305930D93CDE90B33FFF70B
:10480000A4FF18B16FF001000FB030BD41F2883243
:104810006946204604F0ACFB0028F3D12946204627
:10482000FFF768FF0028EFD0ECE700B54FF4807386
:104830008FB041F2883206933523694600930023F6
:10484000CDE90733099305930D93CDE90B3304F0BC
:104850008FFB002814BF6FF0010000200FB05DF83F
:1048600004FB00B54FF480738FB041F28832069399
:10487000F523694600930023CDE907330993059397
:104880000D93CDE90B3304F073FB002814BF6FF0D8
:10489000010000200FB05DF804FB00B591B00329C2
:1048A0000ED8DFE801F00229343F4FF480730893FB
:1048B0000E2302934FF4806309934FF080730B93A0
:1048C00008224FF440534FF0004C02A907924FF0DA
:1048D000804205930023CDE90DC26A460A930F93E7
:1048E000CDE9003304F095FC002814BF6FF00500FB
:1048F000002011B05DF804FB4FF4807308933D2352
:1049000002934FF4806309934FF00073D7E74FF49D
:1049100080730893EE2302934FF4406309934FF0A2
:104920004073CCE74FF440730893ED23F3E700B5F1
:1049300091B003290ED8DFE801F00225303B4FF497
:10494000807308930C2302934FF4806309934FF014
:1049500080730B9308236A4602A907934FF44053D0
:10496000059300230A930F93CDE90D33CDE900336E
:1049700004F04FFC002814BF6FF00500002011B0B8
:104980005DF804FB4FF480730893BC2302934FF44B
:10499000006309934FF00073DBE74FF480730893D3
:1049A000EC2302934FF4406309934FF04073D0E738
:1049B0004FF440730893EB23F3E7032941F2883265
:1049C00000B518BF4FF480738FB008BF4FF4407329
:1049D00069460693662300930023CDE907330993C4
:1049E00005930D93CDE90B3304F0C2FA002814BFF0
:1049F0006FF0010000200FB05DF804FB032941F2C5
:104A0000883200B518BF4FF480738FB008BF4FF4E1
:104A1000407369460693992300930023CDE9073339
:104A2000099305930D93CDE90B3304F0A1FA002807
:104A300014BF6FF0010000200FB05DF804FB10B44C
:104A400084680088A4465DF8044B604710B444684D
:104A50000088A4465DF8044B604770B5C3680446FF
:104A60000D4698470646E3689847831BAB42FAD346
:104A700070BD00002DE9F341002300F11005074649
:104A80000E4690461946DE4A284600F099FB03235D
:104A90000446DC4AFF21284600F092FB0023044430
:104AA000D94A1946284600F08BFB02230444D74A12
:104AB000FF21284600F084FB00230444D24A194613
:104AC000284600F07DFB04440023D14AC421284637
:104AD00000F076FB0A2104443846FFF7BEFF0023AE
:104AE000CC4A2846194600F06BFB04440023CA4A0E
:104AF000C421284600F064FB0A2104443846FFF72D
:104B0000ACFF0023C54A2846194600F059FB002394
:104B10000444C34AC521284600F052FB0023044444
:104B2000C04A1946284600F04BFB00230444BE4A05
:104B3000C521284600F044FB00230444BB4A194623
:104B4000284600F03DFB00230444B94AC021284612
:104B500000F036FB00230444A94A1946284600F019
:104B60002FFB00230444B34AD921284600F028FB38
:104B700000230444B04A1946284600F021FB0023D4
:104B80000444AE4AC121284600F01AFB0023044425
:104B9000AB4A1946284600F013FB00230444A94AF7
:104BA000C521284600F00CFB00230444A64A194600
:104BB000284600F005FB002304449B4AC5212846F3
:104BC00000F0FEFA002304448D4A1946284600F0FE
:104BD000F7FA022304449D4AD821284600F0F0FA4F
:104BE000002304449A4A1946284600F0E9FA0023B3
:104BF0000444984AC521284600F0E2FA0023044400
:104C0000954A1946284600F0DBFA00230444934AEB
:104C1000C021284600F0D4FA00230444904A1946E3
:104C2000284600F0CDFA002304448E4AC5212846C8
:104C300000F0C6FA002304448B4A1946284600F0C7
:104C4000BFFA00230444894AC421284600F0B8FA78
:104C500000230444784A1946284600F0B1FA00239C
:104C60000444834AC121284600F0AAFA00230444E0
:104C7000804A1946284600F0A3FA022304447E4ADB
:104C8000B321284600F09CFA002304445E4A1946EA
:104C9000284600F095FA06230444784ACE21284697
:104CA00000F08EFA00230444754A1946284600F0A5
:104CB00087FA0E230444734ACE21284600F080FA76
:104CC00000230444704A1946284600F079FA0E235E
:104CD00004446E4ACE21284600F072FA00230444B0
:104CE0006B4A1946284600F06BFA0A230444694AC5
:104CF000CF21284600F064FA00230444664A19468E
:104D0000284600F05DFA00230444644ACF21284677
:104D100000F056FA002304443B4A1946284600F0A6
:104D20004FFA0A2304445E4ACB21284600F048FA91
:104D3000002304445B4A1946284600F041FA0F2339
:104D40000444594ACB21284600F03AFA002304448F
:104D50004B4A1946284600F033FA0F230444534ABD
:104D6000CB21284600F02CFA00230444464A194679
:104D7000284600F025FA0A2304444D4ACB21284650
:104D800000F01EFA00230444414A1946284600F068
:104D900017FA0F230444474ACB21284600F010FAA3
:104DA000002304443C4A1946284600F009FA0F2320
:104DB0000444414ACB21284600F002FA002304446F
:104DC0003E4A1946284600F0FBF90A2304443C4AAF
:104DD000CB21284600F0F4F900230444394A19464F
:104DE000284600F0EDF90A230444374ACB2128462F
:104DF00000F0E6F900230444034A1946284665E01A
:104E0000113902080D390208123902080B3902085B
:104E10001339020814390208153902081639020834
:104E20001739020818390208193902081A39020814
:104E30001B3902081C3902081F39020820390208F0
:104E400021390208223902082339020809390208E7
:104E500024390208253902082639020827390208B0
:104E600028390208293902081D3902082A3902089E
:104E70002B3902082C3902080739020801390208C7
:104E80002D390208F33802082E390208E5380208E5
:104E90002F390208DB380208303902083D39020890
:104EA000D138020831390208C2380208B338020882
:104EB000A93802089A3802088B38020832390208E9
:104EC00081380208333902087738020800F078F98F
:104ED0000A2304448E4ACC21284600F071F90023AD
:104EE00004448C4A1946284600F06AF90F2304440A
:104EF000894ACC21284600F063F900230444874AFC
:104F00001946284600F05CF90F230444844ACC215A
:104F1000284600F055F900230444824A19462846E1
:104F200000F04EF90A2304447F4ACC21284600F0C1
:104F300047F9002304447D4A1946284600F040F909
:104F40000F2304447A4ACC21284600F039F9002383
:104F50000444784A1946284600F032F90F230444E5
:104F6000754ACC21284600F02BF900230444734AEB
:104F70001946284600F024F900230444704AC5214C
:104F8000284600F01DF9002304446E4A19462846BD
:104F900000F016F9002304446B4AF521284600F07E
:104FA0000FF900230444694A1946284600F008F91D
:104FB00000230444664AC621284600F001F9002374
:104FC0000444644A1946284600F0FAF803230444CE
:104FD000614AFF21284600F0F3F8002304445D4AAB
:104FE0001946284600F0ECF800230444594A1946B3
:104FF000284600F0E5F810230444584AE1212846E9
:1050000000F0DEF800230444524A1946284600F016
:10501000D7F804441023524AE221284600F0D0F881
:10502000044400234F4A1121284600F0C9F8782192
:1050300004443846FFF711FD4B4F002E61D0022E7D
:1050400007D10023494A3A21284600F0B9F8044420
:105050007E60B8F1010F57D160230DF107023621B0
:1050600028468DF80730002300F0AAF826180423FC
:105070003F4A2A21284600F0A3F8064404233D4A6B
:105080002B21284600F09CF83418C7F80080002631
:105090000023394A5121284600F092F8044433464F
:1050A000364A53212846BE6000F08AF8044433464D
:1050B000334A5521284600F083F804443346314AE8
:1050C0005E21284600F07CF8044433462E4A29210C
:1050D000284600F075F80444334631461D4A2846F8
:1050E00000F06EF804443346284A2C21284600F08C
:1050F00067F8C44214BF4FF0FF30304602B0BDE83D
:10510000F0813346224A9EE700233B60BFE700BFA1
:105110006D380208313902085E3802082D3902085C
:105120004F3802082E390208453802082F39020884
:105130003638020830390208273802081D390208BB
:105140003E3902083F390208403902084139020855
:1051500042390208113902082438020814380208BA
:105160000438020834390208E0B000243539020856
:10517000473902084339020837390208383902082A
:10518000393902083A3902083B3902083C39020829
:105190003639020860B14B6843608B688360CB6826
:1051A0008061C360044B4361044B0361002070477E
:1051B0004FF0FF30704700BF3F4A00084D4A0008DB
:1051C00010B404688068A4465DF8044B6047000092
:1051D000104A08B51368013B13600BB1002008BDED
:1051E0004FF480510C4801F03FFE0B484FF4005142
:1051F00001F03AFE094A0A48D2F8F43023F080035D
:10520000C2F8F43002F090F80028E7D06FF0070001
:10521000E5E700BF44BB0024000C025800440258DC
:10522000ECB000240023012210B541600446036263
:10523000C0E90232C0E90433C0E9063302F01EF8C7
:10524000014608B1012010BD204602F044FA014693
:105250000028F7D1204602F064FA003818BF012078
:10526000F1E70000A24BA3482DE9F04F93B0036093
:10527000A14B1C681CB1002013B0BDE8F08F0122C7
:105280001A6002F023FA0028F5D19C4D4FF0120865
:1052900002270426D5F8E0300DA9994843F0080309
:1052A000C5F8E030D5F8E03003F008030A930A9B14
:1052B000D5F8E03043F00803C5F8E030D5F8E03029
:1052C0000F9403F008030B930B9B4FF48053CDE92D
:1052D0001076CDE90D3801F0DFFC4FF400530DA935
:1052E00087481196CDE90D38CDE90F4701F0D4FC80
:1052F000D5F8F43043F08003C5F8F430D5F8F43035
:1053000003F080030C930C9BD5F89C3043F0800392
:10531000C5F89C30D5F89C3023F08003C5F89C304C
:1053200004F0AAFC00286DD0764B2246A2464FF02E
:10533000100903EB5003DFF8D4B1B3FBF0F000EB3E
:10534000400500FA07F60146C5F13203C6F5C376FB
:1053500023EAE37326EAE67600936B4B1B688846E4
:105360004FF0000CB8F5AF7FCDF804C00CF1010C84
:105370005BD30027BE46009DBD4250D8BE424ED3EF
:1053800091454CD0142505FB03FA0133019D0BEB2D
:105390000A097F2B4BF80A20C9E9015E3CD95A4A19
:1053A0001360594B4FEA400B584900271B6806937E
:1053B00040F6C41304934FF0FF3300930BF1320314
:1053C0000993CBF5806301330293069B9F4238D14A
:1053D000009B7F2B16D81421009A4C4B4A439918F6
:1053E0009B580C7C44EA03744B681B0503F4700360
:1053F0001C438B681B0403F470231C43CB681B0203
:105400009BB21C4321463B48FFF70CFF00283FF4AA
:1054100032AF6FF007002FE791464FF0010A0EF10F
:10542000010E0F44BEF1100FA5D1BCF1100F88443E
:1054300098D101320144102A91D1BAF1000FAED1B6
:10544000AFE70B684FF0000C099D03FB00031D4400
:1054500003EB0B060395A6F63406029D0896ED1A9B
:105460006D000195039D40F21452CDF814C00CF16B
:10547000010C954230D9A5F13206B0EB960F2BD234
:10548000089E4FF0000EDDF804902E44DDF80C80ED
:1054900006F2A11A40F21242CDF81CE00EF1010E04
:1054A000924512D8B8F5167F0FD340450DD236EA93
:1054B000260A28BFCA46049A924506D2059ACDF814
:1054C00010A00A61079A0097CA60BEF5807F9844D1
:1054D0001E44A9EB0309DBD1019ABCF5807F1D4472
:1054E000A2EB03020192BED1013714316DE700BF78
:1054F000001C0058ECB0002444BB002400440258B7
:10550000000C025800CA9A3B40B1002444B1002468
:105510001FB54FF47A7400920A4601460848CDE957
:105520000134012301F01AFF40B1054802F0D1F81F
:10553000042814BF6FF003006FF0650004B010BDC5
:10554000ECB000241FB54FF47A7400920A4601466D
:105550000848CDE90134012301F0DAFF40B10548E4
:1055600002F0B7F8042814BF6FF003006FF0650075
:1055700004B010BDECB0002400F008BD094A4FF49F
:10558000407C02604A684260012282608A68C26090
:105590000A6802610022C0E905C2C261CA680262EB
:1055A00003F09ABC0050005210B588B90A4C0B4861
:1055B000A37861784BB9FFF7BAF910B16FF0040026
:1055C00010BD022300202370FAE7FFF766F9F4E725
:1055D0006FF00100F4E700BF48BB0024CC99002421
:1055E000F8B50C46174630BB174D2B78022B25D04B
:1055F000B2FA82F3154E5B0930461B01F36003F0EB
:105600006BFCF0B96B78032B0FD1032C05D1012370
:1056100000206C702B70AF70F8BD3046FFF721F999
:105620000028F4D06FF00400F6E7032CEFD13046E9
:10563000FFF7FBF8F4E76FF00100EDE76FF01900FA
:10564000EAE76FF00300E7E748BB0024CC990024A9
:105650002DE9F0470C46A4B0002840F0AC81034D82
:105660002F782FB1002024B0BDE8F08748BB00247C
:10567000C34B4FF00409092616A9D3F8D4204FF0E4
:105680004008C0484FF00A0A42F48042C3F8D420D0
:10569000D3F8D42002F480420192019ADA6F42F4E6
:1056A0008042DA67DA6F22F48042DA67D3F8E020CA
:1056B00042F00202C3F8E020D3F8E02002F0020238
:1056C0000292029AD3F8E02042F04002C3F8E020B0
:1056D000D3F8E02002F040020392039AD3F8E020CE
:1056E00042F00802C3F8E020D3F8E02002F00802FC
:1056F0000492049AD3F8E02042F02002C3F8E0209C
:10570000D3F8E02002F020020592059AD3F8E020B9
:1057100042F02002C3F8E020D3F8E02002F020029B
:105720000692069AD3F8E02042F02002C3F8E02067
:10573000D3F8E02002F020020792079AD3F8E02085
:1057400042F04002C3F8E020D3F8E02002F040022B
:105750000892089AD3F8E02042F08002C3F8E020D3
:10576000D3F8E02002F080020992099AD3F8E020F1
:1057700042F08002C3F8E020D3F8E02002F080027B
:105780000A920A9AD3F8E02042F04002C3F8E020DF
:10579000D3F8E02002F040020B920B9AD3F8E020FD
:1057A00042F04002C3F8E020D3F8E03003F04003B9
:1057B0000C930C9B0223CDE9169303231A96CDE993
:1057C000187301F069FA012316A96F481893CDF8F0
:1057D0005880CDF868A001F05FFA4FF4006316A975
:1057E0006A48169318971A9601F056FA16A9CDF83A
:1057F000589067484FF400791A9601F04DFA16A9AF
:105800006448CDF85890CDF868A001F045FA082317
:1058100016A95F4816931A9601F03EFA802316A93E
:105820005C4816931A9601F037FA16A95648CDF837
:10583000589001F031FA16A95648CDF8588001F079
:105840002BFA4FF4804316A94F48169301F024FA1F
:105850003A460F215C2000F0C9FB5C2000F0F8FB09
:1058600011A8FEF736FF63784B4ACDF8408052F816
:1058700023200E92119A92FAA2F2B3FA83F3B2FAAB
:1058800082F20DA945485B09013A1B010D920F9365
:10589000FFF774FE002840F0918003213F48FFF796
:1058A0008CF8002840F0848003213C48FFF7A6F8DC
:1058B00000287DD169783948FEF71CFF0146002891
:1058C00076D13648FFF779F80146002870D1334881
:1058D000FFF794F8014600286AD10123A8702F48E9
:1058E0002B80FEF707FF002862D169782B48FEF76E
:1058F00070FF00285CD14FF44073ADF802001B909C
:1059000041F288321C93852316A916934FF04073F9
:105910001F930223CDE91D00CDE92030CDE92200FF
:105920001E4803F025FB002842D141F288320DF1D8
:1059300002011A4803F0BCFB002839D169781748E6
:10594000FEF703FFA0BB812341F2883216A913485A
:105950001693BDF8023023F0F0031B051B0D43F432
:10596000004343F08003ADF8023003F001FBF8B9C7
:1059700041F288320DF10201084803F03DFB0FE0CF
:10598000004402580004025800180258000C025843
:10599000001C0258001402584C390208CC9900240B
:1059A00030B962782178FFF71BFE00283FF45AAE29
:1059B0006FF0040057E66FF0010054E66FF003004B
:1059C00051E600BF10B5044670B9094B09480360A1
:1059D00004F0ACFF7A2000F049FB0748074B036056
:1059E00003F002F8204610BD6FF00100FBE700BF96
:1059F000404100524CBC002454BB002440000052E3
:105A000001221549154B10B588B082604024C0E9C9
:105A1000001204212022C0E903124FF4C072C0E931
:105A2000054200224FF40064C0E907244FF480547B
:105A300044629A6207220223CDE903126944079364
:105A4000CDE90132CDE9053304F048FF003818BF35
:105A5000012008B010BD00BF404100524CBC0024E2
:105A6000F0B505468FB0002840F0DD80714B03276C
:105A700009A97148D3F8D420704C42F48052704E7A
:105A8000C3F8D420D3F8D42002F480520192019AB2
:105A9000D3F8D42042F00102C3F8D420D3F8D420A4
:105AA00002F001020292029AD3F8E02042F00802CA
:105AB000C3F8E020D3F8E02002F008020392039A32
:105AC000D3F8E02042F01002C3F8E020D3F8E02041
:105AD00002F010020492049AD3F8E02042F020026F
