:020000040810E2
:1000000000800410A51C1008A51A1008AD1A1008CD
:10001000B51A1008BD1A1008C51A10080000000013
:10002000000000000000000000000000CD1A1008D1
:10003000DB1A100800000000E91A1008F71A10086F
:10004000F51C1008F51C1008F51C1008F51C10080C
:10005000F51C1008F51C1008F51C1008F51C1008FC
:10006000F51C1008F51C1008F51C1008F51C1008EC
:10007000F51C1008F51C1008F51C1008F51C1008DC
:10008000F51C1008F51C1008F51C1008F51C1008CC
:10009000F51C1008F51C1008F51C1008F51C1008BC
:1000A000F51C1008F51C1008F51C1008F51C1008AC
:1000B000F51C1008F51C1008F51C1008F51C10089C
:1000C000F51C1008F51C1008F51C1008F51C10088C
:1000D000F51C1008051B1008F51C1008F51C10086D
:1000E000F51C1008F51C100800000000F51C100895
:1000F000F51C1008F51C1008F51C1008F51C10085C
:10010000F51C1008F51C1008F51C1008F51C10084B
:10011000F51C1008F51C1008F51C1008F51C10083B
:10012000F51C1008F51C1008F51C1008F51C10082B
:10013000F51C1008F51C1008F51C1008F51C10081B
:10014000F51C1008F51C100800000000000000005D
:10015000F51C1008F51C1008F51C1008F51C1008FB
:10016000F51C1008F51C1008F51C1008F51C1008EB
:10017000F51C1008F51C1008F51C10080000000004
:10018000F51C1008F51C1008F51C1008F51C1008CB
:10019000F51C1008F51C1008F51C1008F51C1008BB
:1001A000F51C1008F51C1008F51C1008F51C1008AB
:1001B000F51C1008F51C1008F51C1008F51C10089B
:1001C000F51C1008F51C1008F51C1008F51C10088B
:1001D000F51C1008F51C1008F51C1008F51C10087B
:1001E000F51C1008F51C1008F51C1008F51C10086B
:1001F000F51C1008F51C1008F51C1008F51C10085B
:10020000F51C1008F51C1008F51C1008F51C10084A
:10021000F51C1008F51C1008F51C1008F51C10083A
:10022000F51C1008F51C1008F51C1008F51C10082A
:10023000F51C1008F51C1008F51C1008F51C10081A
:10024000F51C1008F51C1008F51C1008F51C10080A
:10025000F51C1008F51C1008F51C1008F51C1008FA
:10026000F51C1008F51C1008F51C1008F51C1008EA
:10027000F51C1008F51C1008F51C1008F51C1008DA
:10028000F51C1008F51C1008F51C100800000000F3
:08029000F51C1008F51C100814
:1002A00010B5054C237833B9044B13B10448AFF3B0
:1002B00000800123237010BD000900100000000021
:1002C00030F5100808B5034B1BB103490348AFF3E1
:1002D000008008BD000000000409001030F510087F
:1002E00001F0FF01102A2BDB10F0070F08D010F8E7
:1002F000013B013A8B422DD010F0070F42B3F6D1EB
:10030000F0B441EA012141EA014122F007047FF003
:1003100000070023F0E80256083C85EA010586EA5A
:10032000010685FA47F5A3FA87F586FA47F6A5FA96
:1003300087F68EB9EED1F0BC01F0FF0102F00702A2
:1003400032B110F8013B013A83EA010313B1F8D14D
:100350000020704701387047002D06BF354603382E
:10036000073815F0010F07D1013015F4807F02BF67
:10037000013015F4C03F0130F0BC0138704700BFB8
:10038000034613F8012B002AFBD1181A01387047D5
:1003900081F0004102E000BF83F0004330B54FEA36
:1003A00041044FEA430594EA050F08BF90EA020FA3
:1003B0001FBF54EA000C55EA020C7FEA645C7FEA36
:1003C000655C00F0E2804FEA5454D4EB5555B8BF59
:1003D0006D420CDD2C4480EA020281EA030382EACA
:1003E000000083EA010180EA020281EA0303362D5C
:1003F00088BF30BD11F0004F4FEA01314FF4801C2F
:100400004CEA113102D0404261EB410113F0004F40
:100410004FEA03334CEA133302D0524263EB4303F7
:1004200094EA050F00F0A780A4F10104D5F1200E95
:100430000DDB02FA0EFC22FA05F2801841F10001F0
:1004400003FA0EF2801843FA05F359410EE0A5F1C4
:1004500020050EF1200E012A03FA0EFC28BF4CF0F5
:10046000020C43FA05F3C01851EBE37101F00045AB
:1004700007D54FF0000EDCF1000C7EEB00006EEBB8
:100480000101B1F5801F1BD3B1F5001F0CD3490842
:100490005FEA30004FEA3C0C04F101044FEA445299
:1004A00012F5800F80F09A80BCF1004F08BF5FEA20
:1004B000500C50F1000041EB045141EA050130BD00
:1004C0005FEA4C0C404141EB0101013C28BFB1F512
:1004D000801FE9D291F0000F04BF01460020B1FA5D
:1004E00081F308BF2033A3F10B03B3F120020CDA30
:1004F0000C3208DD02F1140CC2F10C0201FA0CF00E
:1005000021FA02F10CE002F11402D8BFC2F1200C72
:1005100001FA02F120FA0CFCDCBF41EA0C01904028
:10052000E41AA2BF01EB0451294330BD6FEA040471
:100530001F3C1CDA0C340EDC04F11404C4F120025C
:1005400020FA04F001FA02F340EA030021FA04F36E
:1005500045EA030130BDC4F10C04C4F1200220FAC5
:1005600002F001FA04F340EA0300294630BD21FA03
:1005700004F0294630BD94F0000F83F4801306BFC9
:1005800081F480110134013D4EE77FEA645C18BFBD
:100590007FEA655C29D094EA050F08BF90EA020F54
:1005A00005D054EA000C04BF1946104630BD91EA4C
:1005B000030F1EBF0021002030BD5FEA545C05D14F
:1005C0004000494128BF41F0004130BD14F580048E
:1005D0003CBF01F5801130BD01F0004545F0FE4102
:1005E00041F470014FF0000030BD7FEA645C1ABF37
:1005F000194610467FEA655C1CBF0B46024650EA6E
:10060000013406BF52EA033591EA030F41F4002199
:1006100030BD00BF90F0000F04BF0021704730B51F
:100620004FF4806404F132044FF000054FF00001F4
:1006300050E700BF90F0000F04BF0021704730B5B5
:100640004FF4806404F1320410F0004548BF40428A
:100650004FF000013EE700BF42004FEAE2014FEADF
:1006600031014FEA02701FBF12F07F4393F07F4FBA
:1006700081F06051704732F07F4208BF704793F0BD
:100680007F4F04BF41F40021704730B54FF46074D0
:1006900001F0004521F000411CE700BF50EA0102D3
:1006A00008BF704730B54FF000050AE050EA01027C
:1006B00008BF704730B511F0004502D5404261EBEC
:1006C00041014FF4806404F132045FEA915C3FF42D
:1006D000D8AE4FF003025FEADC0C18BF03325FEACA
:1006E000DC0C18BF033202EBDC02C2F1200300FA7B
:1006F00003FC20FA02F001FA03FE40EA0E0021FAA0
:1007000002F11444BDE600BF70B54FF0FF0C4CF48D
:10071000E06C1CEA11541DBF1CEA135594EA0C0F3F
:1007200095EA0C0F00F0DEF82C4481EA030621EA7A
:100730004C5123EA4C5350EA013518BF52EA0335B5
:1007400041F4801143F4801338D0A0FB02CE4FF067
:100750000005E1FB02E506F00042E0FB03E54FF097
:100760000006E1FB03569CF0000F18BF4EF0010E8F
:10077000A4F1FF04B6F5007F64F5407404D25FEA8B
:100780004E0E6D4146EB060642EAC62141EA55513E
:100790004FEAC52040EA5E504FEACE2EB4F1FD0C80
:1007A00088BFBCF5E06F1ED8BEF1004F08BF5FEAFE
:1007B000500E50F1000041EB045170BD06F00046B0
:1007C00046EA010140EA020081EA0301B4EB5C045D
:1007D000C2BFD4EB0C0541EA045170BD41F4801155
:1007E0004FF0000E013C00F3AB8014F1360FDEBF7A
:1007F000002001F0004170BDC4F10004203C35DA56
:100800000C341BDC04F11404C4F1200500FA05F3D8
:1008100020FA04F001FA05F240EA020001F0004279
:1008200021F0004110EBD37021FA04F642EB0601EF
:100830005EEA430E08BF20EAD37070BDC4F10C0419
:10084000C4F1200500FA04F320FA05F001FA04F2DD
:1008500040EA020001F0004110EBD37041F10001C9
:100860005EEA430E08BF20EAD37070BDC4F12005D4
:1008700000FA05F24EEA020E20FA04F301FA05F23C
:1008800043EA020321FA04F001F0004121FA04F2E4
:1008900020EA020000EBD3705EEA430E08BF20EAB4
:1008A000D37070BD94F0000F0FD101F000464000EE
:1008B00041EB010111F4801F08BF013CF7D041EA70
:1008C000060195F0000F18BF704703F00046520074
:1008D00043EB030313F4801F08BF013DF7D043EA45
:1008E0000603704794EA0C0F0CEA135518BF95EAFB
:1008F0000C0F0CD050EA410618BF52EA4306D1D182
:1009000081EA030101F000414FF0000070BD50EAA0
:10091000410606BF1046194652EA430619D094EA2A
:100920000C0F02D150EA013613D195EA0C0F05D114
:1009300052EA03361CBF104619460AD181EA030168
:1009400001F0004141F0FE4141F470014FF0000020
:1009500070BD41F0FE4141F4780170BD70B54FF0BB
:10096000FF0C4CF4E06C1CEA11541DBF1CEA13553B
:1009700094EA0C0F95EA0C0F00F0A7F8A4EB05041D
:1009800081EA030E52EA03354FEA013100F0888014
:100990004FEA03334FF0805545EA131343EA1263DD
:1009A0004FEA022245EA111545EA10654FEA002692
:1009B0000EF000419D4208BF964244F1FD0404F54B
:1009C000407402D25B084FEA3202B61A65EB0305A7
:1009D0005B084FEA32024FF480104FF4002CB6EB64
:1009E000020E75EB030E22BFB61A754640EA0C00E4
:1009F0005B084FEA3202B6EB020E75EB030E22BF24
:100A0000B61A754640EA5C005B084FEA3202B6EB64
:100A1000020E75EB030E22BFB61A754640EA9C0023
:100A20005B084FEA3202B6EB020E75EB030E22BFF3
:100A3000B61A754640EADC0055EA060E18D04FEAB1
:100A4000051545EA16754FEA06164FEAC30343EA51
:100A500052734FEAC2025FEA1C1CC0D111F4801F1E
:100A60000BD141EA00014FF000004FF0004CB6E717
:100A700011F4801F04BF01430020B4F1FD0C88BFB6
:100A8000BCF5E06F3FF6AFAEB5EB030C04BFB6EBC1
:100A9000020C5FEA500C50F1000041EB045170BDB4
:100AA0000EF0004E4EEA113114EB5C04C2BFD4EBE1
:100AB0000C0541EA045170BD41F480114FF0000E65
:100AC000013C90E645EA060E8DE60CEA135594EAE1
:100AD0000C0F08BF95EA0C0F3FF43BAF94EA0C0FE4
:100AE0000AD150EA01347FF434AF95EA0C0F7FF459
:100AF00025AF104619462CE795EA0C0F06D152EAAD
:100B000003353FF4FDAE1046194622E750EA410690
:100B100018BF52EA43067FF4C5AE50EA41047FF4A1
:100B20000DAF52EA43057FF4EBAE12E74FF0FF3C06
:100B300006E000BF4FF0010C02E000BF4FF0010CD7
:100B40004DF804CD4FEA410C7FEA6C5C4FEA430C50
:100B500018BF7FEA6C5C1BD001B050EA410C0CBF9F
:100B600052EA430C91EA030F02BF90EA020F002001
:100B7000704710F1000F91EA030F58BF994208BF68
:100B800090422CBFD8176FEAE37040F00100704725
:100B90004FEA410C7FEA6C5C02D150EA013C07D17C
:100BA0004FEA430C7FEA6C5CD6D152EA033CD3D0C7
:100BB0005DF8040B704700BF8446104662468C46C1
:100BC0001946634600E000BF01B5FFF7B7FF0028F4
:100BD00048BF10F1000F01BD4DF808EDFFF7F4FF1D
:100BE0000CBF012000205DF808FB00BF4DF808EDA8
:100BF000FFF7EAFF34BF012000205DF808FB00BFCB
:100C00004DF808EDFFF7E0FF94BF012000205DF8EC
:100C100008FB00BF4DF808EDFFF7CEFF94BF0120A1
:100C200000205DF808FB00BF4DF808EDFFF7C4FF9A
:100C300034BF012000205DF808FB00BF4FEA410CE3
:100C40007FEA6C5C02D150EA013C0AD14FEA430CC6
:100C50007FEA6C5C02D152EA033C02D14FF0000003
:100C600070474FF0010070474FEA410212F5001241
:100C700015D211D56FF47873B3EB625212D94FEAE3
:100C8000C12343F0004343EA505311F0004F23FACD
:100C900002F018BF404270474FF00000704750EA22
:100CA000013005D111F0004008BF6FF000407047DF
:100CB0004FF00000704700BF4A0011D212F5001239
:100CC00011D20DD56FF47873B3EB62520ED44FEAA4
:100CD000C12343F0004343EA505323FA02F0704724
:100CE0004FF00000704750EA013002D14FF0FF3062
:100CF00070474FF0000070474FEA4102B2F1E04305
:100D000024BFB3F5001CDCF1FE5C0DD901F0004CF2
:100D10004FEAC0024CEA5070B2F1004F40EB830042
:100D200008BF20F00100704711F0804F21D113F16E
:100D30003872BCBF01F00040704741F480114FEAA7
:100D40005252C2F11802C2F1200C10FA0CF320FA30
:100D500002F018BF40F001004FEAC1234FEAD3234D
:100D600003FA0CFC40EA0C0023FA02F34FEA4303B7
:100D7000CCE77FEA625307D150EA01331EBF4FF040
:100D8000FE4040F44000704701F0004040F0FE405B
:100D900040F40000704700BF53B94AB9002908BFAA
:100DA00000281CBF4FF0FF314FF0FF3000F0BEB9FC
:100DB000ADF1080C6DE904CE00F03CF8DDF804E07C
:100DC000DDE9022304B0704738B500220023044651
:100DD0000D46FFF70BFF28B920462946BDE83840ED
:100DE00000F00AB8204605F1004100F005F8404245
:100DF00061EB410138BD00BFD0B50C4B0022064667
:100E00000F46FFF781FCFFF757FF0446FFF702FC90
:100E1000074B0022FFF778FC02460B463046394666
:100E2000FFF7BAFAFFF748FF2146D0BD0000F03DBA
:100E30000000F0412DE9F047089D8E4604468846A3
:100E4000002B4AD18A42174662D9B2FA82F64EB1D5
:100E5000C6F1200301FA06F820FA03F3B74043EA8B
:100E60000808B4404FEA174E1FFA87FCB8FBFEF1A2
:100E7000230C0EFB118843EA084301FB0CF29A4253
:100E800009D9FB1801F1FF3080F0EA809A4240F264
:100E9000E78002393B449A1AA3B2B2FBFEF00EFB84
:100EA000102243EA024300FB0CFC9C4509D9FB18C5
:100EB00000F1FF3280F0D6809C4540F2D3803B4465
:100EC000023840EA0140A3EB0C0300211DB1F340BE
:100ED0000022C5E90032BDE8F0878B4205D90DB18B
:100EE000C5E9000100210846F5E7B3FA83F10029BE
:100EF00046D1734502D3824200F20581841A6EEB1B
:100F0000030201209046002DE5D0C5E90048E2E744
:100F1000002A00F09080B2FA82F6002E40F0A48001
:100F20008A1A030C4FEA174E80B2BCB20121B2FB01
:100F3000FEFC0EFB1C2243EA024304FB0CF29A4225
:100F400007D9FB180CF1FF3802D29A4200F2E08078
:100F5000C4469B1AB3FBFEF20EFB123340EA034376
:100F600002FB04F49C4207D9FB1802F1FF3002D2C5
:100F70009C4200F2CA8002461B1B42EA0C40A5E7D5
:100F8000C1F120068B4022FA06F71F430EFA01F446
:100F900020FA06F32EFA06FE4FEA1749234300FA19
:100FA00001F81FFA87FCBEFBF9F01C0C09FB10EEE0
:100FB00044EA0E4400FB0CFEA64502FA01F209D9F0
:100FC0003C1900F1FF3A80F09C80A64540F29980E0
:100FD00002383C44A4EB0E041FFA83FEB4FBF9F381
:100FE00009FB13444EEA044403FB0CFCA44508D956
:100FF0003C1903F1FF3E80F08280A4457FD9023B7B
:101000003C4443EA0040A4EB0C04A0FB02EC644522
:101010007346E14662D35FD05DB1B8EB030264EB87
:10102000090404FA06F622FA01F31E43CC40C5E98E
:10103000006400214FE7B1FBF2FC010C41EA0E41D4
:1010400080B240EA01423B4638463C46B846BE467E
:101050002026B1FBF7F1A2EB080241EA0C4166E75A
:10106000014618E710462CE7C6F120022EFA02F3DB
:10107000B740B14020FA02F24FEA174E0A43B3FBE1
:10108000FEF8BCB20EFB1833110C41EA034108FB19
:1010900004F9B04089454FEA104380B23ED979182F
:1010A00008F1FF3C01D289451FD8A1EB0901B1FB32
:1010B000FEF909FB04F80EFB191192B242EA014253
:1010C000424529D2BA1809F1FF31C4D24245C2D2F1
:1010D000A9F102013A44BEE7F0459DD2BEEB0203FE
:1010E0006CEB070C0138E14696E7A7EB0909494488
:1010F000A8F1020CB1FBFEF909FB04F8DBE773462B
:101100007FE7504666E70846FDE63B44023A33E790
:10111000ACF1020C3B441CE749469CE7A1EB0901FA
:10112000C446B1FBFEF909FB04F8C4E7704700BFF1
:1011300080B582B000AF7860391D4FF6FF73012291
:10114000034805F0FDFA7B6818460837BD4680BDA8
:10115000700900102DE9B04388B004AF904BD3F86C
:10116000E0308F4A43F00073C2F8E0308C4BD3F884
:10117000E03003F000737B607B68012002F076FAB8
:1011800003F03CFA01220221002003F0BDF9854B57
:101190001B6803F0F003702B08D1834BD3F80431A4
:1011A000814A43F00103C2F8043107E07E4BD3F8D3
:1011B00014317D4A43F00103C2F8143101F048F9BB
:1011C00000F08EF900F0A6F900F0FEF800F03CF90E
:1011D00000F09AFE642001F0EFF900F0C5F932202A
:1011E00001F0EAF900F002FA03461A466F4B1A7052
:1011F0006E4B1B78002B08D0642001F0DDF900F065
:10120000F5F903461A46694B1A7001F0C9F9F860FE
:1012100001F0C6F9B860FB686433BA689A42F7D344
:10122000BB68FB60614B1B78002B40F0A7806048D7
:1012300000F0D0FA5E4BD3ED007ABAEE047AF4EE09
:10124000C77AF1EE10FAC0F2AA80594BD3ED007ABA
:10125000B2EE047AF4EEC77AF1EE10FA00F29F8053
:10126000534BD3ED017ABAEE047AF4EEC77AF1EE7D
:1012700010FAC0F294804E4BD3ED017AB2EE047AAC
:10128000F4EEC77AF1EE10FA00F28980484BD3ED04
:10129000027ABAEE047AF4EEC77AF1EE10FA7EDB47
:1012A000434BD3ED027AB2EE047AF4EEC77AF1EE54
:1012B00010FA74D83E4B1B681846FFF7CDF98046EC
:1012C00089463B4B5B681846FFF7C6F904460D4656
:1012D000374B9B681846FFF7BFF902460B46CDE92E
:1012E0000223CDE9004542464B4632480AF056FDFE
:1012F000314B1B78172B8BD82D4BD3ED007A2E4B0F
:101300001B781A4613465B001344F1EE677A2B4AAA
:101310009B001344C3ED007A254BD3ED017A264B95
:101320001B781A4613465B0013440133F1EE677ACB
:10133000224A9B001344C3ED007A1F4B1B781A46C8
:1013400013465B0013440233194A92681B499B0001
:101350000B441A60184B1B780133DAB2164B1A7023
:10136000154B1B78182B7FF453AF15480AF07EFD00
:1013700000F0D8FD104B00221A7049E7114B1B6892
:1013800003F5FA63BA689A42FFF442AF0D4ABB68AC
:10139000136000F02BF903461A46044B1A7037E726
:1013A0000044025800ED00E000640258340B0010C5
:1013B000040A001060F51008100A0010140A00104A
:1013C00088F51008380B001080B500AF1B4B1C4A85
:1013D0001A601A4B1B4A5A60184B00229A60174B2E
:1013E0000122DA60154B00221A61144B00225A6167
:1013F000124B00229A61114B0022DA610F4B00223E
:101400001A620E4802F044F90346002B01D000F0A6
:101410004DFA0021094802F0DFFF0346002B01D0FE
:1014200000F044FA0021054803F021F80346002BA0
:1014300001D000F03BFA00BF80BD00BF1C090010C6
:10144000001C0058FFECC01080B500AF224B234AAF
:101450001A60214B4FF4E1325A601F4B00229A6010
:101460001D4B0022DA601C4B00221A611A4B0C2221
:101470005A61194B00229A61174B0022DA61164B10
:1014800000221A62144B00225A62134B00229A6205
:10149000114805F005F90346002B01D000F006FACB
:1014A00000210D4806F0EBFD0346002B01D000F0B3
:1014B000FDF90021084806F020FE0346002B01D06C
:1014C00000F0F4F9044806F0A1FD0346002B01D01A
:1014D00000F0ECF900BF80BD700900100010014061
:1014E00080B483B000AF0A4BD3F8D430084A43F03D
:1014F0000103C2F8D430064BD3F8D43003F0010313
:101500007B607B6800BF0C37BD465DF8047B70478D
:101510000044025880B483B000AF124BD3F8E030DF
:10152000104A43F00103C2F8E0300E4BD3F8E0302C
:1015300003F001037B607B680A4BD3F8E030094A73
:1015400043F00803C2F8E030064BD3F8E03003F074
:1015500008033B603B6800BF0C37BD465DF8047B69
:10156000704700BF0044025880B584B002AF00232A
:10157000FB710123BB7116E0BB799BB25B00BB80A2
:10158000BA1CB9880A23009300230B4802F01CF907
:101590000346FB70FB78002B02D1FB790133FB7112
:1015A000BB790133BB7197F90630002BE4DA00BF39
:1015B00000BF0837BD4680BD1C09001080B586B04D
:1015C00004AF0023FB716423029301230193FB1DED
:1015D000009301237522D021034802F021FB03462A
:1015E00018460837BD4680BD1C09001080B586B07E
:1015F00004AF1023FB71322000F0DEFFFFF7DEFFA7
:101600000346BB71BB79002B01D001238FE000F0B2
:1016100097F803467B717B79702B10D07B79682B10
:101620000DD064230293012301933B1D00930123FA
:101630007522D221404802F0F3FA012377E080219D
:101640006B2000F0A3F8642000F0B6FF00216B20AF
:1016500000F09CF80A2000F0AFFF01216B2000F0A1
:1016600095F80A2000F0A8FFFB7919461C2000F02D
:101670008DF8FB79182B49D801A252F823F000BF4E
:10168000E51610080D1710080D1710080D17100893
:101690000D1710080D1710080D1710080D1710085A
:1016A000EF1610080D1710080D1710080D17100869
:1016B0000D1710080D1710080D1710080D1710083A
:1016C000F91610080D1710080D1710080D1710083F
:1016D0000D1710080D1710080D1710080D1710081A
:1016E00003171008154B4FF08D421A600EE0134B94
:1016F0004FF08C421A6009E0104B4FF08B421A6099
:1017000004E00E4B4FF08A421A6000BF00211920FE
:1017100000F03CF803211A2000F038F803211D20C6
:1017200000F034F800216C2000F030F80023184657
:101730000837BD4680BD00BF1C0900100000001026
:1017400080B500AF752000F003F80346184680BD51
:1017500080B588B004AF0346FB71FF23BB73FB79F0
:101760009AB2642302930123019307F10E030093BD
:101770000123D021044802F053FA0346FB73BB7BDC
:1017800018461037BD4680BD1C09001080B588B0D2
:1017900004AF03460A46FB711346BB71FB799AB24C
:1017A0006423029301230193BB1D00930123D021E5
:1017B000074802F021F90346FB73FB7B002B01D0A5
:1017C000012300E0002318461037BD4680BD00BF4E
:1017D0001C09001080B58AB004AF786064230293BE
:1017E0000623019307F10803009301233B22D02134
:1017F0002C4802F015FA0346FB75FB7D002B0CD03C
:101800007B684FF000021A607B684FF000025A605C
:101810007B684FF000029A6041E03B7A1BB21B02EA
:101820001AB27B7A1BB21343BB82BB7A1BB21B0278
:101830001AB2FB7A1BB213437B823B7B1BB21B02A7
:101840001AB27B7B1BB213433B82B7F9143007EE0D
:10185000903AF8EEE76A144B93ED007AC6EE877A79
:101860007B68C3ED007AB7F9123007EE903AF8EED4
:10187000E76A0D4B93ED007AC6EE877A7B68C3ED7D
:10188000017AB7F9103007EE903AF8EEE76A064BA6
:1018900093ED007AC6EE877A7B68C3ED027A18373B
:1018A000BD4680BD1C0900100000001080B400AFD0
:1018B00072B600BF00BFFDE780B483B000AF0A4B33
:1018C000D3F8F430084A43F00203C2F8F430064B70
:1018D000D3F8F43003F002037B607B6800BF0C3761
:1018E000BD465DF8047B70470044025880B5BCB02B
:1018F00000AF786007F1DC0300221A605A609A603A
:10190000DA601A6107F11003C822002118460AF0B4
:10191000AFFB7B681B68274A934246D14FF0100209
:101920004FF00003C7E904230023C7F8AC3007F1E8
:101930001003184603F048F80346002B01D0FFF7C8
:10194000B5FF1D4BD3F8E0301B4A43F00803C2F843
:10195000E030194BD3F8E03003F00803FB60FB687C
:101960004FF44053C7F8DC301223C7F8E0300123AE
:10197000C7F8E4300023C7F8E8300423C7F8EC3098
:1019800007F1DC0319460D4801F0C0FC0A4BD3F8FF
:10199000F430094A43F08003C2F8F430064BD3F820
:1019A000F43003F08003BB60BB6800BFF037BD4676
:1019B00080BD00BF001C005800440258000C0258B3
:1019C00080B5BCB000AF786007F1DC0300221A607C
:1019D0005A609A60DA601A6107F11003C822002188
:1019E00018460AF045FB7B681B682B4A93424ED190
:1019F0004FF001024FF00003C7E904230023C7F8AA
:101A0000903007F11003184602F0DEFF0346002B6A
:101A100001D0FFF74BFF214BD3F8F0301F4A43F0C2
:101A20001003C2F8F0301D4BD3F8F03003F0100370
:101A3000FB60FB68194BD3F8E030184A43F0010310
:101A4000C2F8E030154BD3F8E03003F00103BB607F
:101A5000BB684FF4C063C7F8DC300223C7F8E0303E
:101A60000023C7F8E4300023C7F8E8300723C7F89D
:101A7000EC3007F1DC031946094801F047FC00226D
:101A80000021252000F097FE252000F0AEFE00BFCB
:101A9000F037BD4680BD00BF001001400044025831
:101AA0000000025880B400AF00BFFDE780B400AF73
:101AB00000BFFDE780B400AF00BFFDE780B400AF1A
:101AC00000BFFDE780B400AF00BFFDE780B400AF0A
:101AD00000BFBD465DF8047B704780B400AF00BF17
:101AE000BD465DF8047B704780B400AF00BFBD46C3
:101AF0005DF8047B704780B500AF00F03DFD00BF8E
:101B000080BD000080B500AF024804F0A7FE00BF12
:101B100080BD00BF7009001080B400AF01231846DB
:101B2000BD465DF8047B704780B582B000AF786039
:101B300039600AF0FFFA034616221A604FF0FF33AD
:101B400018460837BD4680BD80B582B000AF7860CA
:101B50004FF0FF317868FFF7E7FF00BFFDE780B582
:101B600086B000AFF860B9607A6000237B610AE05C
:101B7000AFF300800146BB685A1CBA60CAB21A7043
:101B80007B6901337B617A697B689A42F0DB7B6811
:101B900018461837BD4680BD80B586B000AFF860E6
:101BA000B9607A6000237B6109E0BB685A1CBA60A7
:101BB0001B781846FFF7BCFA7B6901337B617A69B1
:101BC0007B689A42F1DB7B6818461837BD4680BDBA
:101BD00080B483B000AF78604FF0FF3318460C3705
:101BE000BD465DF8047B704780B483B000AF786079
:101BF00039603B684FF400525A60002318460C3796
:101C0000BD465DF8047B704780B483B000AF786058
:101C1000012318460C37BD465DF8047B704780B43D
:101C200085B000AFF860B9607A60002318461437B9
:101C3000BD465DF8047B704780B586B000AF786024
:101C4000144A154BD31A7B617B693B61134B1B68AC
:101C5000002B02D1114B124A1A60104B1A687B6894
:101C600013443A699A4207D20AF064FA03460C22F6
:101C70001A604FF0FF3309E0084B1B68FB60074B0D
:101C80001A687B681344054A1360FB6818461837C6
:101C9000BD4680BD00800410000800003C0B001011
:101CA00080150010DFF834D000F0B6FB0C480D4969
:101CB0000D4A002302E0D458C4500433C4188C42A7
:101CC000F9D30A4A0A4C002301E013600432A2420D
:101CD000FBD30AF035FAFFF73DFA70470080041095
:101CE00000000010F00800103C0811080009001066
:101CF0007C150010FEE7000080B582B000AF786070
:101D000039603B68002B09D03B791A467B68C3F3E6
:101D10001723396807480AF041F809E03B7919466A
:101D20007B68C3F317231A4603480AF037F800BF4D
:101D300000BFFDE7A8F51008DCF5100880B586B0F7
:101D400000AF786000227968284800F03FFA034627
:101D5000FB603B7B002B06D02549F868FFF7CCFFE2
:101D60004FF0FF333EE0214B1B680021184600F086
:101D7000ABFA03461F4A13601C4B1B680021184630
:101D800000F0BCFA03461C4A136000237B610FE09D
:101D9000184B19687A691346DB009B1A9B000B44A9
:101DA0005A6816497B6941F823207B6901337B61BE
:101DB0007B69002BECDD00233B610FE00E4B1968C3
:101DC0003A691346DB009B1A9B000B445A680C4986
:101DD0003B6941F823203B6901333B613B69002BA0
:101DE000ECDD002318461837BD4680BD8013001077
:101DF0000CF610088413001088130010400B00101C
:101E0000440B001080B582B000AF0F4B1B680F4A27
:101E100011680F4A1268184600F0C6FA78607B68AD
:101E2000012B0CD0084B1B68184600F0ADF9034697
:101E300008491846FFF760FF4FF0FF3300E000232A
:101E400018460837BD4680BD80130010841300106B
:101E50008813001028F6100880B483B000AF7860B3
:101E6000054B1B687A685A60002318460C37BD463C
:101E70005DF8047B704700BF8413001090B583B0F9
:101E800000AF1E4B00221A701D4B1B685B683B6045
:101E90000023FB7129E0FC79FB799B003A6813442D
:101EA0001B681846FEF7D8FB02460B46214615482C
:101EB00009F074FFFB79002B14D0FB799B003A6882
:101EC000134493ED007A0D4B1B789B003A68134442
:101ED000D3ED007AB4EEE77AF1EE10FA02DD074AAC
:101EE000FB791370FB790133FB71FB79032BD2D99A
:101EF000002318460C37BD4690BD00BF08000010F7
:101F00008813001038F6100880B500AF034809F0B8
:101F1000ADFF0348FFF712FF00BF80BD44F6100875
:101F20000400001080B582B000AF4FF0FF337B603B
:101F3000124809F09BFF1248FFF78EFF78607B681C
:101F4000002B02D1FFF75EFF78607B68002B02D187
:101F5000FFF794FF78607B68002B0AD011233B7059
:101F60003B68102262F31F233B6006493868FFF785
:101F7000C3FE00BF0837BD4680BD00BF64F6100831
:101F8000140A001080F6100880B582B000AF7860A7
:101F900039603A6801212C4806F0DEF90346002B2F
:101FA00047D0294B1B68294A9360274B1B68274A57
:101FB000D360254B1B6803F59073254A9360224B31
:101FC0001B6803F59073224AD3601F4B1B6803F50F
:101FD000B073204A93601C4B1B6803F5B0731D4A15
:101FE000D360194B1B6803F598631B4A9360164B2B
:101FF0001B6803F59863184AD360134B1B68174A94
:102000009360114B1B68154AD3600F4B1B6830332C
:10201000134A93600C4B1B683033114AD3600A4B50
:102020001B68104A9360084B1B680E4AD36001235B
:1020300005E013223021786806F010FA00231846D4
:102040000837BD4680BD00BF8C1300100C00001087
:10205000BC000010CC0000101C0000102C00001070
:102060003C0000104C00001080B582B000AF7860DA
:1020700039603A6801213D4806F01AF90346002B01
:1020800069D03B4B1B6843F08043394A1360374BA0
:102090001B68374A9360354B1B68354AD360354B14
:1020A0001B6843F08043334A1360304B1B6803F5D1
:1020B000C063304A93602D4B1B6803F5C0632D4A03
:1020C000D3602D4B1B6843F080432B4A1360274B92
:1020D0001B6803F5D463284A9360244B1B6803F5FF
:1020E000CC63254AD360254B1B6843F08043234AC9
:1020F00013601E4B1B6803F53B63204A93601B4B28
:102100001B6803F53B631D4AD3601D4B1B6843F0FE
:1021100080431B4A1360154B1B6803F53E63184A46
:102120009360124B1B6803F53E63154AD360154B51
:102130001B6843F08043134A13600C4B1B6803F584
:102140004A63104A9360094B1B6803F54A630D4AC2
:10215000D360012305E012223021786806F07EF971
:10216000002318460837BD4680BD00BF90130010FD
:102170005C0000106C0000107C0000108C0000104F
:102180009C000010AC00001080B582B000AF7860F9
:10219000786806F057F9034618460837BD4680BDF3
:1021A00080B584B002AF78603960002301930523C5
:1021B00000930123044A3968786806F03FFA034621
:1021C00018460837BD4680BD7406001080B594B02F
:1021D00000AFF860B9607A600021F868FFF7E0FFAF
:1021E0000346BB6497F84830002B01D0BB6C67E016
:1021F00007F11003184600F0E7F8034683F00103E7
:10220000DBB2002B08D0FB681B681846FFF7BCFF49
:102210000346BB64BB6C53E00023A7F84E3012E0CA
:10222000B7F84E10B7F84E309B00BA6813441A68DE
:1022300007F110030C33184606F02AF8B7F84E30B1
:102240000133A7F84E30BB68002B04D0FB8BB7F8E6
:102250004E209A42E4D30023A7F84C3012E0B7F89E
:102260004C10B7F84C309B007A6813441A6807F199
:1022700010030433184606F00BF8B7F84C3001335E
:10228000A7F84C307B68002B04D0FB8AB7F84C20B1
:102290009A42E4D3FB681B6807F110021146184606
:1022A00000F046F8034683F00103DBB2002B06D0B2
:1022B000FB681B681846FFF767FF0346BB64BB6CEF
:1022C00018465037BD4680BD80B582B000AF7860FB
:1022D00039607B68002B04D1064B7B607B68064A23
:1022E0001A603968786806F0BFF803461846083760
:1022F000BD4680BD740600100001C0A180B582B04B
:1023000000AF786039607B68002B04D1064B7B609E
:102310007B68064A1A603968786806F01BF903463C
:1023200018460837BD4680BD740600100001C0A1E4
:1023300080B584B000AF786039603968786806F09D
:10234000BFF9F8600123FB72FB68002B01D1002369
:1023500026E03968F868FFF787FE03461A46FB7ADD
:102360001340002B14BF01230023FB723968F86867
:10237000FFF70AFE03461A46FB7A1340002B14BFF0
:1023800001230023FB72786806F068FA03461A46B8
:10239000FB7A1340002B14BF01230023FB72FB7A4E
:1023A00018461037BD4680BD80B584B000AFF860D8
:1023B000B9607A607A68B968F86806F07FFA03460F
:1023C00018461037BD4680BD80B586B000AF786036
:1023D0007B68002B01D1002316E00D4A07F11003A2
:1023E00092E8030083E803000A4A07F1080392E831
:1023F000030083E8030007F1100207F10803194600
:10240000786805F0FDFF034618461837BD4680BDC5
:10241000B4F61008BCF6100880B400AF0B4BD3F82C
:1024200088300A4A43F47003C2F88830074B1B69AE
:10243000064A43F010031361044B4FF001629A60A7
:1024400000BFBD465DF8047B704700BF00ED00E0B3
:1024500080B582B000AF284BD3F8D830264A43F479
:102460008043C2F8D830244BD3F8D83003F48043EB
:102470003B603B68214B1B6823F47F2323F470638C
:102480001E4A43F4014313601C4B1B681B4A43F074
:1024900001031360032000F083F902F0BDF8024647
:1024A000154B9B691B0A03F00F031549CB5C03F026
:1024B0001F0322FA03F37B600F4B9B6903F00F03AA
:1024C0000F4AD35C03F01F037A6822FA03F30D4A24
:1024D00013600C4B1B680C4A1360002000F016F8C8
:1024E0000346002B01D0012302E0FFF7E5F90023AA
:1024F00018460837BD4680BD0044025800440240DB
:10250000B00311081C0700101807001080B582B036
:1025100000AF7860154B1B78002B01D1012321E01F
:10252000134B1A68114B1B7819464FF47A73B3FB9F
:10253000F1F3B2FBF3F3184600F065F90346002B04
:1025400001D001230EE07B680F2B0AD800227968A6
:102550004FF0FF3000F02FF9064A7B68136000232C
:1025600000E0012318460837BD4680BD240700104F
:10257000180700102007001080B400AF064B1B782E
:102580001A46064B1B681344044A136000BFBD463D
:102590005DF8047B704700BF240700102C14001066
:1025A00080B400AF034B1B681846BD465DF8047B42
:1025B000704700BF2C14001080B584B000AF786065
:1025C000FFF7EEFFB8607B68FB60FB68B3F1FF3F8D
:1025D00005D00A4B1B781A46FB681344FB6000BF0A
:1025E000FFF7DEFF0246BB68D31AFA689A42F7D8B3
:1025F00000BF00BF1037BD4680BD00BF24070010DC
:1026000080B485B000AF78607B6803F00703FB609F
:102610000C4BDB68BB60BA684FF6FF031340BB602E
:10262000FB681A02BB68134343F0BF6343F40033F3
:10263000BB60044ABB68D36000BF1437BD465DF879
:10264000047B704700ED00E080B400AF044BDB6812
:102650001B0A03F007031846BD465DF8047B70476C
:1026600000ED00E080B483B000AF0346FB80B7F913
:102670000630002B0BDBFB8803F01F020749B7F97C
:1026800006305B09012000FA02F241F8232000BF66
:102690000C37BD465DF8047B704700BF00E100E0E9
:1026A00080B483B000AF03463960FB80B7F90630D1
:1026B000002B0ADB3B68DAB20C49B7F9063012018D
:1026C000D2B20B4483F800230AE03B68DAB208492F
:1026D000FB8803F00F03043B1201D2B20B441A76BD
:1026E00000BF0C37BD465DF8047B704700E100E099
:1026F00000ED00E080B489B000AFF860B9607A60A6
:10270000FB6803F00703FB61FB69C3F10703042BBC
:1027100028BF0423BB61FB690433062B02D9FB6984
:10272000033B00E000237B614FF0FF32BB6902FAFC
:1027300003F3DA43BB681A407B699A404FF0FF31DC
:102740007B6901FA03F3D9437B680B4013431846B6
:102750002437BD465DF8047B7047000080B582B029
:1027600000AF78607B68013BB3F1807F01D3012328
:102770000FE00A4A7B68013B53600F214FF0FF30A6
:10278000FFF78EFF054B00229A60044B07221A6068
:10279000002318460837BD4680BD00BF10E000E0AA
:1027A00080B582B000AF78607868FFF729FF00BF7E
:1027B0000837BD4680BD80B586B000AF0346B9601E
:1027C0007A60FB81FFF740FF78617A68B9687869C1
:1027D000FFF790FF0246B7F90E3011461846FFF793
:1027E0005FFF00BF1837BD4680BD80B582B000AF27
:1027F0000346FB80B7F906301846FFF733FF00BFEA
:102800000837BD4680BD80B582B000AF786078687B
:10281000FFF7A4FF034618460837BD4680BD0000F9
:1028200080B400AF064B1B6803F0F003702B01D19E
:10283000032300E001231846BD465DF8047B704782
:1028400000ED00E080B586B000AF7860FFF7A8FE2D
:1028500038617B68002B01D10123DCE27B6893F8AF
:102860003530DBB2022B08D07B6880225A657B684A
:10287000002283F834200123CDE27B681B68764A6E
:1028800093424AD07B681B68744A934245D07B6868
:102890001B68734A934240D07B681B68714A93421D
:1028A0003BD07B681B68704A934236D07B681B68BC
:1028B0006E4A934231D07B681B686D4A93422CD09C
:1028C0007B681B686B4A934227D07B681B686A4A07
:1028D000934222D07B681B68684A93421DD07B6874
:1028E0001B68674A934218D07B681B68654A93420D
:1028F00013D07B681B68644A93420ED07B681B68C8
:10290000624A934209D07B681B68614A934204D0B3
:102910007B681B685F4A934201D1012300E00023DA
:10292000002B13D07B681B681A687B681B6822F039
:102930001E021A607B681B685A697B681B6822F05C
:1029400080025A617B681B687B610AE07B681B68B8
:102950001A687B681B6822F00E021A607B681B688D
:102960007B617B681B683C4A934272D07B681B6822
:102970003A4A93426DD07B681B68394A934268D0CB
:102980007B681B68374A934263D07B681B68364A72
:1029900093425ED07B681B68344A934259D07B686F
:1029A0001B68334A934254D07B681B68314A934278
:1029B0004FD07B681B68304A93424AD07B681B68C3
:1029C0002E4A934245D07B681B682D4A934240D0E3
:1029D0007B681B682B4A93423BD07B681B682A4A62
:1029E000934236D07B681B68284A934231D07B687B
:1029F0001B68274A93422CD07B681B68254A934268
:102A000027D07B681B68244A934222D07B681B68CE
:102A1000224A93421DD07B681B68214A934218D0FA
:102A20007B681B681F4A934213D07B681B681E4A51
:102A300093420ED07B681B681C4A934209D07B6886
:102A40001B681B4A934204D07B681B68194A934257
:102A500032D1012331E000BF1000024028000240C3
:102A600040000240580002407000024088000240CE
:102A7000A0000240B80002401004024028040240B6
:102A8000400402405804024070040240880402409E
:102A9000A0040240B8040240085402581C540258D2
:102AA0003054025844540258585402586C54025836
:102AB00080540258945402580023002B07D07B689E
:102AC0001B6E1A687B681B6E22F480721A607B682A
:102AD0001B686D4A93424AD07B681B686B4A9342DD
:102AE00045D07B681B686A4A934240D07B681B686C
:102AF000684A93423BD07B681B68674A934236D052
:102B00007B681B68654A934231D07B681B68644AC6
:102B100093422CD07B681B68624A934227D07B6823
:102B20001B68614A934222D07B681B685F4A9342CC
:102B30001DD07B681B685E4A934218D07B681B6877
:102B40005C4A934213D07B681B685B4A93420ED069
:102B50007B681B68594A934209D07B681B68584AB6
:102B6000934204D07B681B68564A934208D17B6825
:102B70001B681A687B681B6822F001021A6007E074
:102B80007B681B681A687B681B6822F001021A6068
:102B900013E0FFF705FD02463B69D31A052B0CD95C
:102BA0007B6820225A657B68032283F835207B6886
:102BB000002283F8342001232DE17B691B6803F098
:102BC0000103002BE5D17B681B682F4A93424AD052
:102BD0007B681B682D4A934245D07B681B682C4A52
:102BE000934240D07B681B682A4A93423BD07B6863
:102BF0001B68294A934236D07B681B68274A934258
:102C000031D07B681B68264A93422CD07B681B68B6
:102C1000244A934227D07B681B68234A934222D0E0
:102C20007B681B68214A93421DD07B681B68204A41
:102C3000934218D07B681B681E4A934213D07B686E
:102C40001B681D4A93420ED07B681B681B4A934247
:102C500009D07B681B681A4A934204D07B681B68C2
:102C6000184A934201D1012300E00023002B2BD00E
:102C70007B689B6DBB607B68DB6D03F01F033F22AD
:102C80009A40BB689A602AE0100002402800024087
:102C9000400002405800024070000240880002409C
:102CA000A0000240B8000240100402402804024084
:102CB000400402405804024070040240880402406C
:102CC000A0040240B80402407B689B6DFB607B68F7
:102CD000DB6D03F01F0301229A40FB685A607B689A
:102CE0001B684F4A934272D07B681B684D4A9342DF
:102CF0006DD07B681B684C4A934268D07B681B6828
:102D00004A4A934263D07B681B68494A93425ED02B
:102D10007B681B68474A934259D07B681B68464AC8
:102D2000934254D07B681B68444A93424FD07B68DF
:102D30001B68434A93424AD07B681B68414A9342CE
:102D400045D07B681B68404A934240D07B681B6833
:102D50003E4A93423BD07B681B683D4A934236D043
:102D60007B681B683B4A934231D07B681B683A4AB8
:102D700093422CD07B681B68384A934227D07B68EB
:102D80001B68374A934222D07B681B68354A9342BE
:102D90001DD07B681B68344A934218D07B681B683F
:102DA000324A934213D07B681B68314A93420ED05B
:102DB0007B681B682F4A934209D07B681B682E4AA8
:102DC000934204D07B681B682C4A934201D10123B3
:102DD00000E00023002B15D07B685B6E7A68926E52
:102DE0005A607B68DB6E002B0CD07B68DB6E1A6848
:102DF0007B68DB6E22F480721A607B681B6F7A68D6
:102E0000526F5A607B68012283F835207B6800226C
:102E100083F83420002318461837BD4680BD00BF14
:102E200010000240280002404000024058000240CA
:102E30007000024088000240A0000240B80002403A
:102E4000100402402804024040040240580402409A
:102E50007004024088040240A0040240B80402400A
:102E6000085402581C540258305402584454025812
:102E7000585402586C5402588054025894540258C2
:102E800080B584B000AF78607B68002B01D101234E
:102E900037E27B6893F83530DBB2022B04D07B68D5
:102EA00080225A6501232CE27B681B685C4A9342AE
:102EB0004AD07B681B685B4A934245D07B681B689D
:102EC000594A934240D07B681B68584A93423BD092
:102ED0007B681B68564A934236D07B681B68554A0C
:102EE000934231D07B681B68534A93422CD07B6855
:102EF0001B68524A934227D07B681B68504A934212
:102F000022D07B681B684F4A93421DD07B681B68A8
:102F10004D4A934218D07B681B684C4A934213D0A9
:102F20007B681B684A4A93420ED07B681B68494AFB
:102F3000934209D07B681B68474A934204D07B6860
:102F40001B68464A934201D1012300E00023002B75
:102F500000F086807B68042283F835207B681B683C
:102F60002F4A93424AD07B681B682E4A934245D031
:102F70007B681B682C4A934240D07B681B682B4AB5
:102F800093423BD07B681B68294A934236D07B68CA
:102F90001B68284A934231D07B681B68264A9342BB
:102FA0002CD07B681B68254A934227D07B681B681E
:102FB000234A934222D07B681B68224A93421DD049
:102FC0007B681B68204A934218D07B681B681F4AA5
:102FD000934213D07B681B681D4A93420ED07B68D6
:102FE0001B681C4A934209D07B681B681A4A9342AB
:102FF00004D07B681B68194A934208D17B681B6820
:103000001A687B681B6822F001021A6078E17B680D
:103010001B681A687B681B6822F001021A606FE166
:1030200010000240280002404000024058000240C8
:103030007000024088000240A0000240B800024038
:103040001004024028040240400402405804024098
:103050007004024088040240A0040240B804024008
:103060007B681B681A687B681B6822F00E021A6076
:103070007B681B686C4A93424AD07B681B686B4A2A
:10308000934245D07B681B68694A934240D07B6875
:103090001B68684A93423BD07B681B68664A934230
:1030A00036D07B681B68654A934231D07B681B68C9
:1030B000634A93422CD07B681B68624A934227D0B4
:1030C0007B681B68604A934222D07B681B685F4A1A
:1030D00093421DD07B681B685D4A934218D07B6881
:1030E0001B685C4A934213D07B681B685A4A934220
:1030F0000ED07B681B68594A934209D07B681B68D5
:10310000574A934204D07B681B68564A934208D1C1
:103110007B681B681A687B681B6822F001021A60D2
:1031200007E07B681B681A687B681B6822F0010255
:103130001A607B681B683C4A934272D07B681B68AC
:103140003A4A93426DD07B681B68394A934268D0F3
:103150007B681B68374A934263D07B681B68364A9A
:1031600093425ED07B681B68344A934259D07B6897
:103170001B68334A934254D07B681B68314A9342A0
:103180004FD07B681B68304A93424AD07B681B68EB
:103190002E4A934245D07B681B682D4A934240D00B
:1031A0007B681B682B4A93423BD07B681B682A4A8A
:1031B000934236D07B681B68284A934231D07B68A3
:1031C0001B68274A93422CD07B681B68254A934290
:1031D00027D07B681B68244A934222D07B681B68F7
:1031E000224A93421DD07B681B68214A934218D023
:1031F0007B681B681F4A934213D07B681B681E4A7A
:1032000093420ED07B681B681C4A934209D07B68AE
:103210001B681B4A934204D07B681B68194A93427F
:1032200032D1012331E000BF1000024028000240EB
:1032300040000240580002407000024088000240F6
:10324000A0000240B80002401004024028040240DE
:1032500040040240580402407004024088040240C6
:10326000A0040240B8040240085402581C540258FA
:103270003054025844540258585402586C5402585E
:1032800080540258945402580023002B28D07B68A5
:103290001B6E1A687B681B6E22F480721A607B6852
:1032A0009B6DFB607B68DB6D03F01F0301229A407E
:1032B000FB685A607B685B6E7A68926E5A607B68C6
:1032C000DB6E002B0CD07B68DB6E1A687B68DB6ED4
:1032D00022F480721A607B681B6F7A68526F5A60A2
:1032E0007B68012283F835207B68002283F8342034
:1032F0007B681B6D002B03D07B681B6D786898473B
:10330000002318461037BD4680BD00BF80B489B089
:1033100000AF786039600023FB61894B7B6194E1E9
:103320003B681A680121FB6901FA03F313403B6112
:103330003B69002B00F086813B685B6803F0030368
:10334000012B05D03B685B6803F00303022B30D1EF
:103350007B689B68BB61FB695B00032202FA03F395
:10336000DB43BA691340BB613B68DA68FB695B0009
:1033700002FA03F3BA691343BB617B68BA699A60C6
:103380007B685B68BB610122FB6902FA03F3DB43E4
:10339000BA691340BB613B685B681B0903F001021B
:1033A000FB6902FA03F3BA691343BB617B68BA692C
:1033B0005A603B685B6803F00303032B17D07B68FC
:1033C000DB68BB61FB695B00032202FA03F3DB43AA
:1033D000BA691340BB613B689A68FB695B0002FAFB
:1033E00003F3BA691343BB617B68BA69DA603B686F
:1033F0005B6803F00303022B23D1FB69DA087B68C7
:10340000083253F82230BB61FB6903F007039B00CD
:103410000F2202FA03F3DB43BA691340BB613B6836
:103420001A69FB6903F007039B0002FA03F3BA6908
:103430001343BB61FB69DA087B680832B96943F85A
:1034400022107B681B68BB61FB695B00032202FAE8
:1034500003F3DB43BA691340BB613B685B6803F06D
:103460000302FB695B0002FA03F3BA691343BB6111
:103470007B68BA691A603B685B6803F44033002BD1
:1034800000F0E0802F4BD3F8F4302E4A43F00203D3
:10349000C2F8F4302B4BD3F8F43003F00203FB6096
:1034A000FB68294AFB699B08023352F82330BB6151
:1034B000FB6903F003039B000F2202FA03F3DB43D3
:1034C000BA691340BB617B68204A934252D07B6843
:1034D0001F4A934231D07B681E4A93422BD07B68AF
:1034E0001D4A934225D07B681C4A93421FD07B68BB
:1034F0001B4A934219D07B681A4A934213D07B68C7
:10350000194A93420DD07B68184A934207D07B68D2
:10351000174A934201D109232DE00A232BE0082307
:1035200029E0072327E0062325E0052323E00423E1
:1035300021E003231FE002231DE001231BE000BF65
:10354000C00000580044025800040058000002580F
:103550000004025800080258000C025800100258DB
:103560000014025800180258001C0258002002588B
:10357000002402580023FA6902F0030292009340EB
:10358000BA691343BB613849FB699B080233BA69C6
:1035900041F823204FF0B0431B68BB613B69DB431C
:1035A000BA691340BB613B685B6803F48013002B6E
:1035B00003D0BA693B691343BB614FF0B042BB69AA
:1035C00013604FF0B0435B68BB613B69DB43BA6992
:1035D0001340BB613B685B6803F40013002B03D00E
:1035E000BA693B691343BB614FF0B042BB6953609A
:1035F0007B695B68BB613B69DB43BA691340BB61B4
:103600003B685B6803F40033002B03D0BA693B6965
:103610001343BB617B69BA695A607B691B68BB61F4
:103620003B69DB43BA691340BB613B685B6803F4E9
:103630008033002B03D0BA693B691343BB617B69BC
:10364000BA691A60FB690133FB613B681A68FB6960
:1036500022FA03F3002B7FF463AE00BF00BF2437D0
:10366000BD465DF8047B70470004005880B483B009
:1036700000AF7860054B1A6804497B6813430B6000
:1036800000BF0C37BD465DF8047B704710650258DB
:1036900080B582B000AF78607B68002B01D1012338
:1036A0008DE07B6893F84130DBB2002B06D17B685C
:1036B000002283F840207868FEF718F97B682422FE
:1036C00083F841207B681B681A687B681B6822F0BE
:1036D00001021A607B685A687B681B6822F070627E
:1036E0001A617B681B689A687B681B6822F4004239
:1036F0009A607B68DB68012B07D17B689A687B68DE
:103700001B6842F400429A6006E07B689A687B6816
:103710001B6842F404429A607B68DB68022B08D184
:103720007B681B685A687B681B6842F400625A60B9
:1037300007E07B681B685A687B681B6822F400629C
:103740005A607B681B685B687A68126843F0007394
:1037500043F4004353607B681B68DA687B681B682E
:1037600022F40042DA607B681A697B685B6942EA8E
:1037700003017B689B691A027B681B680A43DA6055
:103780007B68D9697B681A6A7B681B680A431A6080
:103790007B681B681A687B681B6842F001021A602C
:1037A0007B6800225A647B68202283F841207B6872
:1037B00000221A637B68002283F842200023184607
:1037C0000837BD4680BD000080B588B002AFF86004
:1037D0007A601A460B467B8113463B81FB6893F85F
:1037E0004130DBB2202B40F0FD80FB6893F8403085
:1037F000012B01D10223F6E0FB68012283F840206F
:10380000FEF7CEFE38613B690093192301224FF485
:103810000041F86800F0EAFB0346002B01D00123C9
:10382000E1E0FB68212283F84120FB68102283F845
:103830004220FB6800225A64FB687A685A62FB687F
:103840003A895A85FB6800225A63FB685B8D9BB2FC
:10385000FF2B06D9FB68FF221A854FF080737B612E
:1038600007E0FB685B8D9AB2FB681A854FF0007326
:103870007B61FB681B8D002B24D0FB685B6A1A7888
:10388000FB681B689A62FB685B6A5A1CFB685A6299
:10389000FB685B8D9BB2013B9AB2FB685A85FB6863
:1038A0001B8D013B9AB2FB681A85FB681B8DDBB24E
:1038B0000133DAB279894E4B00937B69F86800F0E6
:1038C00059FD66E0FB681B8DDAB27989484B00939D
:1038D0007B69F86800F04EFD5BE03A69396AF86888
:1038E00000F0DDFB0346002B01D001237BE0FB68E9
:1038F0005B6A1A78FB681B689A62FB685B6A5A1CF1
:10390000FB685A62FB685B8D9BB2013B9AB2FB6815
:103910005A85FB681B8D013B9AB2FB681A85FB68D0
:103920005B8D9BB2002B34D0FB681B8D002B30D1FC
:103930003B6900933B6A00228021F86800F056FB47
:103940000346002B01D001234DE0FB685B8D9BB249
:10395000FF2B0ED9FB68FF221A85FB681B8DDAB29C
:103960007989002300934FF08073F86800F002FD1E
:103970000FE0FB685B8D9AB2FB681A85FB681B8DB4
:10398000DAB27989002300934FF00073F86800F0F1
:10399000F1FCFB685B8D9BB2002B9ED13A69396AC2
:1039A000F86800F0C3FB0346002B01D001231AE0A6
:1039B000FB681B682022DA61FB681B685968FB689A
:1039C0001A680C4B0B405360FB68202283F841209F
:1039D000FB68002283F84220FB68002283F8402025
:1039E000002300E0022318461837BD4680BD00BF03
:1039F0000020008000E800FE80B588B002AFF860CB
:103A0000084611461A4603467B810B463B81134606
:103A1000FB80FB6893F84130DBB2202B40F0F9804B
:103A20003B6A002B02D0BB8C002B05D1FB684FF406
:103A300000725A640123EDE0FB6893F84030012BDB
:103A400001D10223E6E0FB68012283F84020FEF763
:103A5000A7FD78617B690093192301224FF400418F
:103A6000F86800F0C3FA0346002B01D00123D1E02F
:103A7000FB68212283F84120FB68402283F8422022
:103A8000FB6800225A64FB683A6A5A62FB68BA8C87
:103A90005A85FB6800225A63F8883A8979897B69DC
:103AA0000193BB6A00930346F86800F0D3F903461C
:103AB000002B05D0FB68002283F840200123A9E0F9
:103AC000FB685B8D9BB2FF2B0ED9FB68FF221A852A
:103AD000FB681B8DDAB27989002300934FF0807365
:103AE000F86800F047FC0FE0FB685B8D9AB2FB685A
:103AF0001A85FB681B8DDAB27989002300934FF099
:103B00000073F86800F036FC7A69B96AF86800F06A
:103B1000C6FA0346002B01D001237BE0FB685B6AF9
:103B20001A78FB681B689A62FB685B6A5A1CFB6820
:103B30005A62FB685B8D9BB2013B9AB2FB685A8567
:103B4000FB681B8D013B9AB2FB681A85FB685B8D95
:103B50009BB2002B34D0FB681B8D002B30D17B69CE
:103B60000093BB6A00228021F86800F03FFA034608
:103B7000002B01D001234DE0FB685B8D9BB2FF2B36
:103B80000ED9FB68FF221A85FB681B8DDAB2798992
:103B9000002300934FF08073F86800F0EBFB0FE018
:103BA000FB685B8D9AB2FB681A85FB681B8DDAB2E5
:103BB0007989002300934FF00073F86800F0DAFB76
:103BC000FB685B8D9BB2002B9ED17A69B96AF8685D
:103BD00000F0ACFA0346002B01D001231AE0FB6889
:103BE0001B682022DA61FB681B685968FB681A6849
:103BF0000A4B0B405360FB68202283F84120FB688E
:103C0000002283F84220FB68002283F84020002332
:103C100000E0022318461837BD4680BD00E800FECC
:103C200080B588B002AFF860084611461A460346D0
:103C30007B810B463B811346FB80FB6893F8413048
:103C4000DBB2202B40F0FD803B6A002B02D0BB8C06
:103C5000002B05D1FB684FF400725A640123F1E098
:103C6000FB6893F84030012B01D10223EAE0FB68A6
:103C7000012283F84020FEF793FC78617B69009372
:103C8000192301224FF40041F86800F0AFF9034610
:103C9000002B01D00123D5E0FB68222283F84120CC
:103CA000FB68402283F84220FB6800225A64FB68CC
:103CB0003A6A5A62FB68BA8C5A85FB6800225A63DA
:103CC000F8883A8979897B690193BB6A0093034636
:103CD000F86800F013F90346002B05D0FB680022BA
:103CE00083F840200123ADE0FB685B8D9BB2FF2B86
:103CF0000ED9FB68FF221A85FB681B8DDAB2798921
:103D0000524B00934FF08073F86800F033FB0FE0E4
:103D1000FB685B8D9AB2FB681A85FB681B8DDAB273
:103D200079894A4B00934FF00073F86800F022FB4A
:103D30007B690093BB6A00220421F86800F056F901
:103D40000346002B01D001237CE0FB681B685A6A04
:103D5000FB685B6AD2B21A70FB685B6A5A1CFB682C
:103D60005A62FB681B8D013B9AB2FB681A85FB689F
:103D70005B8D9BB2013B9AB2FB685A85FB685B8DF9
:103D80009BB2002B34D0FB681B8D002B30D17B699C
:103D90000093BB6A00228021F86800F027F90346EF
:103DA000002B01D001234DE0FB685B8D9BB2FF2B04
:103DB0000ED9FB68FF221A85FB681B8DDAB2798960
:103DC000002300934FF08073F86800F0D3FA0FE0FF
:103DD000FB685B8D9AB2FB681A85FB681B8DDAB2B3
:103DE0007989002300934FF00073F86800F0C2FA5D
:103DF000FB685B8D9BB2002B9AD17A69B96AF8682F
:103E000000F094F90346002B01D001231AE0FB686F
:103E10001B682022DA61FB681B685968FB681A6816
:103E20000B4B0B405360FB68202283F84120FB685A
:103E3000002283F84220FB68002283F84020002300
:103E400000E0022318461837BD4680BD00240080DC
:103E500000E800FE80B586B002AFF8600846114663
:103E60001A4603467B810B463B811346FB80FB8849
:103E7000DAB27989204B00934FF08073F86800F034
:103E800079FAFA69B969F86800F009F90346002B74
:103E900001D001232CE0FB88012B05D13B89DAB24C
:103EA000FB681B689A6215E03B891B0A9BB2DAB279
:103EB000FB681B689A62FA69B969F86800F0EFF864
:103EC0000346002B01D0012312E03B89DAB2FB68E4
:103ED0001B689A62FB690093BB6900228021F86825
:103EE00000F084F80346002B01D0012300E00023FA
:103EF00018461037BD4680BD0020008080B586B0D2
:103F000002AFF860084611461A4603467B810B460D
:103F10003B811346FB80FB88DAB27989204B009302
:103F20000023F86800F026FAFA69B969F86800F029
:103F3000B6F80346002B01D001232CE0FB88012BAF
:103F400005D13B89DAB2FB681B689A6215E03B89B0
:103F50001B0A9BB2DAB2FB681B689A62FA69B969FC
:103F6000F86800F09CF80346002B01D0012312E012
:103F70003B89DAB2FB681B689A62FB690093BB69F4
:103F800000224021F86800F031F80346002B01D0F0
:103F9000012300E0002318461037BD4680BD00BF56
:103FA0000020008080B483B000AF78607B681B681D
:103FB0009B6903F00203022B03D17B681B6800227C
:103FC0009A627B681B689B6903F00103012B07D091
:103FD0007B681B689A697B681B6842F001029A61E2
:103FE00000BF0C37BD465DF8047B704780B584B0D8
:103FF00000AFF860B9603B601346FB713BE0BA6903
:104000003968F86800F0D6F80346002B01D0012388
:1040100041E03B68B3F1FF3F2DD0FEF7C1FA024605
:10402000BB69D31A3A689A4202D33B68002B22D16B
:10403000FB681B689A69BB681340BA689A420CBF58
:1040400001230023DBB21A46FB799A4213D1FB68A5
:104050005B6C43F02002FB685A64FB68202283F803
:104060004120FB68002283F84220FB68002283F88D
:10407000402001230FE0FB681B689A69BB6813406E
:10408000BA689A420CBF01230023DBB21A46FB79BF
:104090009A42B4D0002318461037BD4680BD80B583
:1040A00084B000AFF860B9607A6033E07A68B968CC
:1040B000F86800F07FF80346002B01D0012331E0BF
:1040C000BB68B3F1FF3F25D0FEF76AFA02467B6872
:1040D000D31ABA689A4202D3BB68002B1AD1FB6884
:1040E0001B689B6903F00203022B13D0FB685B6C17
:1040F00043F02002FB685A64FB68202283F84120C9
:10410000FB68002283F84220FB68002283F84020ED
:10411000012307E0FB681B689B6903F00203022B85
:10412000C4D1002318461037BD4680BD80B584B089
:1041300000AFF860B9607A602FE07A68B968F86813
:1041400000F038F80346002B01D001232DE0FEF7E4
:1041500027FA02467B68D31ABA689A4202D3BB6830
:10416000002B1AD1FB681B689B6903F02003202BEE
:1041700013D0FB685B6C43F02002FB685A64FB6859
:10418000202283F84120FB68002283F84220FB684C
:10419000002283F84020012307E0FB681B689B692D
:1041A00003F02003202BC8D1002318461037BD464A
:1041B00080BD000080B58AB000AFF860B9607A6059
:1041C000002387F82730FB681B689B69BB610023CD
:1041D0003B627B68FB61BB6903F01003002B68D076
:1041E000FB681B681022DA6149E0BB68B3F1FF3F4E
:1041F00045D0FEF7D5F90246FB69D31ABA689A4250
:1042000002D3BB68002B3AD1FB681B685B6803F4E0
:1042100080437B61FB6893F84230FB74FB681B684A
:104220009B6903F40043B3F5004F21D17B69B3F5DB
:10423000804F1DD0FB7C202B1AD0FB681B685A686E
:10424000FB681B6842F480425A60FEF7A9F9F861E6
:104250000EE0FEF7A5F90246FB69D31A192B07D920
:104260003B6A43F020033B62012387F8273006E0D6
:10427000FB681B689B6903F02003202BE9D1FB68D6
:104280001B689B6903F02003202B03D097F827308D
:10429000002BAAD097F82730002B03D1FB681B68AE
:1042A0002022DA613B6A43F004033B62012387F872
:1042B0002730FB681B689B69BB61BB6903F4807393
:1042C000002B0BD03B6A43F001033B62FB681B6889
:1042D0004FF48072DA61012387F82730BB6903F459
:1042E0008063002B0BD03B6A43F008033B62FB6802
:1042F0001B684FF48062DA61012387F82730BB69BD
:1043000003F40073002B0BD03B6A43F002033B62C3
:10431000FB681B684FF40072DA61012387F82730CD
:1043200097F82730002B1CD0F868FFF73BFEFB689E
:104330001B685968FB681A680D4B0B405360FB689B
:104340005A6C3B6A1A43FB685A64FB68202283F864
:104350004120FB68002283F84220FB68002283F89A
:10436000402097F8273018462837BD4680BD00BF4B
:1043700000E800FE80B487B000AFF8607B600B46B9
:104380007B8113467B727B89C3F309027B7A1B0412
:1043900003F47F031A437B681A433B6A134323F0F9
:1043A00000437B61FB681B685A683B6A5B0D03F442
:1043B0008061084B0B43DB4302EA0301FB681B6887
:1043C0007A690A435A6000BF1C37BD465DF8047B1A
:1043D000704700BFFF63FF0380B483B000AF786015
:1043E00039607B6893F84130DBB2202B38D17B6891
:1043F00093F84030012B01D1022332E07B68012287
:1044000083F840207B68242283F841207B681B6866
:104410001A687B681B6822F001021A607B681B68BF
:104420001A687B681B6822F480521A607B681B68DC
:1044300019687B681B683A680A431A607B681B68C6
:104440001A687B681B6842F001021A607B682022B0
:1044500083F841207B68002283F84020002300E09D
:10446000022318460C37BD465DF8047B704780B4C4
:1044700085B000AF786039607B6893F84130DBB27B
:10448000202B39D17B6893F84030012B01D10223D6
:1044900033E07B68012283F840207B68242283F884
:1044A00041207B681B681A687B681B6822F0010248
:1044B0001A607B681B681B68FB60FB6823F47063F1
:1044C000FB603B681B02FA681343FB607B681B6858
:1044D000FA681A607B681B681A687B681B6842F080
:1044E00001021A607B68202283F841207B68002249
:1044F00083F84020002300E0022318461437BD460D
:104500005DF8047B7047000080B584B000AFF860B0
:104510000B467A60FB72374B1B6823F0010235496A
:10452000FB6813430B607B68002B23D1FEF778F9FF
:104530000346032B58D12F4B1B692E4A23F001034E
:1045400013612D4B1B692C4A43F004031361BFF325
:104550004F8F00BFBFF36F8F00BFFB7A012B01D1DC
:1045600030BF00E020BF244B1B69234A23F0040323
:1045700013613CE07B68012B23D1FEF751F9034620
:10458000012B33D11B4B5B691A4A23F002035361A1
:10459000194B1B69184A43F004031361BFF34F8F93
:1045A00000BFBFF36F8F00BFFB7A012B01D130BF7B
:1045B00000E020BF104B1B690F4A23F00403136176
:1045C00015E0FEF72DF90346032B06D1094B1B69B5
:1045D000084A23F00403136109E0064B5B69054AAE
:1045E00023F00403536102E000BF00E000BF103776
:1045F000BD4680BD0048025800ED00E080B500AF28
:10460000FEF70EF90346032B01D120BF01E040BFA6
:1046100020BF00BF80BD000080B489B000AFB34BA5
:104620001B6903F03803182B00F2558101A252F8E0
:1046300023F000BF99461008D7481008D748100843
:10464000D7481008D7481008D7481008D74810088E
:10465000D7481008BF461008D7481008D748100898
:10466000D7481008D7481008D7481008D74810086E
:10467000D7481008C5461008D7481008D748100872
:10468000D7481008D7481008D7481008D74810084E
:10469000D7481008CB461008944B1B6803F0200342
:1046A000002B09D0914B1B68DB0803F00303904AF1
:1046B00022FA03F3BB6111E18D4BBB610EE18D4B1F
:1046C000BB610BE18C4BBB6108E1884B9B6A03F03B
:1046D00003037B61854B9B6A1B0903F03F033B612E
:1046E000824BDB6A03F00103FB60804B5B6BDB08F2
:1046F000C3F30C03FA6802FB03F307EE903AF8EEFB
:10470000677AC7ED027A3B69002B00F0E1807B6994
:10471000022B00F083807B69022B00F2A1807B6971
:10472000002B03D07B69012B56D099E06F4B1B689F
:1047300003F02003002B2DD06C4B1B68DB0803F02B
:1047400003036B4A22FA03F37B607B6807EE903A1F
:10475000F8EE676A3B6907EE903AF8EE677A86EE04
:10476000A77A624B1B6BC3F3080307EE903AF8EE8F
:10477000676A97ED026ADFED615AC6EE257A76EE3A
:10478000A77AF7EE006A77EEA67A67EE277AC7ED8A
:10479000077A87E03B6907EE903AF8EE677ADFED3B
:1047A000586A86EEA77A514B1B6BC3F3080307EEDA
:1047B000903AF8EE676A97ED026ADFED505AC6EE5E
:1047C000257A76EEA77AF7EE006A77EEA67A67EE9C
:1047D000277AC7ED077A65E03B6907EE903AF8EE75
:1047E000677ADFED486A86EEA77A404B1B6BC3F30E
:1047F000080307EE903AF8EE676A97ED026ADFED7C
:104800003F5AC6EE257A76EEA77AF7EE006A77EE83
:10481000A67A67EE277AC7ED077A43E03B6907EE91
:10482000903AF8EE677ADFED386A86EEA77A2F4B7A
:104830001B6BC3F3080307EE903AF8EE676A97ED37
:10484000026ADFED2E5AC6EE257A76EEA77AF7EEEB
:10485000006A77EEA67A67EE277AC7ED077A21E03D
:104860003B6907EE903AF8EE677ADFED266A86EE4E
:10487000A77A1E4B1B6BC3F3080307EE903AF8EEC2
:10488000676A97ED026ADFED1D5AC6EE257A76EE6D
:10489000A77AF7EE006A77EEA67A67EE277AC7ED79
:1048A000077A00BF114B1B6B5B0A03F07F030133D8
:1048B0003B603B6807EE903AB8EE677AD7ED076A3F
:1048C000C6EE877AFCEEE77A17EE903ABB6105E018
:1048D0000023BB6102E0074BBB6100BFBB69184608
:1048E0002437BD465DF8047B704700BF0044025882
:1048F0000090D00300093D0040787D010000004693
:104900000024744C0024744A20BCBE4B80B582B095
:1049100000AFFFF781FE0246114B9B691B0A03F0B3
:104920000F031049CB5C03F01F0322FA03F37B60F3
:104930000B4B9B6903F00F030A4AD35C03F01F0380
:104940007A6822FA03F3084A1360074B1B68074A88
:104950001360054B1B6818460837BD4680BD00BF75
:1049600000440258B00311081C070010180700107B
:1049700080B500AFFFF7CAFF0246064BDB691B0993
:1049800003F007030449CB5C03F01F0322FA03F38F
:10499000184680BD00440258B003110880B500AF2E
:1049A000FFF7B4FF0246064BDB691B0A03F007035F
:1049B0000449CB5C03F01F0322FA03F3184680BDC1
:1049C00000440258B00311082DE9B04FCCB000AF3D
:1049D000C7F81C01002387F82F31002387F82E31F8
:1049E000D7F81C31D3E9002302F00064002554EA13
:1049F000050349D0D7F81C31DB6EB3F5401F2FD02B
:104A0000B3F5401F28D8B3F5001F1AD0B3F5001F27
:104A100022D8002B03D0B3F5801F07D01CE0B84B81
:104A2000DB6AB74A43F40033D3621AE0D7F81C318B
:104A300008330221184601F0CFFC034687F82F31D6
:104A40000FE0D7F81C3128330221184601F076FD1B
:104A5000034687F82F3104E0012387F82F3100E067
:104A600000BF97F82F31002B0AD1A54B1B6D23F403
:104A70004011D7F81C31DB6EA14A0B43136503E0EC
:104A800097F82F3187F82E31D7F81C31D3E900235E
:104A900002F480784FF0000958EA090347D0D7F8AC
:104AA0001C31DB6D042B2AD801A252F823F000BF81
:104AB000C54A1008D34A1008E94A1008074B1008E5
:104AC000074B10088E4BDB6A8D4A43F40033D362E8
:104AD0001AE0D7F81C3108330021184601F07CFC9D
:104AE000034687F82F310FE0D7F81C312833002117
:104AF000184601F023FD034687F82F3104E0012317
:104B000087F82F3100E000BF97F82F31002B0AD132
:104B10007B4B1B6D23F00701D7F81C31DB6D784A06
:104B20000B43136503E097F82F3187F82E31D7F840
:104B30001C31D3E9002302F4007A4FF0000B5AEA4B
:104B40000B034CD0D7F81C311B6EB3F5807F30D0EF
:104B5000B3F5807F29D8C02B2DD0C02B25D8802B32
:104B600018D0802B21D8002B02D0402B07D01CE07E
:104B7000634BDB6A624A43F40033D3621CE0D7F82C
:104B80001C3108330021184601F026FC034687F843
:104B90002F3111E0D7F81C3128330021184601F0DD
:104BA000CDFC034687F82F3106E0012387F82F312B
:104BB00002E000BF00E000BF97F82F31002B0AD1C0
:104BC0004F4B1B6D23F4E071D7F81C311B6E4C4A20
:104BD0000B43136503E097F82F3187F82E31D7F890
:104BE0001C31D3E9002302F48063C7F8103100239D
:104BF000C7F81431D7E944120B46134353D0D7F802
:104C00001C31D3F8AC30B3F5000F35D0B3F5000F3D
:104C10002ED8B3F5C00F31D0B3F5C00F28D8B3F5F7
:104C2000800F1AD0B3F5800F22D8002B03D0B3F534
:104C3000001F07D01CE0324BDB6A314A43F40033DB
:104C4000D3621CE0D7F81C3108330021184601F06C
:104C5000C3FB034687F82F3111E0D7F81C31283306
:104C60000021184601F06AFC034687F82F3106E060
:104C7000012387F82F3102E000BF00E000BF97F862
:104C80002F31002B0BD11E4B9B6D23F46001D7F805
:104C90001C31D3F8AC301A4A0B43936503E097F804
:104CA0002F3187F82E31D7F81C31D3E9002302F4D5
:104CB0000063C7F808310023C7F80C31D7E9421266
:104CC0000B46134356D0D7F81C31D3F8B030B3F1AC
:104CD000806F38D0B3F1806F31D8B3F1407F34D0DA
:104CE000B3F1407F2BD8B3F1007F1DD0B3F1007F2B
:104CF00025D8002B06D0B3F1807F0AD01FE000BF7B
:104D000000440258A24BDB6AA14A43F40033D36249
:104D10001CE0D7F81C3108330021184601F05CFB79
:104D2000034687F82F3111E0D7F81C3128330021D2
:104D3000184601F003FC034687F82F3106E00123F3
:104D400087F82F3102E000BF00E000BF97F82F3155
:104D5000002B0BD18E4B9B6D23F0E061D7F81C31FB
:104D6000D3F8B0308A4A0B43936503E097F82F31AC
:104D700087F82E31D7F81C31D3E9002302F00073F5
:104D8000C7F800310023C7F80431D7E940120B46B9
:104D900013433AD0D7F81C31DB6C302B1FD0302BAB
:104DA00019D8202B0CD0202B15D8002B19D0102B64
:104DB00011D1774BDB6A764A43F40033D36211E0BA
:104DC000D7F81C3108330221184601F005FB0346D1
:104DD00087F82F3106E0012387F82F3102E000BF6A
:104DE00000E000BF97F82F31002B0AD1684BDB6C35
:104DF00023F03001D7F81C31DB6C654A0B43D364D8
:104E000003E097F82F3187F82E31D7F81C31D3E91A
:104E1000002302F48053C7F8F8300023C7F8FC30B1
:104E2000D7E93E120B46134351D0D7F81C315B6EC5
:104E3000B3F5804F35D0B3F5804F2ED8B3F5405F32
:104E400031D0B3F5405F28D8B3F5005F1AD0B3F581
:104E5000005F22D8002B03D0B3F5805F07D01CE0A1
:104E60004B4BDB6A4A4A43F40033D3621CE0D7F869
:104E70001C3108330021184601F0AEFA034687F8CA
:104E80002F3111E0D7F81C3128330021184601F0EA
:104E900055FB034687F82F3106E0012387F82F31B1
:104EA00002E000BF00E000BF97F82F31002B0AD1CD
:104EB000374B1B6D23F4E041D7F81C315B6E344A4D
:104EC0000B43136503E097F82F3187F82E31D7F89D
:104ED0001C31D3E9002302F40053C7F8F03000235B
:104EE000C7F8F430D7E93C120B46134356D0D7F835
:104EF0001C319B6EB3F5A02F33D0B3F5A02F2CD867
:104F0000B3F5802F2FD0B3F5802F26D8B3F5403FCF
:104F10002BD0B3F5403F20D8B3F5003F12D0B3F506
:104F2000003F1AD8002B22D0B3F5803F15D1D7F817
:104F30001C3108330121184601F04EFA034687F868
:104F40002F3115E0D7F81C3128330121184601F024
:104F5000F5FA034687F82F310AE0012387F82F314D
:104F600006E000BF04E000BF02E000BF00E000BFB9
:104F700097F82F31002B0DD1054B1B6D23F4E02149
:104F8000D7F81C319B6E024A0B43136506E000BF45
:104F90000044025897F82F3187F82E31D7F81C318A
:104FA000D3E9002302F48043C7F8E8300023C7F8B0
:104FB000EC30D7E93A120B46134355D0D7F81C31E1
:104FC000D3F8B430B3F1A04F33D0B3F1A04F2CD805
:104FD000B3F1804F2FD0B3F1804F26D8B3F1405FAB
:104FE0002BD0B3F1405F20D8B3F1005F12D0B3F102
:104FF000005F1AD8002B22D0B3F1805F15D1D7F80B
:105000001C3108330121184601F0E6F9034687F800
:105010002F3115E0D7F81C3128330121184601F053
:105020008DFA034687F82F310AE0012387F82F31E4
:1050300006E000BF04E000BF02E000BF00E000BFE8
:1050400097F82F31002B0BD1B74B9B6D23F0E0412C
:10505000D7F81C31D3F8B430B34A0B43936503E05F
:1050600097F82F3187F82E31D7F81C31D3E9002378
:1050700002F08063C7F8E0300023C7F8E430D7E9D6
:1050800038120B4613432AD0D7F81C311B6D002B66
:1050900011D0B3F5807F0AD1D7F81C310833012134
:1050A000184601F099F9034687F82F3104E00123EF
:1050B00087F82F3100E000BF97F82F31002B0AD17D
:1050C000994BDB6C23F48071D7F81C311B6D964A29
:1050D0000B43D36403E097F82F3187F82E31D7F8CC
:1050E0001C31D3E9002302F40043C7F8D830002371
:1050F000C7F8DC30D7E936120B46134337D0D7F860
:105100001C315B6FB3F1005F0ED0B3F1005F16D8B6
:10511000002B18D0B3F1805F11D1834BDB6A824A38
:1051200043F40033D3620FE0D7F81C310833012178
:10513000184601F051F9034687F82F3104E00123A6
:1051400087F82F3100E000BF97F82F31002B0AD1EC
:10515000754B1B6D23F04051D7F81C315B6F724AC1
:105160000B43136503E097F82F3187F82E31D7F8FA
:105170001C31D3E9002302F08073C7F8D03000233C
:10518000C7F8D430D7E934120B4613433AD0D7F8D6
:105190001C319B6C032B1DD801A252F823F000BFD9
:1051A000DD511008B1511008BF511008DD51100831
:1051B0005D4BDB6A5C4A43F40033D3620FE0D7F8FF
:1051C0001C3108330221184601F006F9034687F81E
:1051D0002F3104E0012387F82F3100E000BF97F85A
:1051E0002F31002B0AD1504BDB6C23F00301D7F891
:1051F0001C319B6C4C4A0B43D36403E097F82F316E
:1052000087F82E31D7F81C31D3E9002302F480034C
:10521000C7F8C8300023C7F8CC30D7E932120B46A4
:10522000134300F0A080414B1B68404A43F4807355
:105230001360FDF7B5F9C7F828010BE0FDF7B0F9E9
:105240000246D7F82831D31A642B03D9032387F8F1
:105250002F3105E0354B1B6803F48073002BEDD034
:1052600097F82F31002B7AD12F4B1A6FD7F81C31BA
:10527000D3F8B830534003F44073002B15D02A4BB9
:105280001B6F23F44073C7F82431274B1B6F264A4A
:1052900043F480331367244B1B6F234A23F480337A
:1052A0001367214AD7F824311367D7F81C31D3F894
:1052B000B830B3F5807F18D1FDF772F9C7F828012F
:1052C0000DE0FDF76DF90246D7F82831D21A41F208
:1052D00088339A4203D9032387F82F3105E0124B14
:1052E0001B6F03F00203002BEBD097F82F31002B3C
:1052F00030D1D7F81C31D3F8B83003F44073B3F58C
:10530000407F15D1084B1B6923F47C51D7F81C3121
:10531000D3F8B8301B0923F07F4323F03003024A4F
:105320000B4313610AE000BF0044025800480258D2
:10533000D44B1B69D34A23F47C531361D14B196FAF
:10534000D7F81C31D3F8B830C3F30B03CD4A0B4365
:10535000136708E097F82F3187F82E3103E097F8AC
:105360002F3187F82E31D7F81C31D3E9002302F012
:105370000103C7F8C0300023C7F8C430D7E93012A2
:105380000B46134300F08B80D7F81C31D3F88030E4
:10539000282B6BD801A252F823F000BF75541008D7
:1053A0006D5410086D5410086D5410086D54100899
:1053B0006D5410086D5410086D54100841541008B5
:1053C0006D5410086D5410086D5410086D54100879
:1053D0006D5410086D5410086D541008575410087F
:1053E0006D5410086D5410086D5410086D54100859
:1053F0006D5410086D5410086D5410087554100841
:105400006D5410086D5410086D5410086D54100838
:105410006D5410086D5410086D5410087554100820
:105420006D5410086D5410086D5410086D54100818
:105430006D5410086D5410086D5410087554100800
:10544000D7F81C3108330121184600F0C5FF034688
:1054500087F82F310FE0D7F81C3128330121184687
:1054600001F06CF8034687F82F3104E0012387F838
:105470002F3100E000BF97F82F31002B0BD1814B6B
:105480005B6D23F03801D7F81C31D3F880307D4AAA
:105490000B43536503E097F82F3187F82E31D7F887
:1054A0001C31D3E9002302F00203C7F8B83000230F
:1054B000C7F8BC30D7E92E120B46134342D0D7F8B9
:1054C0001C31DB6F052B25D801A252F823F000BF59
:1054D0001D551008E9541008FF5410081D551008F8
:1054E0001D5510081D551008D7F81C31083301212F
:1054F000184600F071FF034687F82F310FE0D7F808
:105500001C3128330121184601F018F8034687F8AA
:105510002F3104E0012387F82F3100E000BF97F816
:105520002F31002B0AD1574B5B6D23F00701D7F8C1
:105530001C31DB6F534A0B43536503E097F82F315F
:1055400087F82E31D7F81C31D3E9002302F0040389
:10555000C7F8B0300023C7F8B430D7E92C120B4697
:10556000134344D0D7F81C31D3F89830052B25D8F5
:1055700001A252F823F000BFC5551008915510083C
:10558000A7551008C5551008C5551008C555100871
:10559000D7F81C3108330121184600F01DFF0346DF
:1055A00087F82F310FE0D7F81C3128330121184636
:1055B00000F0C4FF034687F82F3104E0012387F889
:1055C0002F3100E000BF97F82F31002B0BD12D4B6E
:1055D0009B6D23F00701D7F81C31D3F89830294A86
:1055E0000B43936503E097F82F3187F82E31D7F8F6
:1055F0001C31D3E9002302F02003C7F8A8300023B0
:10560000C7F8AC30D7E92A120B46134357D0D7F866
:105610001C31D3F89430B3F1A04F35D0B3F1A04F83
:105620002CD8B3F1804F31D0B3F1804F26D8B3F1ED
:10563000405F2DD0B3F1405F20D8B3F1005F12D0AE
:10564000B3F1005F1AD8002B24D0B3F1805F15D1DD
:10565000D7F81C3108330021184600F0BDFE034680
:1056600087F82F3117E0D7F81C312833022118466C
:1056700000F064FF034687F82F310CE0012387F820
:105680002F3108E00044025800BF04E000BF02E0F0
:1056900000BF00E000BF97F82F31002B0BD1C24BA9
:1056A0005B6D23F0E041D7F81C31D3F89430BE4A4B
:1056B0000B43536503E097F82F3187F82E31D7F865
:1056C0001C31D3E9002302F04003C7F8A0300023C7
:1056D000C7F8A430D7E928120B46134355D0D7F8A2
:1056E0001C31D3F8A030B3F5A05F33D0B3F5A05F81
:1056F0002CD8B3F5805F2FD0B3F5805F26D8B3F5F3
:10570000406F2BD0B3F5406F20D8B3F5006F12D0A7
:10571000B3F5006F1AD8002B22D0B3F5806F15D1E6
:10572000D7F81C3108330021184600F055FE034617
:1057300087F82F3115E0D7F81C312833022118469D
:1057400000F0FCFE034687F82F310AE0012387F8BA
:105750002F3106E000BF04E000BF02E000BF00E020
:1057600000BF97F82F31002B0BD18F4B9B6D23F48B
:10577000E051D7F81C31D3F8A0308B4A0B43936526
:1057800003E097F82F3187F82E31D7F81C31D3E991
:10579000002302F08003C7F898300023C7F89C303C
:1057A000D7E926120B46134355D0D7F81C31D3F84E
:1057B000A430B3F5204F33D0B3F5204F2CD8B3F538
:1057C000004F2FD0B3F5004F26D8B3F5C04F2BD0E4
:1057D000B3F5C04F20D8B3F5804F12D0B3F5804F4A
:1057E0001AD8002B22D0B3F5005F15D1D7F81C31A1
:1057F00008330021184600F0EFFD034687F82F31EB
:1058000015E0D7F81C3128330221184600F096FE27
:10581000034687F82F310AE0012387F82F3106E08D
:1058200000BF04E000BF02E000BF00E000BF97F847
:105830002F31002B0BD15C4B9B6D23F46041D7F8CB
:105840001C31D3F8A430584A0B43936503E097F812
:105850002F3187F82E31D7F81C31D3E9002302F01D
:105860000803C7F890300023C7F89430D7E9241212
:105870000B4613431ED0D7F81C31D3F88830B3F54C
:10588000805F0CD1D7F81C3128330221184600F074
:1058900055FE0346002B02D0012387F82E31424BE0
:1058A0005B6D23F44051D7F81C31D3F888303E4A61
:1058B0000B435365D7F81C31D3E9002302F01003E2
:1058C000C7F888300023C7F88C30D7E922120B467E
:1058D00013431ED0D7F81C31D3F89C30B3F5807F2A
:1058E0000CD1D7F81C3128330221184600F026FECF
:1058F0000346002B02D0012387F82E312A4B9B6DE3
:1059000023F44071D7F81C31D3F89C30264A0B435E
:105910009365D7F81C31D3E9002302F40023C7F8BC
:1059200080300023C7F88430D7E920120B46134398
:1059300040D0D7F81C31D3F8A830B3F5003F22D0BF
:10594000B3F5003F1BD8002B03D0B3F5803F0BD03D
:1059500015E0D7F81C3108330021184600F03CFD53
:10596000034687F82F310FE0D7F81C312833022186
:10597000184600F0E3FD034687F82F3104E00123C9
:1059800087F82F3100E000BF97F82F31002B0DD1A1
:10599000054B9B6D23F44031D7F81C31D3F8A83068
:1059A000014A0B43936505E00044025897F82F31F4
:1059B00087F82E31D7F81C31D3E9002302F4802375
:1059C000BB670023FB67D7E91E120B4613433BD08E
:1059D000D7F81C31D3F88C30B3F5401F1FD0B3F586
:1059E000401F18D8B3F5801F03D0B3F5001F07D0B0
:1059F00011E0644BDB6A634A43F40033D3620FE087
:105A0000D7F81C3128330121184600F097FD0346D2
:105A100087F82F3104E0012387F82F3100E000BF21
:105A200097F82F31002B0BD1564B5B6D23F44011AF
:105A3000D7F81C31D3F88C30524A0B43536503E03E
:105A400097F82F3187F82E31D7F81C31D3E900238E
:105A500002F480333B6700237B67D7E91C120B46B7
:105A6000134331D0D7F81C315B6D002B03D0B3F555
:105A7000803F07D011E0434BDB6A424A43F40033D6
:105A8000D3620EE0D7F81C3108330221184600F02B
:105A9000A3FC034687F82F3103E0012387F82F3159
:105AA00000BF97F82F31002B0AD1364BDB6C23F463
:105AB0008031D7F81C315B6D324A0B43D36403E06D
:105AC00097F82F3187F82E31D7F81C31D3E900230E
:105AD00002F00053BB660023FB66D7E91A120B469F
