:020000040810E2
:1000000000800410B9041008590410086104100895
:100010006904100871041008790410080000000039
:100020000000000000000000000000008104100833
:100030008F041008000000009D041008AB04100895
:100040000905100809051008090510080905100818
:100050000905100809051008090510080905100808
:1000600009051008090510080905100809051008F8
:1000700009051008090510080905100809051008E8
:1000800009051008090510080905100809051008D8
:1000900009051008090510080905100809051008C8
:1000A00009051008090510080905100809051008B8
:1000B00009051008090510080905100809051008A8
:1000C0000905100809051008090510080905100898
:1000D0000905100809051008090510080905100888
:1000E000090510080905100800000000090510089E
:1000F0000905100809051008090510080905100868
:100100000905100809051008090510080905100857
:100110000905100809051008090510080905100847
:100120000905100809051008090510080905100837
:100130000905100809051008090510080905100827
:100140000905100809051008000000000000000063
:100150000905100809051008090510080905100807
:1001600009051008090510080905100809051008F7
:10017000090510080905100809051008000000000D
:1001800009051008090510080905100809051008D7
:1001900009051008090510080905100809051008C7
:1001A00009051008090510080905100809051008B7
:1001B00009051008090510080905100809051008A7
:1001C0000905100809051008090510080905100897
:1001D0000905100809051008090510080905100887
:1001E0000905100809051008090510080905100877
:1001F0000905100809051008090510080905100867
:100200000905100809051008090510080905100856
:100210000905100809051008090510080905100846
:100220000905100809051008090510080905100836
:100230000905100809051008090510080905100826
:100240000905100809051008090510080905100816
:100250000905100809051008090510080905100806
:1002600009051008090510080905100809051008F6
:1002700009051008090510080905100809051008E6
:1002800009051008090510080905100800000000FC
:0802900009051008090510081A
:1002980010B5054C237833B9044B13B10448AFF3B8
:1002A80000800123237010BD100000100000000022
:1002B8007411100808B5034B1BB103490348AFF389
:1002C800008008BD00000000140000107411100820
:1002D80080B582B000AF254BD3F8E030234A43F015
:1002E8000073C2F8E030214BD3F8E03003F000731C
:1002F8007B607B68012000F001FD00F08BFD01228E
:100308000221002000F00CFD194B1B6803F0F003DC
:10031800702B08D1174BD3F80431164A43F0010368
:10032800C2F8043107E0134BD3F81431114A43F0F3
:100338000103C2F8143100F001F900F01FF800F0D1
:1003480037F8002000F0ACFC4FF480510A4800F068
:100358008CFCC82000F0A6F90021002000F0BAFCAF
:10036800C82000F09FF900BFEBE700BF0044025827
:1003780000ED00E0006402580020025880B483B009
:1003880000AF0A4BD3F8D430084A43F00103C2F84F
:10039800D430064BD3F8D43003F001037B607B687C
:1003A80000BF0C37BD465DF8047B70470044025817
:1003B80080B586B000AF3B1D00221A605A609A6073
:1003C800DA601A61134BD3F8E030124A43F48073B1
:1003D800C2F8E0300F4BD3F8E03003F480733B6091
:1003E8003B6800224FF480510B4800F025FC4FF485
:1003F80080537B600123BB600023FB6000233B61CB
:100408003B1D1946044800F067FA00BF1837BD467F
:1004180080BD00BF004402580020025880B483B059
:1004280000AF0A4BD3F8F430084A43F00203C2F88D
:10043800F430064BD3F8F43003F002037B607B689A
:1004480000BF0C37BD465DF8047B70470044025876
:1004580080B400AF00BFFDE780B400AF00BFFDE788
:1004680080B400AF00BFFDE780B400AF00BFFDE778
:1004780080B400AF00BFFDE780B400AF00BFBD4649
:100488005DF8047B704780B400AF00BFBD465DF8DF
:10049800047B704780B400AF00BFBD465DF8047BA5
:1004A800704780B500AF00F0DDF800BF80BD0000E8
:1004B800DFF834D000F026F80C480D490D4A002327
:1004C80002E0D458C4500433C4188C42F9D30A4A01
:1004D8000A4C002301E013600432A242FBD300F06F
:1004E80021FEFFF7F5FE70470080041000000010A1
:1004F80010000010A41110081000001030000010A7
:10050800FEE7000080B400AF0B4BD3F888300A4AEE
:1005180043F47003C2F88830074B1B69064A43F05E
:1005280010031361044B4FF001629A6000BFBD468F
:100538005DF8047B704700BF00ED00E080B582B035
:1005480000AF284BD3F8D830264A43F48043C2F88A
:10055800D830244BD3F8D83003F480433B603B6851
:10056800214B1B6823F47F2323F470631E4A43F452
:10057800014313601C4B1B681B4A43F001031360C3
:10058800032000F065F900F053FC0246154B9B6907
:100598001B0A03F00F031549CB5C03F01F0322FA73
:1005A80003F37B600F4B9B6903F00F030F4AD35C87
:1005B80003F01F037A6822FA03F30D4A13600C4B09
:1005C8001B680C4A1360002000F016F80346002B45
:1005D80001D0012302E0FFF721FF00231846083766
:1005E800BD4680BD00440258004402408C111008EA
:1005F800040000100000001080B582B000AF7860E1
:10060800154B1B78002B01D1012321E0134B1A68ED
:10061800114B1B7819464FF47A73B3FBF1F3B2FB15
:10062800F3F3184600F039F90346002B01D00123F3
:100638000EE07B680F2B0AD8002279684FF0FF3054
:1006480000F011F9064A7B681360002300E00123DB
:1006580018460837BD4680BD0C0000100000001089
:100668000800001080B400AF064B1B781A46064BF2
:100678001B681344044A136000BFBD465DF8047B41
:10068800704700BF0C0000102C00001080B400AFB1
:10069800034B1B681846BD465DF8047B704700BFD6
:1006A8002C00001080B584B000AF7860FFF7EEFF33
:1006B800B8607B68FB60FB68B3F1FF3F05D00A4B6D
:1006C8001B781A46FB681344FB6000BFFFF7DEFF88
:1006D8000246BB68D31AFA689A42F7D800BF00BF2F
:1006E8001037BD4680BD00BF0C00001080B485B037
:1006F80000AF78607B6803F00703FB600C4BDB6896
:10070800BB60BA684FF6FF031340BB60FB681A0270
:10071800BB68134343F0BF6343F40033BB60044A30
:10072800BB68D36000BF1437BD465DF8047B7047D3
:1007380000ED00E080B400AF044BDB681B0A03F057
:1007480007031846BD465DF8047B704700ED00E0DE
:1007580080B483B000AF03463960FB80B7F9063038
:10076800002B0ADB3B68DAB20C49B7F906301201F4
:10077800D2B20B4483F800230AE03B68DAB2084996
:10078800FB8803F00F03043B1201D2B20B441A7624
:1007980000BF0C37BD465DF8047B704700E100E000
:1007A80000ED00E080B489B000AFF860B9607A600D
:1007B800FB6803F00703FB61FB69C3F10703042B24
:1007C80028BF0423BB61FB690433062B02D9FB69EC
:1007D800033B00E000237B614FF0FF32BB6902FA64
:1007E80003F3DA43BB681A407B699A404FF0FF3144
:1007F8007B6901FA03F3D9437B680B40134318461E
:100808002437BD465DF8047B7047000080B582B090
:1008180000AF78607B68013BB3F1807F01D301238F
:100828000FE00A4A7B68013B53600F214FF0FF300D
:10083800FFF78EFF054B00229A60044B07221A60CF
:10084800002318460837BD4680BD00BF10E000E011
:1008580080B582B000AF78607868FFF747FF00BFC7
:100868000837BD4680BD80B586B000AF0346B96085
:100878007A60FB81FFF75EFF78617A68B96878690A
:10088800FFF790FF0246B7F90E3011461846FFF7FA
:100898005FFF00BF1837BD4680BD80B582B000AF8E
:1008A80078607868FFF7B2FF034618460837BD46F8
:1008B80080BD000080B400AF064B1B6803F0F00356
:1008C800702B01D1032300E001231846BD465DF8D3
:1008D800047B704700ED00E080B489B000AF786019
:1008E80039600023FB61894B7B6194E13B681A689E
:1008F8000121FB6901FA03F313403B613B69002BBB
:1009080000F086813B685B6803F00303012B05D088
:100918003B685B6803F00303022B30D17B689B685C
:10092800BB61FB695B00032202FA03F3DB43BA698C
:100938001340BB613B68DA68FB695B0002FA03F3AA
:10094800BA691343BB617B68BA699A607B685B6864
:10095800BB610122FB6902FA03F3DB43BA69134066
:10096800BB613B685B681B0903F00102FB6902FA83
:1009780003F3BA691343BB617B68BA695A603B6881
:100988005B6803F00303032B17D07B68DB68BB614C
:10099800FB695B00032202FA03F3DB43BA691340E5
:1009A800BB613B689A68FB695B0002FA03F3BA69AA
:1009B8001343BB617B68BA69DA603B685B6803F024
:1009C8000303022B23D1FB69DA087B68083253F84A
:1009D8002230BB61FB6903F007039B000F2202FA78
:1009E80003F3DB43BA691340BB613B681A69FB69CF
:1009F80003F007039B0002FA03F3BA691343BB61D0
:100A0800FB69DA087B680832B96943F822107B6809
:100A18001B68BB61FB695B00032202FA03F3DB433B
:100A2800BA691340BB613B685B6803F00302FB696A
:100A38005B0002FA03F3BA691343BB617B68BA69C6
:100A48001A603B685B6803F44033002B00F0E080D9
:100A58002F4BD3F8F4302E4A43F00203C2F8F43097
:100A68002B4BD3F8F43003F00203FB60FB68294AF0
:100A7800FB699B08023352F82330BB61FB6903F022
:100A880003039B000F2202FA03F3DB43BA69134006
:100A9800BB617B68204A934252D07B681F4A9342CD
:100AA80031D07B681E4A93422BD07B681D4A934203
:100AB80025D07B681C4A93421FD07B681B4A93420F
:100AC80019D07B681A4A934213D07B68194A93421B
:100AD8000DD07B68184A934207D07B68174A934227
:100AE80001D109232DE00A232BE0082329E007235D
:100AF80027E0062325E0052323E0042321E0032340
:100B08001FE002231DE001231BE000BFC0000058C6
:100B1800004402580004005800000258000402581B
:100B280000080258000C025800100258001402581D
:100B380000180258001C02580020025800240258CD
:100B48000023FA6902F0030292009340BA69134342
:100B5800BB613849FB699B080233BA6941F8232015
:100B68004FF0B0431B68BB613B69DB43BA69134074
:100B7800BB613B685B6803F48013002B03D0BA6940
:100B88003B691343BB614FF0B042BB6913604FF040
:100B9800B0435B68BB613B69DB43BA691340BB6127
:100BA8003B685B6803F40013002B03D0BA693B6908
:100BB8001343BB614FF0B042BB6953607B695B680C
:100BC800BB613B69DB43BA691340BB613B685B6847
:100BD80003F40033002B03D0BA693B691343BB61AC
:100BE8007B69BA695A607B691B68BB613B69DB43F7
:100BF800BA691340BB613B685B6803F48033002B20
:100C080003D0BA693B691343BB617B69BA691A604F
:100C1800FB690133FB613B681A68FB6922FA03F33D
:100C2800002B7FF463AE00BF00BF2437BD465DF8DC
:100C3800047B70470004005880B483B000AF78602C
:100C48000B467B8013467B707B78002B03D07A8819
:100C58007B689A6103E07B881A047B689A6100BF0D
:100C68000C37BD465DF8047B704780B485B000AF93
:100C780078600B467B807B685B69FB607A88FB68E1
:100C880013401A04FB68D9437B880B401A437B68DE
:100C98009A6100BF1437BD465DF8047B70470000B9
:100CA80080B483B000AF7860084A7B68203352F87C
:100CB8002330074A934201D1002300E0012318465C
:100CC8000C37BD465DF8047B704700BF00640258CE
:100CD8000001008080B483B000AF786039600649B5
:100CE8003B6843F480727B6841F8232000BF0C37CF
:100CF800BD465DF8047B70470064025880B483B039
:100D080000AF7860054B1A6804497B6813430B6091
:100D180000BF0C37BD465DF8047B7047106502586C
:100D280080B584B000AFF8600B467A60FB72374B31
:100D38001B6823F001023549FB6813430B607B688D
:100D4800002B23D1FFF7B6FD0346032B58D12F4BB9
:100D58001B692E4A23F0010313612D4B1B692C4A92
:100D680043F004031361BFF34F8F00BFBFF36F8FCE
:100D780000BFFB7A012B01D130BF00E020BF244B1C
:100D88001B69234A23F0040313613CE07B68012BB1
:100D980023D1FFF78FFD0346012B33D11B4B5B6932
:100DA8001A4A23F002035361194B1B69184A43F08E
:100DB80004031361BFF34F8F00BFBFF36F8F00BFF2
:100DC800FB7A012B01D130BF00E020BF104B1B691B
:100DD8000F4A23F00403136115E0FFF76BFD034688
:100DE800032B06D1094B1B69084A23F0040313613E
:100DF80009E0064B5B69054A23F00403536102E0EE
:100E080000BF00E000BF1037BD4680BD0048025853
:100E180000ED00E080B500AFFFF74CFD0346032B63
:100E280001D120BF01E040BF20BF00BF80BD00004E
:100E380080B489B000AFB34B1B6903F03803182B9B
:100E480000F2558101A252F823F000BFB90E100834
:100E5800F7101008F7101008F7101008F71010080E
:100E6800F7101008F7101008F7101008DF0E100818
:100E7800F7101008F7101008F7101008F7101008EE
:100E8800F7101008F7101008F7101008E50E1008F2
:100E9800F7101008F7101008F7101008F7101008CE
:100EA800F7101008F7101008F7101008EB0E1008CC
:100EB800944B1B6803F02003002B09D0914B1B684F
:100EC800DB0803F00303904A22FA03F3BB6111E144
:100ED8008D4BBB610EE18D4BBB610BE18C4BBB6154
:100EE80008E1884B9B6A03F003037B61854B9B6A8F
:100EF8001B0903F03F033B61824BDB6A03F00103EC
:100F0800FB60804B5B6BDB08C3F30C03FA6802FBE6
:100F180003F307EE903AF8EE677AC7ED027A3B6979
:100F2800002B00F0E1807B69022B00F083807B6955
:100F3800022B00F2A1807B69002B03D07B69012B77
:100F480056D099E06F4B1B6803F02003002B2DD07F
:100F58006C4B1B68DB0803F003036B4A22FA03F3AC
:100F68007B607B6807EE903AF8EE676A3B6907EEAC
:100F7800903AF8EE677A86EEA77A624B1B6BC3F35A
:100F8800080307EE903AF8EE676A97ED026ADFED1C
:100F9800615AC6EE257A76EEA77AF7EE006A77EE02
:100FA800A67A67EE277AC7ED077A87E03B6907EEEE
:100FB800903AF8EE677ADFED586A86EEA77A514BD9
:100FC8001B6BC3F3080307EE903AF8EE676A97EDD8
:100FD800026ADFED505AC6EE257A76EEA77AF7EE6A
:100FE800006A77EEA67A67EE277AC7ED077A65E09A
:100FF8003B6907EE903AF8EE677ADFED486A86EECD
:10100800A77A404B1B6BC3F3080307EE903AF8EE40
:10101800676A97ED026ADFED3F5AC6EE257A76EEEB
:10102800A77AF7EE006A77EEA67A67EE277AC7ED19
:10103800077A43E03B6907EE903AF8EE677ADFED0E
:10104800386A86EEA77A2F4B1B6BC3F3080307EEAB
:10105800903AF8EE676A97ED026ADFED2E5AC6EE0F
:10106800257A76EEA77AF7EE006A77EEA67A67EE2B
:10107800277AC7ED077A21E03B6907EE903AF8EE48
:10108800677ADFED266A86EEA77A1E4B1B6BC3F3E1
:10109800080307EE903AF8EE676A97ED026ADFED0B
:1010A8001D5AC6EE257A76EEA77AF7EE006A77EE35
:1010B800A67A67EE277AC7ED077A00BF114B1B6B3C
:1010C8005B0A03F07F0301333B603B6807EE903A0D
:1010D800B8EE677AD7ED076AC6EE877AFCEEE77A4C
:1010E80017EE903ABB6105E00023BB6102E0074BB5
:1010F800BB6100BFBB6918462437BD465DF8047B59
:10110800704700BF004402580090D00300093D001A
:1011180040787D01000000460024744C0024744A85
:1011280020BCBE4B70B50D4D0D4C641BA4100026A1
:10113800A64209D10B4D0C4C00F018F8641BA41002
:101148000026A64205D170BD55F8043B98470136E4
:10115800EEE755F8043B98470136F2E79C11100872
:101168009C1110089C111008A0111008F8B500BFB8
:10117800F8BC08BC9E467047F8B500BFF8BC08BC70
:041188009E467047C8
:10118C000000000001020304010203040607080921
:04119C00BD02100878
:0411A0009902100898
:1011A4000090D0030090D003100000000100000064
:04000005081004B922
:00000001FF
