:020000040800F2
:100000000000082415170008011600080316000850
:100010000516000807160008091600080000000071
:1000200000000000000000000000000071BA00089D
:100030000B1600080000000001BB0008B9B2000860
:1000400065170008651700086517000865170008A0
:100050006517000865170008651700086517000890
:100060006517000865170008651700086517000880
:100070006517000865170008651700086517000870
:100080006517000865170008651700086517000860
:100090006517000865170008651700086517000850
:1000A0006517000865170008651700086517000840
:1000B0006517000865170008651700086517000830
:1000C0006517000865170008651700086517000820
:1000D0006517000865170008651700086517000810
:1000E0006517000865170008000000006517000884
:1000F00065170008651700086517000865170008F0
:1001000065170008651700086517000865170008DF
:1001100065170008651700080D1600086517000828
:1001200065170008651700086517000865170008BF
:1001300065170008651700086517000865170008AF
:1001400065170008651700080000000000000000A7
:10015000651700086517000865170008651700088F
:10016000651700086517000865170008651700087F
:1001700065170008651700086517000800000000F3
:10018000651700086517000865170008651700085F
:10019000651700086517000865170008651700084F
:1001A00019160008651700082516000865170008CD
:1001B000651700086517000865170008651700082F
:1001C000651700086517000865170008651700081F
:1001D000651700086517000865170008651700080F
:1001E00065170008651700086517000865170008FF
:1001F00065170008651700086517000865170008EF
:1002000065170008651700086517000865170008DE
:1002100065170008651700086517000865170008CE
:1002200065170008311600083D1600085916000829
:1002300065170008651700086517000865170008AE
:10024000651700086517000865170008651700089E
:10025000651700086517000865170008651700088E
:10026000651700086517000865170008651700087E
:10027000651700086517000865170008651700086E
:1002800065170008651700086517000800000000E2
:0802900065170008651700085E
:1002A00010B5054C237833B9044B13B10448AFF3B0
:1002B00000800123237010BD40990024000000003D
:1002C0005431020808B5034B1BB103490348AFF38F
:1002D000008008BD00000000449900245431020849
:1002E00001F0FF01102A2BDB10F0070F08D010F8E7
:1002F000013B013A8B422DD010F0070F42B3F6D1EB
:10030000F0B441EA012141EA014122F007047FF003
:1003100000070023F0E80256083C85EA010586EA5A
:10032000010685FA47F5A3FA87F586FA47F6A5FA96
:1003300087F68EB9EED1F0BC01F0FF0102F00702A2
:1003400032B110F8013B013A83EA010313B1F8D14D
:100350000020704701387047002D06BF354603382E
:10036000073815F0010F07D1013015F4807F02BF67
:10037000013015F4C03F0130F0BC0138704700BFB8
:1003800081F0004102E000BF83F0004330B54FEA46
:1003900041044FEA430594EA050F08BF90EA020FB3
:1003A0001FBF54EA000C55EA020C7FEA645C7FEA46
:1003B000655C00F0E2804FEA5454D4EB5555B8BF69
:1003C0006D420CDD2C4480EA020281EA030382EADA
:1003D000000083EA010180EA020281EA0303362D6C
:1003E00088BF30BD11F0004F4FEA01314FF4801C3F
:1003F0004CEA113102D0404261EB410113F0004F51
:100400004FEA03334CEA133302D0524263EB430307
:1004100094EA050F00F0A780A4F10104D5F1200EA5
:100420000DDB02FA0EFC22FA05F2801841F1000100
:1004300003FA0EF2801843FA05F359410EE0A5F1D4
:1004400020050EF1200E012A03FA0EFC28BF4CF005
:10045000020C43FA05F3C01851EBE37101F00045BB
:1004600007D54FF0000EDCF1000C7EEB00006EEBC8
:100470000101B1F5801F1BD3B1F5001F0CD3490852
:100480005FEA30004FEA3C0C04F101044FEA4452A9
:1004900012F5800F80F09A80BCF1004F08BF5FEA30
:1004A000500C50F1000041EB045141EA050130BD10
:1004B0005FEA4C0C404141EB0101013C28BFB1F522
:1004C000801FE9D291F0000F04BF01460020B1FA6D
:1004D00081F308BF2033A3F10B03B3F120020CDA40
:1004E0000C3208DD02F1140CC2F10C0201FA0CF01E
:1004F00021FA02F10CE002F11402D8BFC2F1200C83
:1005000001FA02F120FA0CFCDCBF41EA0C01904038
:10051000E41AA2BF01EB0451294330BD6FEA040481
:100520001F3C1CDA0C340EDC04F11404C4F120026C
:1005300020FA04F001FA02F340EA030021FA04F37E
:1005400045EA030130BDC4F10C04C4F1200220FAD5
:1005500002F001FA04F340EA0300294630BD21FA13
:1005600004F0294630BD94F0000F83F4801306BFD9
:1005700081F480110134013D4EE77FEA645C18BFCD
:100580007FEA655C29D094EA050F08BF90EA020F64
:1005900005D054EA000C04BF1946104630BD91EA5C
:1005A000030F1EBF0021002030BD5FEA545C05D15F
:1005B0004000494128BF41F0004130BD14F580049E
:1005C0003CBF01F5801130BD01F0004545F0FE4112
:1005D00041F470014FF0000030BD7FEA645C1ABF47
:1005E000194610467FEA655C1CBF0B46024650EA7E
:1005F000013406BF52EA033591EA030F41F40021AA
:1006000030BD00BF90F0000F04BF0021704730B52F
:100610004FF4806404F132044FF000054FF0000104
:1006200050E700BF90F0000F04BF0021704730B5C5
:100630004FF4806404F1320410F0004548BF40429A
:100640004FF000013EE700BF42004FEAE2014FEAEF
:1006500031014FEA02701FBF12F07F4393F07F4FCA
:1006600081F06051704732F07F4208BF704793F0CD
:100670007F4F04BF41F40021704730B54FF46074E0
:1006800001F0004521F000411CE700BF50EA0102E3
:1006900008BF704730B54FF000050AE050EA01028C
:1006A00008BF704730B511F0004502D5404261EBFC
:1006B00041014FF4806404F132045FEA915C3FF43D
:1006C000D8AE4FF003025FEADC0C18BF03325FEADA
:1006D000DC0C18BF033202EBDC02C2F1200300FA8B
:1006E00003FC20FA02F001FA03FE40EA0E0021FAB0
:1006F00002F11444BDE600BF014900200CF058BBD4
:1007000045200008F0B59DB04C22002109A821F039
:100710002FFF2022002101A821F02AFF042008F049
:1007200007FD00230093264BDA6A22F00102DA6209
:10073000DB6A03F001030093224B9A6942F44042C2
:100740009A619A6902F440420092009A9A6991046F
:10075000FCD54FF4A02303274025052202240826B8
:1007600009A81894CDE909730123CDE90C35A0231C
:10077000CDE914230023CDE91244CDE91644CDE997
:1007800019631B9308F0CEFF08B172B6FEE73F2352
:100790002146CDE901374FF48063CDE9030601A876
:1007A000CDE90555CDE9073509F054FB014608B1FF
:1007B00072B6FEE74FF4802209F05CFA1DB0F0BD7E
:1007C00000040058004802582DE9F047BAB0102242
:1007D000002101242DA8042521F0CAFE05F0B0FE59
:1007E0004FF01041BE4B2DA8ADF8B4403094CDE988
:1007F0002E1305F0C3FE1A232DA88DF8B5408DF8F1
:10080000BC3005F0BBFE02232DA88DF8C2408DF848
:10081000B5304FF050432E9318238DF8BC3005F0BF
:10082000ADFE03232DA88DF8B5304FF010532E9355
:1008300012238DF8BC3000238DF8C03005F09EFEE9
:100840004FF080532DA88DF8B5502E9311238DF8BD
:10085000BC3005F093FE05232DA88DF8C0408DF81F
:10086000B530A04B2E930E238DF8BC3005F086FEDC
:10087000284605F073FE9C4B5A6912F4003211D1E0
:10088000BFF34F8FBFF36F8FC3F85022BFF34F8F6B
:10089000BFF36F8F5A6942F400325A61BFF34F8F32
:1008A000BFF36F8F904A536913F4803323D1C2F89A
:1008B0008430BFF34F8FD2F8803043F6E074C3F337
:1008C000C900C3F34E335B0103EA0406014646EA5E
:1008D00081750139C2F86052F9D2203B13F1200F23
:1008E000F2D1BFF34F8F536943F480335361BFF3A9
:1008F0004F8FBFF36F8F4FF6FF737C4D2C6814F44E
:10090000004400F0E382013BF8D272B6FEE772B613
:10091000FEE77748774A83610462C0E90026C0E9B0
:100920000253C0E9045308F01FFD08B172B6FEE798
:1009300040F203132DA98DF8B640ADF8B43005F0A0
:10094000DFF808B172B6FEE705F086F8034608B195
:1009500072B6FEE768484FF44032DFF8A8C1C0E93C
:100960000253C0E900C205F096FE044608B172B613
:10097000FEE702463946614806F070FD142005F096
:1009800063FD39462A465D4806F068FD0A2005F0F9
:100990005BFD2422214617A821F0EAFD18222146FA
:1009A00011A821F0E5FD342221462DA821F0E0FD1B
:1009B00021462C2220A821F0DBFD514F4FF0A0430F
:1009C0000EA938461095C7E900347723C7E9028598
:1009D000CDE90E3605F0ACFF08B172B6FEE7CDE901
:1009E0001750CDE91900CDE91B00CDE91D001F907E
:1009F00017A9384606F008FA08B172B6FEE72123B7
:100A00001C250F2611A9CDE911531923CDE9150095
:100A10003846CDE9136306F0BAF908B172B6FEE7BD
:100A20000421374806F0A2F908B172B6FEE742F297
:100A30001071334806F071FB014608B172B6FEE74B
:100A40002F4805F012FF08B172B6FEE74FF40073AD
:100A50004FF480794FF4806A4FF480524FF4804114
:100A60004FF400304FF400244FF00208CDE92D93ED
:100A70004FF40063CDF8E480CDE92FA34FF4005389
:100A8000CDE931234FF48033CDE933134FF4802384
:100A90002DA9CDE935034FF080731948CDE93743CF
:100AA00006F030F908B172B6FEE705234FF4C877B7
:100AB0000126209027902A96CDE921371023CDE9F1
:100AC00023308023CDE925000DEB0301CDE928304B
:100AD0000B4806F0A5F80146B0B172B6FEE700BFBC
:100AE0001B0000030000041000ED00E00044025869
:100AF000C899002400500052089C00240018025895
:100B0000EC9B0024001000525B4806F078F8044685
:100B100008B172B6FEE73422014620A8574D21F0F5
:100B200027FDDFF898C14FF000434FF4C97EC5F8A8
:100B300020802846AC8685F83640C5E900C34FF0D2
:100B40008043C5E902344FF4F173C5E90648C5E9AD
:100B500009E340F2931840F2E313C5E90444C5E900
:100B60000B8307F0DBFF024608B172B6FEE7FF21F8
:100B700022904FF4F073ADF8B0208DF8B2202B9393
:100B8000CDE92510CDE9200707214FF4C060CDE95C
:100B900027014FF050412846CDE9291720A9CDE97A
:100BA000233608F070F8044608B172B6FEE72A68EA
:100BB0003148936923F00103936106F08BF93049C2
:100BC000304B3148CB60314B0C804B60304B8B60ED
:100BD00004F038FD324621462B4804F0A3F92823BF
:100BE000152221462448009406F0A7F92DA9224891
:100BF0003794CDE92D44CDE92F44CDE93144CDE9F9
:100C00003344CDE9354406F07DF822464FF448716F
:100C1000284608F065F82A681E489369848043F0E6
:100C2000010393611C4B06620360C0E9054405F0B3
:100C3000D1FC08B172B6FEE71848194B036007F003
:100C400067F908B172B6FEE700F08EFD00F08BFD8B
:100C50000AF040FB134A002113480AF067FB134BCC
:100C6000134A0021186013480AF060FB124B186009
:100C70000AF042FBFEE700BFEC9B0024149A00241C
:100C80005C990024295A00086C9900243D1D000835
:100C9000751D0008709C0024004C0258949B002491
:100CA00000300052E44E02087717000890990024A3
:100CB000C04E0208D13800088C9900240010005062
:100CC000142200212DA8012521F052FCD4F8E03097
:100CD000002241F2083143F480738D484FF000093F
:100CE0000326C4F8E0304FF48078D4F8E0304FF0B9
:100CF000020A082703F480730493049BD4F8E030BD
:100D000043F00203C4F8E030D4F8E03003F002030B
:100D10000593059BD4F8E03043F04003C4F8E0307D
:100D2000D4F8E03003F040030693069BD4F8E0309B
:100D300043F01003C4F8E030D4F8E03003F01003BF
:100D40000793079BD4F8E03043F08003C4F8E03009
:100D5000D4F8E03003F080030893089BD4F8E03027
:100D600043F00403C4F8E030D4F8E03003F00403A7
:100D70000993099BD4F8E03043F40073C4F8E030E1
:100D8000D4F8E03003F400730A930A9BD4F8E030FF
:100D900043F00803C4F8E030D4F8E03003F008036F
:100DA0000B930B9BD4F8E03043F00103C4F8E03020
:100DB000D4F8E03003F001030C930C9BD4F8E0303E
:100DC00043F02003C4F8E030D4F8E03003F020030F
:100DD0000D930D9B06F042FB002208214D4806F0C2
:100DE0003DFB00224FF480714B4806F037FB41F287
:100DF00008332DA94648CDE92D35CDE92F9606F0CB
:100E0000A3F92DA94548CDF8C490CDE92D8ACDE9A7
:100E10002F9906F099F92DA93E48CDE92D75CDE918
:100E20002F5606F091F92DA93B48CDE92D85CDE946
:100E30002F9606F089F9D4F8D4304A4605212B4381
:100E40007A204FF00408C4F8D430D4F8D4304024C9
:100E50002B400393039B05F021FB7A2005F050FB08
:100E60002F4A30482DA9136823F0010313604FF473
:100E700000622D4BC0F81C90C0F828908560CDF81A
:100E8000B4A0C0E900352023C0E903834FF4C07348
:100E9000C0E905434FF48053C0E908230723CDE997
:100EA00032AACDE92E38CDE9303609F05FFF814610
:100EB00000287FF42CAD04F0DDFF484605F028F84B
:100EC000034600283FF425AD72B6FEE705F07CFA34
:100ED000FFF718FCD5F8E030204643F00073C5F862
:100EE000E030D5F8E03003F000730293029B06F087
:100EF000C3FA2146204606F0CDFA0C4C4FF6FF739C
:100F0000226812043FF5DCAE013BF9D272B6FEE76F
:100F10000024025800180258001402580000025819
:100F2000004000529499002440410052004402586D
:100F30000268034B9A4201D105F074BA704700BFB2
:100F40000010004072B6FEE70A4B82B00F216FF02E
:100F50000100D3F8F42042F00202C3F8F42000228A
:100F6000D3F8F43003F002030193019B02B005F0C3
:100F700095BA00BF00440258026882B0094B9A42F9
:100F80000DD1A3F50063D3F8E02042F40022C3F8AA
:100F9000E020D3F8E03003F400230193019B02B07A
:100FA000704700BF004C02580F4B07B502689A42C9
:100FB00017D10E4B07215A20D3F8D42042F010024B
:100FC000C3F8D4200022D3F8D43003F010030193E7
:100FD000019B05F063FA5A2003B05DF804EB05F0BD
:100FE0008FBA03B05DF804FB0010005200440258B1
:100FF00010B5BAB004461422002103A821F0B8FAB3
:10100000C822002108A821F0B3FA2368B3F1A04F49
:1010100038D14FF08062002308A8CDE9082309F0F9
:101020009BF908B1FFF78EFF174B002403A917485F
:10103000D3F8E42042F01002C3F8E420D3F8E4200F
:1010400002F010020192019AD3F8E02042F40072FB
:10105000C3F8E0200422D3F8E03003F400730293D5
:10106000029B0223CDE903230D23CDE90544079319
:1010700006F06AF87B202246072105F00FFA7B2054
:1010800005F03EFA3AB010BD004402580024025860
:1010900037B53C4B054602689A4270D13A4B022163
:1010A0003A4C4FF0007ED3F8D420DFF8ECC0204655
:1010B00042F02002C3F8D4208022D3F8D43003F0C9
:1010C00020030193019B1123C4E900C30023C4E959
:1010D0000232C4E9073220222361C4E90513C4E9BE
:1010E00009E24FF4A0414FF40032C4E90D33C4E9E2
:1010F0000B1207F052FE08B1FFF724FF002223482D
:10110000114607F0D8FE08B1FFF71CFF2C6313232C
:101110001F4A082125644FF4A0401E4CC4E9002357
:101120000023C022C4E9023220222362C4E906124D
:101130004FF00071C4E909124FF42032C4E90B02E8
:101140002046C4E90433C4E90D3307F026FE08B194
:10115000FFF7F8FE00220F48114607F0ACFE08B179
:10116000FFF7F0FE6C63002205217920256405F06D
:1011700095F9792003B0BDE8304005F0C1B903B05E
:1011800030BD00BF0030005200440258289B0024AC
:10119000C0010052BC9A00240002005210B5B4B045
:1011A0000446C822002102A821F0E2F92268184B67
:1011B0009A422BD14FF000520023152102A8CDE90D
:1011C0000223A1230522CDE90C230223CDE90E330E
:1011D0004FF40063CDE9101309F0BEF808B1FFF732
:1011E000B1FE0C4B58200721D3F8E42042F008024E
:1011F000C3F8E4200022D3F8E43003F0080301939D
:10120000019B05F04BF9582005F07AF934B010BD78
:101210000010005000440258F0B5BFB0044614223C
:10122000002107A821F0A4F9C82200210CA821F070
:101230009FF92268534B9A4240F0A1804FF0007210
:1012400000230CA8CDE90C2309F086F808B1FFF7BC
:1012500079FE4D4B022500240926D3F8D42007A996
:101260004A480A2742F48042C3F8D420D3F8D42055
:1012700002F480420192019AD3F8E02042F0400249
:10128000C3F8E020D3F8E02002F040020292029A74
:10129000D3F8E02042F02002C3F8E020D3F8E020A9
:1012A00002F020020392039AD3F8E02042F0800279
:1012B000C3F8E020D3F8E02002F080020492049A00
:1012C000D3F8E02042F00202C3F8E020D3F8E02097
:1012D00002F002020592059AD3F8E02042F00802DB
:1012E000C3F8E020D3F8E03003F008030693069B30
:1012F0004FF48443CDE90735CDE909440B9605F059
:1013000023FF402307A921480B97CDE90735CDE9F5
:10131000094405F019FFC02307A91D480B96CDE924
:101320000735CDE9094405F00FFF4FF4007307A915
:1013300017480B97CDE90735CDE9094405F004FFBF
:101340000C2307A913480B96CDE90735CDE90944CD
:1013500005F0FAFE042307A90F480B96CDE90735DF
:10136000CDE9094405F0F0FE4FF4006307A90B48EE
:101370000B96CDE90735CDE9094405F0E5FE3FB010
:10138000F0BD00BF0050005200440258001802583F
:1013900000140258001C025800040258000C0258A5
:1013A000F0B5B9B00021142201A821F0E1F83F4BBB
:1013B0001968002977D1012208A81A60C02221F0FB
:1013C000D7F84FF08072002306A8CDE9062308F075
:1013D000C3FF08B1FFF7B6FD354B022700260325F2
:1013E000D3F8D4200C2401A9324842F48052C3F827
:1013F000D420D3F8D430059403F480530093009B99
:1014000040F2FF63CDE90365CDE9013705F09CFEAD
:10141000602301A928480594CDE90137CDE903658A
:1014200005F092FE4FF6837301A924480594CDE997
:101430000137CDE9036505F087FE4FF47F4301A92D
:101440001F480594CDE90137CDE9036505F07CFE21
:1014500048F2331301A91B480594CDE90137CDE9C2
:10146000036505F071FE4CF2037301A9164805945B
:10147000CDE90137CDE9036505F066FE4FF63F0380
:1014800001A912480594CDE90137CDE9036505F0BE
:101490005BFE012301A90E480594CDE90137CDE992
:1014A000036505F051FE39B0F0BD00BF989C0024E3
:1014B000004402580020025800040258001002584C
:1014C000001C025800180258000C02580014025860
:1014D000000802581A4B1A6810B582BB194A012439
:1014E00040F2FF6118481C60D2F8D43023F48053D6
:1014F000C2F8D43005F010FF6021144805F00CFF4D
:101500004FF68371124805F007FF4FF47F411148F1
:1015100005F002FF48F233110F4805F0FDFE4CF2D2
:1015200003710E4805F0F8FE4FF63F010C4805F038
:10153000F3FE21460B48BDE8104005F0EDBE10BD9E
:10154000949C0024004402580020025800040258D1
:1015500000100258001C025800180258000C0258D3
:1015600000140258000802580F2810B504468AB02B
:1015700002D901200AB010BD01460022362004F035
:101580008DFF362004F0BCFF184B694602A81C6092
:10159000174BD3F8E82042F01002C3F8E820D3F844
:1015A000E83003F010030193019B08F0BFFD079B97
:1015B000C3B908F097FD0F4C0F4B236040F2E7339F
:1015C000E3600E4BB0FBF3F001380023606020466F
:1015D0002361A36009F0A8FD0028CAD1204609F0C4
:1015E0006DFCC7E708F07EFD4000E4E774000024CE
:1015F000004402589C9C00240010004040420F0010
:10160000FEE7FEE7FEE7FEE7FEE77047014809F068
:1016100097BC00BF9C9C0024014807F0D7BA00BFCC
:10162000149A0024014805F075B800BF089C0024F6
:10163000014807F0A3B900BF949B0024044808B5F3
:1016400007F0BEFC0348BDE8084007F0B9BC00BF86
:10165000BC9A0024289B0024014805F05EBA00BF14
:10166000EC9B00240120704708B521F093F8162365
:1016700003604FF0FF3008BD08B521F08BF816234A
:101680000360FEE770B50D4614460E46731B9C4280
:1016900001DC204670BDAFF3008006F8010BF5E7D2
:1016A00070B50D4614460E46731B9C4201DC204665
:1016B00070BD16F8010BAFF30080F5E74FF0FF3077
:1016C00070474FF4005300204B6070470120704773
:1016D000002070470B4A0346116810B509B90A4942
:1016E0001160106809490A4C0344091B8B4206D952
:1016F00021F050F80C2303604FF0FF3010BD136051
:10170000FCE700BFE89C00240861022400000824D4
:1017100000100000DFF834D004F0E6FD0C480D495D
:101720000D4A002302E0D458C4500433C4188C423C
:10173000F9D30A4A0A4C002301E013600432A242A2
:10174000FBD321F02DF8FFF73FF870470000082485
:10175000000000243C010024E8960208409900247F
:1017600008610224FEE7704708B501F025FDBDE8D9
:10177000084001F0A9BC01F021BD406870474160FC
:101780007047521A02EB5302B2FBF3F070470000AD
:10179000024BC0681B685B6A58437047EC9C00248E
:1017A0007047000037B51E4A4FF0804105464FF0A4
:1017B000FF30D2F8E83043F00103C2F8E830D2F845
:1017C000E83003F001030193019B164B19600021DF
:1017D000D86019619960596001215961D36910225B
:1017E00003F0700392FAA2F2B2FA82F2D3400E4AE8
:1017F000D35C83B908F054FC044608F089FAB0FBC6
:10180000F4F0E860074809F08FFC064803B0BDE833
:10181000304009F019BB08F065FC4400EDE700BF5B
:1018200000440258EC9C00246857020810B5044696
:10183000102120F08AF8204610BD38B50368044610
:101840001B6931B18568984763685B1B034463601B
:1018500038BD9847A060FBE770470000F8B50A4B19
:101860000F4616461D7815B900252846F8BD074CC9
:101870000020214604F0DCFC2368002BF4D06368D0
:101880003B60A3683360F0E7489D0024389D002446
:1018900010B50446042120F058F8204610BD000081
:1018A00008B50E4B4FF44872002019684FF4F073DE
:1018B000C1E900230C23C1E9023004F029FC084BE4
:1018C00010B901221A7008BD1B78002BFBD1054B03
:1018D0002E21054A054820F0AFFB00BF449D00249F
:1018E000489D0024C7310208DA3102080432020898
:1018F000032825D8DFE800F0020B131B114B082149
:101900001A68B2FA82F252090F4805F0A7BD0D4BD2
:101910004FF480715A68B2FA82F25209F4E7094B27
:101920004FF400719A68B2FA82F25209ECE7054B63
:101930004FF480710548DA68B2FA82F25209E4E79E
:10194000704700BF4C9D0024002402580014025828
:10195000032825D8DFE800F0020B131B114B0821E8
:101960001A68003A18BF01220F4805F077BD0D4BE9
:101970004FF480715A68003A18BF0122F4E7094B0E
:101980004FF400719A68003A18BF0122ECE7054B4A
:101990004FF480710548DA68003A18BF0122E4E785
:1019A000704700BF4C9D00240024025800140258C8
:1019B000032811D8DFE800F00206090C08210748C7
:1019C00005F051BD4FF48071F9E74FF40071F6E76F
:1019D0004FF480710248F3E7704700BF00240258BB
:1019E0000014025808B5032815D8DFE800F0020AF1
:1019F0000D100821094805F02BFD431E584258419F
:101A000008BD4FF48071F5E74FF40071F2E74FF431
:101A100080710348EFE70020EFE700BF0024025881
:101A20000014025870B5084D00240126E0B2FFF7FB
:101A3000D9FF18B12B68012B18BF2E600134043573
:101A4000052CF3D170BD00BF4C9D0024012380F80C
:101A5000781080F879307047704700207047000098
:101A600041640039024B18BF01211970704700BF53
:101A7000E7530224704700207047836B0BB1084680
:101A8000184770474FF6FF707047406803689B69BE
:101A90001847704770470000014B1868704700BF37
:101AA000709D0024704701F086BC01F017BC01F066
:101AB000E7BD01F0D9BD000010B5044601F09CFD62
:101AC00094F84B3013B1024B01221A7010BD00BFC5
:101AD0000C00002401F00ABC10B504460CF05AFEBC
:101AE00023682046D3F8BC30BDE81040184710B535
:101AF00004460CF0B5F960680368BDE810401B6946
:101B000018470CF075B810B5044684211FF01DFF6E
:101B1000204610BD024B00221A700CF0A5B800BF81
:101B20000C00002438B50446064D01F005FC0023E6
:101B3000284684F84A30FFF735FE0123256184F8F2
:101B4000703038BD609D00240368044607B5D3F8A3
:101B50008430984723682046DB6F984700F066FF83
:101B6000236820465B6F98470021292315220548EA
:101B7000009105F0E2F900F059FF236820465B6F01
:101B80009847F8E7EC9B002490F834100D4B10B503
:101B900090F878401A788C4209D03AB90A490B4A31
:101BA00008881488108001220C801A7010BD002A49
:101BB000FCD0064A0449148808880C801080002252
:101BC000F3E700BFE0530224DE530224DC53022477
:101BD00008B5094B1B888B4203D8084B1B889342DE
:101BE00005D9074BA321074A074820F025FA074BE0
:101BF0001980074B1A8008BDDC530224DE530224EF
:101C000041320208A4320208E7320208E2530224F9
:101C1000E4530224034690F87A0018B15868036828
:101C20001B6818477047000070B50D4619460B4BEE
:101C30001D6035B90A4B40F2FF210A4A0A4820F0DC
:101C4000FBF9C0E90F52003A084B18BF01221A7085
:101C50000368BDE87040D3F890301847709D0024A9
:101C60003A33020872330208E7320208E6530224CC
:101C700070B5C0E90112C3604FF480720023BDF853
:101C80001460BDF810500321038580F82A302035F8
:101C9000C3620386ADB280F858304366B54280F81F
:101CA0007030C0E912231C4AC0E91A231B4AC0E95C
:101CB0000433C0E90633C0E90833C0E90E33C0E994
:101CC0001033C0E91433C0E91733436782674FF418
:101CD0008062A0F87C204FEA9602A0F87E20B2FB3A
:101CE000F1F2A0F880204FF01402A0F882200C4AF4
:101CF00010600C4A15800C4A158028BF00250B4A3D
:101D000038BF012516800A4A80F834501680094AE7
:101D10001370094B036070BD010000010000010158
:101D2000E8530224DC530224E2530224DE5302244B
:101D3000E4530224E0530224504F0208012B13B550
:101D40000ED8D35C152200930B460146084805F0D7
:101D5000F4F818B16FF0070002B010BD0020FBE7E7
:101D6000CDE9001201463922014805F0F7F8F0E705
:101D7000EC9B00241FB5CDE901120621009101461C
:101D8000054805F04BF9002814BF6FF0070000204C
:101D900005B05DF804FB00BFEC9B00241FB54FF2BB
:101DA00001430B4C39220021ADF80C3003AB204627
:101DB000019344230093022305F0D0F8002135233A
:101DC00015222046009105F0B8F804B010BD00BF00
:101DD000EC9B002408B5FFF7E1FF0C4B02221B68C7
:101DE000C3F810240122C3F81024D3F8082442F0C9
:101DF0000102C3F80824D3F8082442F00202C3F811
:101E000008240322024B5A6308BD00BFEC9B002448
:101E100000100050074B07B5197839B90122064860
:101E20001A7029231522009105F087F803B05DF898
:101E300004FB00BF5C9D0024EC9B0024064B07B50F
:101E400001932A233922002100930423034805F03B
:101E500085F803B05DF804FB08000024EC9B002427
:101E6000064B07B501932A2339220021009304234E
:101E7000034805F073F803B05DF804FB0400002488
:101E8000EC9B002438B5154D04460020FFF730FDCB
:101E90002B6893F86A20013283F86A20002283F8C5
:101EA0007C2000F0B7FD0E4B2A6819781B7882F869
:101EB0004A1073B10B4D2B7803F0FF024BB90A4B5C
:101EC0001A60FFF7BBFF204605F027F801232B70AF
:101ED00038BD0020BDE83840FFF73ABDE853022482
:101EE0000C000024789D0024749D00242DE9F0430B
:101EF000494E85B004463378002B00F08980DFF826
:101F00003C91DFF83C81D9F80050444F002D3ED180
:101F10000120434E04F098FA23680095D3F8042476
:101F2000386822F0080200F59660C3F80424D3F85C
:101F3000042402F008020092009AD8F80020C2F8A7
:101F4000AC0038480661384E46613848C2F888000F
:101F50003748C2F8B000516A41F001015162019561
:101F6000D3F8042442F00802C3F80424D3F804345C
:101F700003F008030193019BFFF772FF0123204642
:101F8000C9F8003005B0BDE8F04304F0C6BF0368EF
:101F9000002538680295D3F80424264C22F0080264
:101FA000C3F80424D3F8042402F008020292029A2F
:101FB000D8F80020C2F8AC001A48046104F10114FA
:101FC00044611A48C2F888001948C2F8B00028468F
:101FD000516A41F0010151620395D3F8042442F0A3
:101FE0000802C3F80424D3F8043403F0080303936D
:101FF000039BFFF7ADFCFFF70DFF0F4B35701C681F
:1020000034B1236820461B6A9847012384F87C304A
:1020100005B0BDE8F08300BF789D0024709D0024CA
:10202000E201B20100100050E301920103009201AD
:10203000B304C009E2019201E8530224749D002414
:10204000149A0024014608B5034B186801B1012118
:102050000CF0BAFB012008BDE8530224034B002218
:102060005A609A60024A1A60704700BF609D00245F
:10207000104F02084069704790F840007047036BAA
:1020800023B9C06A003818BF01207047012070478B
:10209000806870477047043010B50C460FC884E85C
:1020A0000F0010BD7047000008B5034A4FF4E471FB
:1020B000024B03481FF0C0FFC03302085A4C02080D
:1020C0001B34020810B5044648211FF03EFC204690
:1020D00010BD000000220E4B10B5114604460360EF
:1020E000C26380F84020C0E90522C0E90722C0E9A8
:1020F0000922C0E90B22C0E90D22C0E90322C0E990
:102100000122012009F0D0F9024B1860204610BDD1
:102110003C500208989D002410B40C4611461A4603
:10212000036B3BB1C36B406BE41A20445DF8044B76
:1021300020F026BAC06AF8E7036B10B573B1C36B21
:10214000426BC91A5318525C98785C78000440EAD4
:1021500004201043DB7840EA036010BDC26A5318C4
:10216000525C59789878000440EA0120F1E7036B4B
:1021700043B1C36BC91A436B5A18585C527840EA92
:1021800002207047C36A5A18585C537840EA03200B
:102190007047000070B50446006B0D461646D8B176
:1021A000A36B934208D209230D4AA0210D4884F85D
:1021B00040300D4B1FF040FF0368DB689847206BF1
:1021C0003246616B03681B69984710B90D2384F888
:1021D0004030606BE56370BDE06A0844FBE700BF18
:1021E000753402081B340208623402082DE9F843F2
:1021F000436904462BB9224BE621224A22481FF0AC
:102200001BFF08228169FFF7C5FFA16943F2300671
:1022100046F2643704312046FFF78EFFA369184465
:10222000A36A00F108029A4206D3012300206361E9
:10223000236AA361BDE8F883636900F109010822FC
:102240002046013321F001016361A161FFF7A2FF84
:10225000D4F8189020464946FFF789FF09F102019A
:1022600080462046FFF783FF09F10401054620461A
:10227000FFF762FFB045D1D1BD42CFD10120D9E7F0
:10228000B7340208003502081B340208012903682C
:1022900038BF0121DB6A70B50D4604469847A84255
:1022A00004D223682046DB6A984705466B1EE66920
:1022B0001022204606EB031606F10801FFF76AFF1D
:1022C00006F110012046FFF737FF236A043B034461
:1022D000C4E9055370BD0000002148222DE9F041FA
:1022E0000446816180F84010FFF754FFA66904237B
:1022F000634A31462046FFF70FFF48B10323614A86
:102300004FF4977184F840305F4B60481FF094FEA3
:1023100006F1080104235E4A2046A161FFF7FCFE96
:1023200038B10423574A4FF49B7184F84030594B1D
:10233000EBE706F10C010423574A2046A161FFF7A1
:10234000EBFE074638B105234E4A40F23D1184F8B2
:102350004030524BD9E706F110012046FFF7ECFE62
:10236000054620B94E4B40F24311464ACDE706F1EF
:10237000140804234B4A20464146FFF7CDFE0028AF
:1023800049D0062384F840300423474A06F1180157
:102390002046FFF7C1FE00283FD0072384F84030D5
:1023A0004544424F0C2220462946FFF7F3FE05F133
:1023B000080604233A4620463146FFF7ADFE94F85E
:1023C0004030002848D0002B48D1A36AAB4249D8FE
:1023D00005F10C0304352046A3612946FFF7ACFE46
:1023E0003044294660622046FFF7A6FE06440422D8
:1023F00020463146FFF7CEFE04232D4A31462046C3
:10240000FFF78AFE002838D10123E6616361A369E2
:102410002362BDE8F0810127B6E7002FC0D006F1A6
:1024200020012046FFF788FE4FF47A7306F1300151
:10243000B0FBF3F060602046FFF77EFE06F140013E
:10244000A0602046FFF778FE06F14401E0602046D8
:10245000FFF772FE2061A3E7002BB9D00A2384F8AE
:102460004030D6E7291D2046FFF766FE85190C226D
:1024700020462946FFF78EFE99E70B23EFE700BFC2
:102480003335020851350208383502081B3402087A
:102490007E350208833502089B350208A035020804
:1024A000B6350208C2350208C7350208CC35020825
:1024B000D1350208C0E90A2100220263FFF70CBFF0
:1024C00010B5002304460846E3620B6821639B684D
:1024D0009847A0622046BDE81040FFF7FDBE00000F
:1024E00037B5134B0024134D1C60134B1C60134B6A
:1024F0002C601C60124B1960124B1A60124B1C604E
:10250000124B2A684FF4C0751C701C74C3E9024456
:10251000C3E9064403EB02130D4AD2686A430092F2
:102520004FF450425B6805F0A1FE204603B030BD79
:10253000B09D0024A09D0024949D0024C09D0024F3
:10254000B89D0024BC9D00249C9D00241000002404
:102550007C9D00244B68012B15D1CB681A071EBF48
:1025600023F00F031033CB608B6818071EBF23F0D6
:102570000F0310338B60CB688A681B091209534321
:102580000E4A13607047022B0ED1CB681A0703D096
:1025900023F00F031033CB608B685A071EBF23F064
:1025A000070308338B607047002BFCD1CB685807BA
:1025B000F2D023F007030833EDE700BFA89D002405
:1025C0000B4A13680B4430B413600A4A12689342F2
:1025D0000CD2094CD21A2568B2F5504F294428BFB5
:1025E0004FF45042216030BC05F0A2BE30BC7047B1
:1025F000C09D0024BC9D0024B89D0024F8B5204C4B
:102600000121204D064623681F4F1B01E954236812
:1026100005EB03139A601D4B1968226805EB021243
:10262000D1601A68F9680A441A602368013323608C
:102630002368012B01D90023236023681B01EB5C75
:1026400033B10221304605F045FE114B01221A60DC
:1026500022683046FB6805EB02154FF4C0726968CA
:102660005A4305F068FE0B4B1B681A7A3AB99B7AFD
:102670002BB9094B1868BDE8F84008F08BBFF8BDCE
:10268000A09D0024100000247C9D00249C9D00241B
:10269000B09D0024A49D0024989D002472B6FEE7FE
:1026A000014B01221A607047B49D002438B5164DC5
:1026B00004462B6813B1154B1B681BBB144B1868E1
:1026C000037A63B9134B144A1B681B01D35C012BBB
:1026D00005D10E4B1B6813B903681B6998470F4A55
:1026E0001368012B0CD10E4B0B491B681B01CB5CF3
:1026F00033B92B6823B902212046136006F047F84E
:10270000022038BD0120FCE7B49D0024909D0024E8
:10271000A49D0024949D002410000024B09D00245A
:10272000A09D002470B50546002A37D0002B35D077
:102730001B4803240461EC6826074FF4166618BF93
:1027400024F00F04466018BF103404602409C460EC
:102750002C6914F00F0418BFC4F1100484601148F0
:10276000114C03601148FFF7BBFE6A6C104B0F4D14
:102770001A602846FFF79AFF20602368022B05D1D4
:102780000C4B4FF0FF31186808F0D8FE2368012B7E
:10279000EFD10023084A1360084A136070BD00BFE0
:1027A0007C9D0024C49D0024AC9D0024949B0024A7
:1027B000A49D0024989D0024B49D0024909D002495
:1027C0002DE9F04F9946436985B004460F4690467F
:1027D0002BB9294BB221294A29481FF02DFC082288
:1027E0008169FFF7D7FCA66920463146FFF7BFFC99
:1027F000B11C83462046FFF7BAFC311D82462046B5
:10280000FFF79AFC06F10801A36A05460A189A42E6
:1028100026D243F230039B4517D146F264339A45E2
:1028200013D190B10246A1612046FFF7B3FC0E9B85
:1028300001462A462046CDF80080CDE901933B466B
:10284000FFF770FF636901336361A3692B4405B926
:1028500008330133626A23F001039342A36109D173
:10286000012301206361236AA36180F0010005B0A8
:10287000BDE8F08F0020F8E7B7340208D63502082B
:102880001B340208F8B50446816916460822FFF792
:1028900081FCA7692046391DFFF74EFC07F10801AE
:1028A000024605462046FFF775FC01466EB12A46F2
:1028B000074C084D33460748FFF712FE2846FFF73E
:1028C000F5FE20602368002BF8D00120F8BD00BF82
:1028D000AC9D0024949B0024F0B5C7680122154CE0
:1028E0003901154E2368B1FBF3F163685943134B6B
:1028F0005A630901E26836681505B61AB74215D35E
:10290000A468C4F110042C435C640D4CC2F1320283
:10291000246812012144D9631A6400221A61094A09
:10292000DA614268DA60084A1A60F0BD45F01005C5
:102930005D64EAE77C9D0024A89D002400100052FD
:10294000C49D00240B0009FF012301000C4B002251
:10295000027019688260013119601968012900D973
:102960001A60084B084A1B68D2689B1AC2689A42D0
:1029700002D3064B01221A60054B186808F00ABE04
:10298000949D0024A89D00247C9D0024909D0024FB
:10299000989D00240121002208B5084608F084FD16
:1029A0000A4B186028B90A4B28210A4A0A481FF026
:1029B00043FB00220421012008F015FE074B18609C
:1029C00018B9074B2C21034AF0E708BDCC9D002421
:1029D000313602087A360208A9360208C89D00245A
:1029E000E6360208024B4FF0FF31186808F0A6BD2A
:1029F000CC9D0024014B186808F0CCBDCC9D002470
:102A0000024B0021186808F099BD00BFCC9D00243E
:102A1000FFF7F0BF0023034803491A46006808F097
:102A20001DBE00BFC89D00243000002413B5002344
:102A3000074C01A91A46206808F041FE4FF0FF3309
:102A4000002201A9206808F03AFE02B010BD00BFC4
:102A5000C89D002403685B6C184701207047FEE79F
:102A600040F2EF307047000010B504464FF0FF31E0
:102A7000D0F8A40D08F0D6FC606803681B6898477E
:102A800078B9637A6BB1237A5BB984F8A03D2046AC
:102A900023685B6A9847D4F8A40DBDE8104008F09D
:102AA000E4BC0B490B4A0B681B01D35C012BF2D130
:102AB000207A0028EFD1A07A0028ECD1086884F8A9
:102AC000A03D02EB00102372FFF706FFE3E700BF13
:102AD000949D002410000024054B4FF08062036099
:102AE000044BC3F88820BFF34F8FBFF36F8F70473D
:102AF0008050020800E100E010B5044640F6A851FD
:102B0000FFF7EAFF20461EF020FF204610BD000020
:102B1000104B82B0D3F8D42042F01002C3F8D42076
:102B2000D3F8D42002F010020192019ADA6F42F039
:102B30001002DA67DA6F22F01002DA67064B074AF2
:102B40001A62074A5A62074B4FF080629A6002B0DD
:102B5000704700BF00440258089C0024AD2D0008B7
:102B60005F2A000800E100E008B50A2809D8DFE87C
:102B700000F006100E0808080810101010000220BF
:102B800008BD054B9121054A05481FF055FA002064
:102B9000F6E70120F4E700BF2837020843370208B0
:102BA0008E37020838B50C46887FFFF7DDFF124BE1
:102BB000A58AE28A586342EA054221695A64628B17
:102BC000D963521B1A642568082D0ED19A611A61C7
:102BD00058620A4A207F42EA0062DA61E2681A62B9
:102BE000074A5961D9601A6038BD0022D8611A615C
:102BF000E2689A63034AF6E70010005209000100F8
:102C0000012302000123030008B50B280BD8DFE8DD
:102C100000F00612100A0A0A0A080808080802202A
:102C200008BD0520FCE7054B7021054A05481FF04B
:102C300003FA0020F4E70120F2E700BF283702087A
:102C4000C93702088E3702082DE9F8434F7F8946BD
:102C50003846FFF7D9FF99F81E5080462846FFF7FF
:102C6000D3FF06462846FFF77FFFB9F81410B9F8DE
:102C70001A40B9F81820454B641A521A1C649C611A
:102C80001A61B9F81620586342EA0142D9F81010C7
:102C90005A64D9F80420D963DA60D9F8004099F869
:102CA0001C20802C22D00FD8202C66D0402C64D041
:102CB000042C5CD048EA0260344BAF4240F4003050
:102CC000D86160D0324A3FE0B4F5807F04D0B4F5DB
:102CD000007FEFD12F4800E02F4840EA0262DA611E
:102CE000D9F80C201A625E6259612CE048EA026051
:102CF000D9F8084040F40030D8615E625961211D66
:102D0000D962217841B1012921D0244B40F20B1125
:102D1000234A24481FF090F9DA69618822F47F423F
:102D2000013922F0100242EA0122DA610122174B36
:102D3000D96941F02001D961D9698906FCD41021F3
:102D40009960002ABED0184A1A60BDE8F883D96994
:102D5000FF3A608821F47F4118BF0122013821F039
:102D6000100141EA002141F01001D961DFE748EA92
:102D7000026242F40032DA61B5E748EA0262034BCC
:102D800042F40032F7E742F20132DDE70010005270
:102D900001230100090002000A00020013380208A2
:102DA0002D3802088E37020801230200024B1B68EF
:102DB000586803685B691847E853022490F8A03DFF
:102DC00010B50446D3B903689B6A984719491A4A53
:102DD0000B681B01D35C012B2AD11848006838BB53
:102DE000207A28BBA07A18BB086884F8A03D23721B
:102DF00002EB0010BDE81040FFF76EBD037A43B14F
:102E0000002303720B4B18680B4B03EB0010FFF70A
:102E10009DFD606803681B68984748B9637A3BB1B9
:102E2000236884F8A00D20465B6ABDE8104018476F
:102E300010BD00BF949D002410000024909D00242C
:102E400070B504460E4B0C300026254660226060AB
:102E50002672667245F8203B29460BF0F7FD04F513
:102E60005A63EE6024359D42FBD184F8A06D0020AA
:102E7000C4F8A46D08F09EFAC4F8A40D204670BDF5
:102E800080500208034B1A68D207FCD423229A60B0
:102E9000704700BF001000520B4A5369DB0311D585
:102EA00000290FDD00F01F031944BFF34F8F0144C9
:102EB000C2F8680220300B1A002BF9DCBFF34F8FE9
:102EC000BFF36F8F704700BF00ED00E030B5104CCE
:102ED0002568ED07FCD423250904FF2BA5604FF0DE
:102EE000010541EA050165636164E0630CD00949AD
:102EF00022F07F42656241EA0363E361064B22628E
:102F00006061E060236030BDE561044BA263F9E7D6
:102F1000001000520900010001000200010003003E
:102F200030B50E4C2568ED07FCD423251204FF2B89
:102F3000A5604FF0010542EA050265636264E06343
:102F4000E16007D0064A42EA0363E36165626061BB
:102F5000226030BD034BE3612560FAE700100052A8
:102F600001000200010002FF30B50B4C2568ED079F
:102F7000FCD4232512041B06A560012543F400336D
:102F80002A4365636264E063E160E361034B656269
:102F90006061236030BD00BF0010005201000200DC
:102FA000012070470C2070470C2303FB0100083000
:102FB00070470C2303FB0100083070470120704765
:102FC0004FF4377070474FF4377303FB010008303C
:102FD00070474FF4377303FB01000830704701203E
:102FE00070471020704700EB01100830704700EB6D
:102FF000011008307047084600F000BF034B10B5C1
:10300000044603600AF04DFB204610BD385102080B
:1030100010B50446FFF7F2FF142120461EF095FC80
:10302000204610BD034B10B5044603600AF039FB7F
:10303000204610BD0451020810B50446FFF7F2FF08
:103040004FF4397120461EF080FC204610BD000070
:10305000034B10B5044603600AF023FB204610BD65
:10306000D050020810B50446FFF7F2FF18212046A1
:103070001EF06BFC204610BD084B10B504460360E3
:1030800000F54470FFF7BAFF04F12C00FFF7CAFF08
:1030900004F11400FFF7DCFF204610BD6C5102085C
:1030A00008B50248FFF7E8FF08BD00BF90AC002458
:1030B00010B50446FFF7E0FF40F2844120461EF0C1
:1030C00044FC204610BD00002DE9F34100F058FCFF
:1030D0000024054600F058FC2346014622462846B7
:1030E000009413F023FE274B274A2046274D1A60F1
:1030F00001F062F8264B274A27489A6013F0C2FC79
:103100002B68BFF35B8FDB0735D428461EF01FFC0E
:1031100088B3224C224B04F54A7604F1140004F1E2
:103120002C0804F5447723606060C4F80880E760E9
:1031300026610AF0B7FA1B4B404663610AF0B2FA07
:10314000194B3846E3620AF0ADFA184B04F54970A2
:10315000C4F8103301F0ACFA224604F54971304648
:1031600001F09CFA304600F049FE11481EF082FF43
:1031700028461EF0F8FB0F4802B0BDE8F041FEF70C
:10318000D1BC00BF4C540224549E00248CAC0024BB
:10319000749E0024589E00243400002490AC002427
:1031A0006C510208D050020804510208385102083C
:1031B000A1300008D09D0024704700000148FEF7B0
:1031C000C3BC00BFD09D002473B50E4C0E4B0F4EF8
:1031D00020460F4D3360FFF733FE284617F048FCBA
:1031E0000C4811F04BFD4FF448734FF4F072214638
:1031F0000948CDE9003233462A46FEF739FD02B0D0
:1032000070BD00BFE09E0024384F020888AC002447
:10321000749E0024589E0024D09D00240148FFF78E
:103220005BBC00BFE09E0024002070478180704797
:10323000C180704701817047418170477047704776
:1032400070477047704710B4C4880368121B8488A5
:103250005B6D091B12B25DF8044B09B218474FF6BB
:10326000FF7383814FF0FF3303621368C361106003
:103270007047002070478B8883800120704770471B
:1032800080F82610704790F82600704710B500228D
:10329000B1F90840B1F90A10028042808480C180EF
:1032A00010BD0022028042808280C2807047017778
:1032B000704780ED080A704780F82410704780F846
:1032C0002510704701207047983070478C30704748
:1032D000843070477047704770470000024B90225F
:1032E00083F85A23704700BF00E100E07047016394
:1032F000C0E90D217047704700EB8100114640681E
:103300000368DB68184780F83C10704710B5044626
:1033100048211EF01AFB204610BD10B504462C2192
:103320001EF013FB204610BD10B50446BC211EF054
:103330000CFB204610BD000038B504460AF0ADFC79
:1033400023689D6E10F02CFA01462046A84723689A
:1033500008492046D3F88C5000231A46A8476368D2
:10336000054A5364054B5A60054A1A639A63054A35
:103370005A6338BD009411D01CB20024D4B100248B
:10338000000000D00094110038B504460D46406C92
:103390004FF0FF3108F046F8606C08F066F824231F
:1033A00003FB0545002385F8283094F828300BB935
:1033B000236BA36338BD0AF021BC0AF090BD90F8DE
:1033C000252012B103685B6918477047124A536998
:1033D000DB0370B51ED50023C2F88430BFF34F8FD6
:1033E000D2F8803043F6E074C3F3C900C3F34E3320
:1033F0005B0103EA0406014646EA81750139C2F819
:103400007452F9D2203B13F1200FF2D1BFF34F8F4A
:10341000BFF36F8F70BD00BF00ED00E008B531B1A4
:10342000044B4FF4B871044A04481EF005FE90F8AE
:10343000290008BD6B3802087F380208093A0208E3
:1034400010B531B1064B4FF4B571064A06481EF06F
:10345000F3FD406811460368BDE810401B6B184738
:103460006B380208533A0208093A020808B529B134
:10347000034B7921034A04481EF0DEFDC06808BDF5
:103480006B380208013C0208093A020810B50446EC
:1034900029B1194BA221194A19481EF0CDFD052A60
:1034A00015D8DFE802F0031115171C2240680368E5
:1034B0001B69984758B1012384F8293084F82C30CF
:1034C0000023C4E9043302E0002380F8293010BD52
:1034D0000362F5E70362012380F82A30F0E7002356
:1034E00080F8293001230362F1E7003B18BF012374
:1034F00080F82D30EBE700BF6B380208B63D0208BC
:10350000093A020810B50C4611461A462CB1064B72
:103510009021064A06481EF08FFDC460406803688B
:10352000BDE810409B6818476B3802088A3F0208C4
:10353000093A020808B529B1054B8221054A064817
:103540001EF07AFDC0E90411C0E9063208BD00BFD3
:103550006B38020865410208093A020890F83D30CC
:1035600010B5044653B14FF0FF31406C07F05AFFDD
:10357000002384F83D30012384F83E3010BD90F8DC
:1035800025201AB190F8242002B11860704700007D
:1035900010B50446104629B1134BD021134A1448E4
:1035A0001EF04AFD94F8293033B1124B1B6893F892
:1035B0006B2063691344636194F82B300BB90120CD
:1035C00010BDA368036303685B699847002394F800
:1035D0002C0084F82B300028F1D194F82D30002BEA
:1035E000EED184F82900EBE76B380208214302088A
:1035F000093A0208E853022470B51A4C05460AF04D
:103600003FFB94F8293013B994F82A30ABB1E16943
:10361000D4E90532534322694A4393420DD394F8C7
:103620003C0038B19B1AB3FBF1F2994298BF02F10A
:10363000FF326262012384F82E300123206C84F86B
:103640003D3007F0A7FF94F83E302BB1606C07F0D7
:103650000CFF002384F83E3068680368BDE87040C2
:103660001B691847D4B10024044B4FF08062C3F8A3
:103670008820BFF34F8FBFF36F8F704700E100E0EA
:10368000024B4FF080629A60704700BF00E100E09B
:10369000F8B5034690F82800D8B94FF480729E6BB5
:1036A0000125D8609A8506F58C12186102F5A052A2
:1036B00058619861D861186258629D6283F82E0043
:1036C000D3E90C473C44A2420AD90B4B52210B4A86
:1036D00003E00B4B40F2C5110A4A0B481EF0ACFC4C
:1036E0009E609A634FF4487381F83450CB864FF450
:1036F000F07308630B87F8BD79460208B4460208E8
:10370000C2440208F2440208093A0208002370B5D4
:10371000124E04468380124B0360336893F858209E
:103720000AB1D86C00B998680368DB6A9847431EF1
:103730005D425D413368D86C30B10368DB6A9847FD
:10374000012808BF45F001052DB9064B2721064A7F
:1037500006481EF071FC204670BD00BFE8530224ED
:103760008051020857480208B5480208EE4802088E
:1037700070B5254E3568BFF35B8F15F0010540D15C
:1037800030461EF0E4F800283BD0204C204B04F1DA
:1037900034002561E584A562A585C4E90035C4E946
:1037A000025511F050FD04F158000CF08FFD194B3B
:1037B0002046A365184B40F8843BFFF7A7FF174B43
:1037C0001748C4F884302433C4F89050C4F88C30BF
:1037D0004FF4C803C4F89C50C4F8A850C4E9283575
:1037E0000023C4F8AC30C4F8B030C4F8B430C4F826
:1037F000B8300C4BC4F898301EF03CFC30461EF03C
:10380000B2F8024870BD00BF14B1002418B1002402
:10381000EC5A0208A051020818520208385B02084C
:10382000D9320008705B02082DE9F74304460126EF
:103830004FF416674FF0FF31206C07F07FFE4FF01A
:10384000FF31606C07F0EEFD94F82E3043B36568ED
:10385000D4F820802B6884F82B60B8F1000F23D0B7
:103860005B6A414628469847002323622B684FF441
:10387000487200972846D3F814804FF4F073A1687B
:10388000C047236984F82C0001332361F0B12B6811
:1038900028469B6A984701380023E06084F82E3060
:1038A000606C07F0E2FDC5E7626A002ADED02846B8
:1038B000D3E909939847616A01442846C8472369B8
:1038C000626AC4F8248013442361CFE70120E3E750
:1038D000014808B5FFF7A8FFD4B1002438B5144853
:1038E0000025FEF7F7FB134C134B2A46294601200F
:1038F00023604FF48073A563A387A38584F83E50AB
:1039000084F82E50C4E90C55C4E91055C4E901559A
:10391000C4E90355C4E90555C4E90755C4E9095587
:1039200007F0C2FD2064284607F044FD606438BDFE
:103930001CB20024D4B1002464520208704710B5B0
:10394000044604211EF001F8204610BD08B50329E5
:1039500013D8DFE801F002060A0E00F079FC0068D7
:1039600008BD00F075FC4068FAE700F071FC806863
:10397000F6E700F06DFCC068F2E70020F0E7000019
:1039800000487047B45202080420704713B5002461
:1039900051B1036801AA01948DF803409C680DF1B0
:1039A0000303A04702B010BD0846FBE7C08970477B
:1039B000008A7047C088704780887047807A00F01E
:1039C0007F007047807AC009704700207047000070
:1039D0009FED010A704700BF00000000806A704739
:1039E00070477047704710B5044608211DF0ADFFC1
:1039F000204610BD10B50446A0211DF0A6FF2046AC
:103A000010BD0000074A02600022C0E90122C0E99F
:103A10000322C0E90522C0E907224FF480728284A4
:103A2000704700BF445E0208036870B504461B6B14
:103A3000154698472368204629465B6BBDE87040D1
:103A4000184700002DE9F043044687B00025FFF732
:103A5000D9FF2646394B4FF026082946A56204F1C6
:103A6000580746F82C3B424630464FF0FF391EF0CF
:103A70007FFD3046FFF7C6FF314B42462946E362E1
:103A8000FF236565384684F852301EF071FD3846D4
:103A9000FFF7B8FF2B4BDFF8B8802A46A3654FF637
:103AA000FF7329463046A4F884304FF47F03C4F8EE
:103AB0008850C4F88C30244BA4F89050A360C4F80C
:103AC0009450C4F88080C4E92695FFF7ADFF3046D6
:103AD0004FF44871FFF7AEFB30464FF4F071FFF73B
:103AE000ABFB31462046C4F8549009F0EDFD34227A
:103AF00038464FF49171FFF797FF144BA4F88C50A0
:103B00006D463946C4F8883028460CF04BFF04F166
:103B1000940395E8070083E80700042304A93846C6
:103B2000CDF81080ADF814300DF0E4F92046394698
:103B300009F0CAFD204607B0BDE8F0831C53020817
:103B40000C5D02087C5C02082003E001FF901EFF70
:103B50000C5302087047704700F59873086849686D
:103B600003C37047704770474160704770477047A4
:103B7000064BC0F84801C0F84C310023C0F8503162
:103B800000F5A273C0F84031704700BF313C000817
:103B9000012303727047704710B441680346C2683E
:103BA0009B68541001EB6200D20748BF0A595DF8C8
:103BB000044B48BFD35818470346406830B19A6851
:103BC0001AB9D86800F0010070470120704710B59D
:103BD00004460C211DF0B9FE204610BD10B5044668
:103BE00010211DF0B2FE204610BD10B504464FF462
:103BF000AE711DF0AAFE204610BD10B50FF0D0FD2D
:103C00000368BDE81040DB6B184710B50446D0F8D8
:103C1000400158B10368DB68984738B1D4F84001D7
:103C200003689B6898470023C4F8403110BD00002A
:103C30002DE9F14FD0E9556A0746B06803681B6A61
:103C40009847B0F5377F05D2444BA321444A4548F5
:103C50001EF0F2F9706803681B6A98470F2803D8B2
:103C6000414BA4213E4AF2E7F06803681B6A98477B
:103C70000B2803D83D4BA521394AE8E7DFF8F4903B
:103C80000FF08EFD04300FF0B0FDD9F8000010B138
:103C90000368DB689847D9F8000010B103681B6817
:103CA0009847DFF8D480D8F8000010B103685B694A
:103CB0009847D7F83C0110B103685B689847D8F87B
:103CC000000010B103681B689847D7F83C0110B199
:103CD00003689B689847F06800214FF0000B036869
:103CE0005B6A9847224B0446C0F804B080F808B0DD
:103CF00059460360B06803685B6A9847054600F060
:103D00000BFD7068594603685B6A9847064629466A
:103D100000F0E0FC331DC7F83C612846C9F80040BC
:103D2000C8F80050CAF800302B68C6F808A0DB6855
:103D3000EE639847336830461B689847214628460B
:103D400011F006FF236820461B6998472368204628
:103D50005B6901B0BDE8F04F184700BF5E4902083B
:103D6000EC490208B84A02080D4B0208B04B0208A1
:103D70001C540208305402242C540224044B1B68A7
:103D800093F858200AB1D86C00B99868704700BF02
:103D9000E8530224F8B5174604460E460FF0C6FD58
:103DA000124B00251C602946114B2360114BC4E9BE
:103DB0005135114B1868C4E953550368C4E94F5590
:103DC0009B68C4E955769847284600F0F5F9FFF757
:103DD000D5FF17F04EFFFFF7D1FF17F0C1FFFFF738
:103DE000CDFF17F0C9FF2046F8BD00BF3C540224A8
:103DF000C8530208B0530208E8530224064BC0F827
:103E00004801C0F84C310023C0F8503100F5A273CE
:103E1000C0F84031704700BF313C0008406A70472D
:103E2000806A704770470B888A889BB2D20A10B5A7
:103E30004C88C16943EA044351F82200184410BD7C
:103E400010B50446BAB1107B68B1537BD27A1B021D
:103E500003F4E0631A43236A03EB82031A888A425D
:103E600002D193F9020010BD05D80138043380B2A5
:103E70000028F3D1F7E70020F5E710B504462C2120
:103E80001DF063FD204610BD30B58BB00446BDF873
:103E900060500895BDF85C5007959DF85050069508
:103EA0009DF84C5005959DF8485004959DF8445058
:103EB00003959DF8405002959DF83C500195BDF842
:103EC0003850009511F07CFA064B20462360159B74
:103ED000E361169B2362199B63621A9BA3620BB07A
:103EE00030BD00BF405402087047000030B5174D88
:103EF0008FB02C68BFF35B8F14F0010422D12846E9
:103F00001DF025FDF0B13F23122211490993114BF9
:103F100011480893114B0A940793012301940493C9
:103F2000CDE905430423CDE902433223CDE90B4417
:103F300000933323FFF7A8FF09481EF09BF828469B
:103F40001DF011FD04480FB030BD00BF64B2002465
:103F5000F09402081C96020868B20024AC9602088D
:103F6000E93E00087047000030B5164D8FB02C6850
:103F7000BFF35B8F14F0010420D128461DF0E7FC4D
:103F8000E0B13F23012210490993104B10480893D8
:103F9000104B0A940594CDE906430423CDE903327E
:103FA0000A23CDE90B440093CDE90144FFF76CFFF0
:103FB00009481EF05FF828461DF0D5FC04480FB0F4
:103FC00030BD00BF94B20024EC950208A096020810
:103FD00098B20024B0960208653F000870470000C0
:103FE00030B5164D8FB02C68BFF35B8F14F0010411
:103FF00020D128461DF0ABFCE0B13F23012210493F
:104000000993104B10480893104B0A940594CDE97E
:1040100006430423CDE903321423CDE90B44009376
:10402000CDE90144FFF730FF09481EF023F8284688
:104030001DF099FC04480FB030BD00BFC4B200248D
:10404000FC950208A4960208C8B20024B49602089F
:10405000DD3F00087047000030B5164D8FB02C686A
:10406000BFF35B8F14F0010420D128461DF06FFCD4
:10407000E0B13F23012210490993104B10480893E7
:10408000104B0A940594CDE906430423CDE903328D
:104090002823CDE90B440093CDE90144FFF7F4FE5A
:1040A00009481DF0E7FF28461DF05DFC04480FB0ED
:1040B00030BD00BFF4B200240C960208A896020896
:1040C000F8B20024B8960208554000080020704756
:1040D000002070470EB403B503AB002153F8042B46
:1040E000019310F0EBFB02B05DF804EB03B07047F6
:1040F0000CB407B504AB53F8042B019310F0DEFBAE
:1041000003B05DF804EB02B070470000436C10B5DB
:10411000044673B3038F2BB9184BC521184A1948AD
:104120001DF08AFFC38E00EB43035B8C0BB312F0D0
:104130006DFA238F012B03D8134BCB21134AEEE7E3
:10414000E28E40F63F10531C9BB2092B194688BFE4
:10415000A3F10A0104EB4101498C814209D10A2BE8
:1041600004EB420228BF0023508C04EB4303588425
:1041700051842046BDE8104012F04AB9534C020861
:104180005C4C0208074D02085F4D02086D4D0208A5
:1041900012F007B910B586B002AC84E806001A46E2
:1041A0000AAB214605930193099B0093089B0EF0EF
:1041B00079FE06B010BD000038B518BB124B13488D
:1041C0001C681349B4B12268224402606268224428
:1041D0000A60A26814440F4B00221A8000F038F8DD
:1041E000054600F033F80C4B1C600C4B1D600C4B6B
:1041F000188007E00B4B03600B4B0B600B4B1C68EC
:10420000002CE8D138BD00BF30B3002428B300240F
:1042100024B300242CB30024405402244854022424
:1042200044540224549C0090409C0090A49C009014
:10423000044B1B6853F82100034B1B6803EB400041
:10424000704700BF24B3002428B300240520704722
:104250000048704734B3002410B5074CFFF7C0FE88
:104260002060FFF7F9FE6060FFF77EFEA060FFF7B9
:104270003DFEE06010BD00BF34B3002410B5002443
:1042800004600C6014601C6010BD7047704770477C
:10429000704770476C3000F0EBB90000054B10B56B
:1042A00003600446044B40F86C3FFFF79AFB20463E
:1042B00010BD00BFA8540208DC54020810B5044623
:1042C000FFF7ECFF4FF4377120461DF03EFB204610
:1042D00010BD70B504461D46BDF91060FFF7A4FB84
:1042E0002368294620469B6B984723683146204621
:1042F000DB6BBDE8704018474FF480710022818469
:104300000C49026301600C49028781624FF6FF711C
:10431000C26381854FF47F0141634FF0FF31C0E9F3
:104320000122C0E90322C0E90522C0E90722C0E951
:10433000101270477C5C02080C5302082DE9F04F04
:104340008FB0044611F058FAB64B002504F16C0604
:10435000236004F5867AB44B04F5AA793046E56308
:10436000256604F5CE78A5664FF6FF7704F1400B7D
:10437000C4E910354FF48073A4F86430FF23C4E916
:10438000125584F86630C4E91455C4E9165500F096
:1043900065F95046FFF7B0FF4846FFF7ADFF4046CE
:1043A000FFF7AAFF04F5F27318460393FFF7A4FF83
:1043B00004F50B730CA9ADF83070184604930BF09C
:1043C000EDFF04F516730CA9ADF83070184605938F
:1043D0000BF0E4FF04F521730CA9ADF8307018461A
:1043E00006930BF0DBFF04F52C730CA9ADF83070CD
:1043F000184607930BF0D2FF4FF4F0732A46294674
:10440000584600934FF44873271DFFF762FF4FF0A3
:104410007F4359463846A36609F056F92A4629468D
:104420003046FFF701FB3146384608AE09F04CF93B
:10443000A022504640F20511FFF7F6FA7B4B514699
:104440003046C4F83C31A4F840510CF0ABFA04F506
:10445000A473DFF8DCB196E8070083E807004FF0AB
:1044600003020CA95046CDF830B0ADF834200CF062
:1044700041FD5146384684F8315109F025F9A02212
:10448000484640F21911FFF7CFFA684B49463046CB
:10449000C4F88431A4F888510CF084FA04F5C87388
:1044A00096E8070083E807000CA94846CDF830B02D
:1044B000ADF834500CF01EFD4946384684F8795169
:1044C0004FF0010909F000F9A0224046C121FFF791
:1044D000ABFA564B41463046C4F8CC31A4F8D05123
:1044E0000CF060FA04F5EC7396E8070083E8070027
:1044F0000CA94046CDF830B0ADF834900CF0FAFC81
:104500004146384609F0E0F8A022039840F2051130
:10451000FFF78AFA454B03993046C4F81432A4F8E1
:1045200018520CF03FFA04F5087396E807000226CB
:10453000CDF830B083E807000CA90398ADF83460DB
:104540000CF0D8FC0399384684F8095209F0BCF8FD
:10455000ADF830608A260CA904980CF026FD8C2357
:1045600040F20B1204984FF4A4710096FFF7B1FECD
:10457000294604980BF0CDFE0499384684F8515230
:1045800009F0A2F84FF003020CA90598ADF830200D
:104590000CF00BFD8C2340F20B1205984FF4A47124
:1045A0000096FFF796FE494605980BF0B2FE059976
:1045B000384684F87D5209F087F80CA90698ADF8C2
:1045C00030500CF0F2FC8C2340F20B1206984FF4A2
:1045D000A4710096FFF77DFE294606980BF099FE20
:1045E0000699384609F070F80CA90798ADF8309094
:1045F0000CF0DBFC8C2340F20B1207984FF4A471F3
:104600000096FFF766FE294607980BF082FE3846B3
:10461000079984F8D55209F057F820460FB0BDE845
:10462000F08F00BFA85402080C5D0208FF901EFF27
:104630000C530208034B10B504460360FFF7D1F991
:10464000204610BDDC54020810B50446FFF7F2FF07
:10465000A02120461DF079F9204610BD10B5044672
:10466000FFF7F0F9014B2046236010BDDC5402082F
:10467000FFF7B8B9704710B504464FF4AE711DF09E
:1046800064F9204610BD10B50446D0F8580100F07A
:1046900012F82046BDE810400FF004B910B50446EA
:1046A000FFF778FB014B2046236010BD70550208D0
:1046B00000220260704770477047043870477047A7
:1046C00010B5044610211DF040F9204610BDA0F1A0
:1046D0000400F5E70022C1608260024A02601832DD
:1046E00042607047C455020870470000034B10B584
:1046F00004460360FFF7D2FD204610BDEC550208CA
:1047000010B50446FFF7F2FF4FF4377120461DF055
:104710001CF9204610BD000010B50446FFF70EFE40
:10472000014B2046236010BDEC550208FFF7B2BDD7
:1047300001234FF4487200200B8002238B704FF44A
:10474000F073C1E90123704790F82430012B04BFB6
:10475000002380F82430002070470020704710B4F8
:1047600004690089A4465DF8044B604710B4C4682E
:104770000089A4465DF8044B604770B500F1180548
:104780000E460978284600F011F90446317928468A
:1047900000F018F90444317A284600F01FF9044467
:1047A000317B284600F026F90444317C284600F08D
:1047B0002DF90444317D284600F034F9C44214BF79
:1047C0004FF0FF30002070BD13B50C4618300DF1CE
:1047D000070100F03FF99DF80730236002B010BDDB
:1047E00037B500F118050C4601A9284600F0D1F8AC
:1047F00008BB9DF80430022B98BF184604232060A4
:10480000032128460DEB030200F0B0F8B0B99DF883
:1048100004309DF805201B0203F4706313439DF8D8
:10482000072063609DF806301B0203F47063134396
:10483000A36003B030BD4FF0FF30DFE74FF0FF3033
:10484000F7E7183000F0A0B80121183000F0F6B8F2
:104850000021183000F0F2B810B590F8243004466A
:104860006BB9036898472046FFF7F2FF00384FF016
:10487000010318BF012084F82430404210BD0020FD
:10488000FCE70020704730B500F1180585B00C46F4
:10489000284601A900F07DF8002845D19DF8043094
:1048A000022B98BF184620600C2301AA032128463A
:1048B00000F05CF800283AD19DF804209DF805101E
:1048C0001302920903F47063E2610B439DF8071031
:1048D0009DF80A2063609DF806301B0203F47063A4
:1048E0000B439DF80B10E3609DF8083063619DF861
:1048F00009301B0963621302920903F47063226298
:104900000B439DF80D10A3609DF80C301B0203F4BF
:1049100070630B4323619DF80E30A3619DF80F3047
:104920001B09A36205B030BD4FF0FF30BBE74FF06D
:10493000FF30F7E790B14A680B6842600A8903606C
:104940000281CA68C2600A6902614A690062426102
:10495000044AC261044A826103B118474FF0FF3034
:10496000704700BF5F4700086D47000810B4D0E9EA
:104970000140A4465DF8044B604710B404688068A9
:10498000A4465DF8044B604701230A461946FFF729
:10499000EDBF10B50A460C4601230221FFF7E6FFE2
:1049A00018B9237803F00F03237010BD07B5012356
:1049B0008DF807100DF107029121FFF7DEFF03B01C
:1049C0005DF804FB07B501238DF807100DF1070210
:1049D0009221FFF7D2FF03B05DF804FB07B5012376
:1049E0008DF807100DF107029321FFF7C6FF03B002
:1049F0005DF804FB07B501238DF807100DF10702E0
:104A00009421FFF7BAFF03B05DF804FB07B501235B
:104A10008DF807100DF107029521FFF7AEFF03B0E7
:104A20005DF804FB07B501238DF807100DF10702AF
:104A30009621FFF7A2FF03B05DF804FB07B5012341
:104A40008DF807100DF10702A421FFF796FF03B0C0
:104A50005DF804FB0A460123A821FFF787BF000089
:104A600008B50122074BC3E900219A6000221946CC
:104A7000DA604FF6FF7206F0AFF9003818BF012078
:104A8000404208BD44B3002408B50222084BC3E9E4
:104A9000002101210022C3E902124FF6FF721946DC
:104AA00006F09AF9003818BF0120404208BD00BF47
:104AB00044B300240A46D1E9033110B50B435169D0
:104AC00004240B4391690B43D16912680B430749D6
:104AD0004A6001220C60C1E902234FF6FF7206F022
:104AE0007BF9003818BF0120404210BD44B30024B8
:104AF00008B5084BC3E9002108210022C3E90212CE
:104B00004FF6FF72194606F067F9003818BF01200A
:104B1000404208BD44B3002408B506F07CF90038D3
:104B200018BF0120404208BD70B50C460968054613
:104B3000FFF796FF10B14FF0FF3070BD01F07EFC23
:104B4000064601F07BFC8642FBD021682846FFF731
:104B50009BFF0028EFD12846D4E90012FFF7C8FFD9
:104B60000028E8D121462846FFF7A4FF0028E2D11B
:104B7000A1682846FFF7D0FF003818BF0120404247
:104B8000DBE74FF000624FF400534FF48071C0E94F
:104B900000234FF48043C0E902314FF40023036146
:104BA0000020704700B54FF4407395B04FF040724D
:104BB0000C9305230F920222069300230B9206A961
:104BC00013930093049303926A46CDE90D33CDE924
:104BD0001133102302934FF48003059340F2011325
:104BE000019341F2883304F00BFD002814BF6FF0ED
:104BF0000400002015B05DF804FB032941F288325F
:104C000030B518BF4FF4807395B008BF4FF44073B0
:104C10000C4606A905460C93062306930023CDE90E
:104C20000D330F930B931393CDE9113304F0E8FB8D
:104C300020BB40F202230222032C4FF48001049097
:104C40002846CDE900334FF01003CDE902324FF092
:104C500005036A46CDE9051314BF4FF080734FF08A
:104C6000407306A90F9341F2883304F0C9FC002871
:104C700014BF6FF00400002015B030BD6FF00100CC
:104C8000FAE7032930B518BF4FF480738FB008BF1F
:104C90004FF4407304460D460693B7230093002358
:104CA000CDE90733099305930D93CDE90B33FFF756
:104CB000A4FF18B16FF001000FB030BD41F288328F
:104CC0006946204604F09CFB0028F3D12946204683
:104CD000FFF768FF0028EFD0ECE700B54FF48073D2
:104CE0008FB041F288320693352369460093002342
:104CF000CDE90733099305930D93CDE90B3304F008
:104D00007FFB002814BF6FF0010000200FB05DF89A
:104D100004FB00B54FF480738FB041F288320693E4
:104D2000F523694600930023CDE9073309930593E2
:104D30000D93CDE90B3304F063FB002814BF6FF033
:104D4000010000200FB05DF804FB00B591B003290D
:104D50000ED8DFE801F00229343F4FF48073089346
:104D60000E2302934FF4806309934FF080730B93EB
:104D700008224FF440534FF0004C02A907924FF025
:104D8000804205930023CDE90DC26A460A930F9332
:104D9000CDE9003304F085FC002814BF6FF0050056
:104DA000002011B05DF804FB4FF4807308933D239D
:104DB00002934FF4806309934FF00073D7E74FF4E9
:104DC00080730893EE2302934FF4406309934FF0EE
:104DD0004073CCE74FF440730893ED23F3E700B53D
:104DE00091B003290ED8DFE801F00225303B4FF4E3
:104DF000807308930C2302934FF4806309934FF060
:104E000080730B9308236A4602A907934FF440531B
:104E1000059300230A930F93CDE90D33CDE90033B9
:104E200004F03FFC002814BF6FF00500002011B013
:104E30005DF804FB4FF480730893BC2302934FF496
:104E4000006309934FF00073DBE74FF4807308931E
:104E5000EC2302934FF4406309934FF04073D0E783
:104E60004FF440730893EB23F3E7032941F28832B0
:104E700000B518BF4FF480738FB008BF4FF4407374
:104E800069460693662300930023CDE9073309930F
:104E900005930D93CDE90B3304F0B2FA002814BF4B
:104EA0006FF0010000200FB05DF804FB032941F210
:104EB000883200B518BF4FF480738FB008BF4FF42D
:104EC000407369460693992300930023CDE9073385
:104ED000099305930D93CDE90B3304F091FA002863
:104EE00014BF6FF0010000200FB05DF804FB10B498
:104EF00084680088A4465DF8044B604710B4446899
:104F00000088A4465DF8044B604770B5C36804464A
:104F10000D4698470646E3689847831BAB42FAD391
:104F200070BD00002DE9F341002300F11005074694
:104F30000E4690461946DE4A284600F099FB0323A8
:104F40000446DC4AFF21284600F092FB002304447B
:104F5000D94A1946284600F08BFB02230444D74A5D
:104F6000FF21284600F084FB00230444D24A19465E
:104F7000284600F07DFB04440023D14AC421284682
:104F800000F076FB0A2104443846FFF7BEFF0023F9
:104F9000CC4A2846194600F06BFB04440023CA4A59
:104FA000C421284600F064FB0A2104443846FFF778
:104FB000ACFF0023C54A2846194600F059FB0023E0
:104FC0000444C34AC521284600F052FB0023044490
:104FD000C04A1946284600F04BFB00230444BE4A51
:104FE000C521284600F044FB00230444BB4A19466F
:104FF000284600F03DFB00230444B94AC02128465E
:1050000000F036FB00230444A94A1946284600F064
:105010002FFB00230444B34AD921284600F028FB83
:1050200000230444B04A1946284600F021FB00231F
:105030000444AE4AC121284600F01AFB0023044470
:10504000AB4A1946284600F013FB00230444A94A42
:10505000C521284600F00CFB00230444A64A19464B
:10506000284600F005FB002304449B4AC52128463E
:1050700000F0FEFA002304448D4A1946284600F049
:10508000F7FA022304449D4AD821284600F0F0FA9A
:10509000002304449A4A1946284600F0E9FA0023FE
:1050A0000444984AC521284600F0E2FA002304444B
:1050B000954A1946284600F0DBFA00230444934A37
:1050C000C021284600F0D4FA00230444904A19462F
:1050D000284600F0CDFA002304448E4AC521284614
:1050E00000F0C6FA002304448B4A1946284600F013
:1050F000BFFA00230444894AC421284600F0B8FAC4
:1051000000230444784A1946284600F0B1FA0023E7
:105110000444834AC121284600F0AAFA002304442B
:10512000804A1946284600F0A3FA022304447E4A26
:10513000B321284600F09CFA002304445E4A194635
:10514000284600F095FA06230444784ACE212846E2
:1051500000F08EFA00230444754A1946284600F0F0
:1051600087FA0E230444734ACE21284600F080FAC1
:1051700000230444704A1946284600F079FA0E23A9
:1051800004446E4ACE21284600F072FA00230444FB
:105190006B4A1946284600F06BFA0A230444694A10
:1051A000CF21284600F064FA00230444664A1946D9
:1051B000284600F05DFA00230444644ACF212846C3
:1051C00000F056FA002304443B4A1946284600F0F2
:1051D0004FFA0A2304445E4ACB21284600F048FADD
:1051E000002304445B4A1946284600F041FA0F2385
:1051F0000444594ACB21284600F03AFA00230444DB
:105200004B4A1946284600F033FA0F230444534A08
:10521000CB21284600F02CFA00230444464A1946C4
:10522000284600F025FA0A2304444D4ACB2128469B
:1052300000F01EFA00230444414A1946284600F0B3
:1052400017FA0F230444474ACB21284600F010FAEE
:10525000002304443C4A1946284600F009FA0F236B
:105260000444414ACB21284600F002FA00230444BA
:105270003E4A1946284600F0FBF90A2304443C4AFA
:10528000CB21284600F0F4F900230444394A19469A
:10529000284600F0EDF90A230444374ACB2128467A
:1052A00000F0E6F900230444034A1946284665E065
:1052B0002557020821570208265702081F570208DF
:1052C0002757020828570208295702082A570208B8
:1052D0002B5702082C5702082D5702082E57020898
:1052E0002F57020830570208335702083457020874
:1052F0003557020836570208375702081D5702086B
:1053000038570208395702083A5702083B57020833
:105310003C5702083D570208315702083E57020821
:105320003F570208405702081B570208155702084A
:10533000415702080757020842570208F956020867
:1053400043570208EF560208445702085157020813
:10535000E556020845570208D6560208C756020805
:10536000BD560208AE5602089F560208465702086C
:1053700095560208475702088B56020800F078F944
:105380000A2304448E4ACC21284600F071F90023F8
:1053900004448C4A1946284600F06AF90F23044455
:1053A000894ACC21284600F063F900230444874A47
:1053B0001946284600F05CF90F230444844ACC21A6
:1053C000284600F055F900230444824A194628462D
:1053D00000F04EF90A2304447F4ACC21284600F00D
:1053E00047F9002304447D4A1946284600F040F955
:1053F0000F2304447A4ACC21284600F039F90023CF
:105400000444784A1946284600F032F90F23044430
:10541000754ACC21284600F02BF900230444734A36
:105420001946284600F024F900230444704AC52197
:10543000284600F01DF9002304446E4A1946284608
:1054400000F016F9002304446B4AF521284600F0C9
:105450000FF900230444694A1946284600F008F968
:1054600000230444664AC621284600F001F90023BF
:105470000444644A1946284600F0FAF80323044419
:10548000614AFF21284600F0F3F8002304445D4AF6
:105490001946284600F0ECF800230444594A1946FE
:1054A000284600F0E5F810230444584AE121284634
:1054B00000F0DEF800230444524A1946284600F062
:1054C000D7F804441023524AE221284600F0D0F8CD
:1054D000044400234F4A1121284600F0C9F87821DE
:1054E00004443846FFF711FD4B4F002E61D0022EC9
:1054F00007D10023494A3A21284600F0B9F804446C
:105500007E60B8F1010F57D160230DF107023621FB
:1055100028468DF80730002300F0AAF82618042347
:105520003F4A2A21284600F0A3F8064404233D4AB6
:105530002B21284600F09CF83418C7F8008000267C
:105540000023394A5121284600F092F8044433469A
:10555000364A53212846BE6000F08AF80444334698
:10556000334A5521284600F083F804443346314A33
:105570005E21284600F07CF8044433462E4A292157
:10558000284600F075F80444334631461D4A284643
:1055900000F06EF804443346284A2C21284600F0D7
:1055A00067F8C44214BF4FF0FF30304602B0BDE888
:1055B000F0813346224A9EE700233B60BFE700BFED
:1055C00081560208455702087256020841570208E0
:1055D0006356020842570208595602084357020808
:1055E0004A560208445702083B560208315702083F
:1055F00052570208535702085457020855570208D9
:10560000565702082557020838560208285602083D
:10561000185602084857020854B300244957020894
:105620005B570208575702084B5702084C570208AD
:105630004D5702084E5702084F57020850570208AC
:105640004A57020860B14B6843608B688360CB683F
:105650008061C360044B4361044B036100207047C9
:105660004FF0FF30704700BFEF4E0008FD4E0008BE
:1056700010B404688068A4465DF8044B60470000DD
:10568000104A08B51368013B13600BB1002008BD38
:105690004FF480510C4801F03FFE0B484FF400518D
:1056A00001F03AFE094A0A48D2F8F43023F08003A8
:1056B000C2F8F43002F080F80028E7D06FF007005D
:1056C000E5E700BFB8BD0024000C025800440258B2
:1056D00060B300240023012210B541600446036238
:1056E000C0E90232C0E90433C0E9063302F00EF823
:1056F000014608B1012010BD204602F034FA0146EF
:105700000028F7D1204602F054FA003818BF0120D3
:10571000F1E70000A24BA3482DE9F04F93B00360DE
:10572000A14B1C681CB1002013B0BDE8F08F012212
:105730001A6002F013FA0028F5D19C4D4FF01208C0
:1057400002270426D5F8E0300DA9994843F0080354
:10575000C5F8E030D5F8E03003F008030A930A9B5F
:10576000D5F8E03043F00803C5F8E030D5F8E03074
:105770000F9403F008030B930B9B4FF48053CDE978
:105780001076CDE90D3801F0DFFC4FF400530DA980
:1057900087481196CDE90D38CDE90F4701F0D4FCCB
:1057A000D5F8F43043F08003C5F8F430D5F8F43080
:1057B00003F080030C930C9BD5F89C3043F08003DE
:1057C000C5F89C30D5F89C3023F08003C5F89C3098
:1057D00004F09AFC00286DD0764B2246A2464FF08A
:1057E000100903EB5003DFF8D4B1B3FBF0F000EB8A
:1057F000400500FA07F60146C5F13203C6F5C37647
:1058000023EAE37326EAE67600936B4B1B6888462F
:105810004FF0000CB8F5AF7FCDF804C00CF1010CCF
:105820005BD30027BE46009DBD4250D8BE424ED33A
:1058300091454CD0142505FB03FA0133019D0BEB78
:105840000A097F2B4BF80A20C9E9015E3CD95A4A64
:105850001360594B4FEA400B584900271B680693C9
:1058600040F6C41304934FF0FF3300930BF132035F
:105870000993CBF5806301330293069B9F4238D195
:10588000009B7F2B16D81421009A4C4B4A43991841
:105890009B580C7C44EA03744B681B0503F47003AB
:1058A0001C438B681B0403F470231C43CB681B024E
:1058B0009BB21C4321463B48FFF70CFF00283FF4F6
:1058C00032AF6FF007002FE791464FF0010A0EF15B
:1058D000010E0F44BEF1100FA5D1BCF1100F88448A
:1058E00098D101320144102A91D1BAF1000FAED102
:1058F000AFE70B684FF0000C099D03FB00031D444C
:1059000003EB0B060395A6F63406029D0896ED1AE6
:105910006D000195039D40F21452CDF814C00CF1B6
:10592000010C954230D9A5F13206B0EB960F2BD27F
:10593000089E4FF0000EDDF804902E44DDF80C8038
:1059400006F2A11A40F21242CDF81CE00EF1010E4F
:10595000924512D8B8F5167F0FD340450DD236EADE
:10596000260A28BFCA46049A924506D2059ACDF85F
:1059700010A00A61079A0097CA60BEF5807F98441C
:105980001E44A9EB0309DBD1019ABCF5807F1D44BD
:10599000A2EB03020192BED1013714316DE700BFC3
:1059A000001C005860B30024B8BD00240044025815
:1059B000000C025800CA9A3BB4B30024B8B30024C8
:1059C0001FB54FF47A7400920A4601460848CDE9A3
:1059D0000134012301F00AFF40B1054802F0C1F88B
:1059E000042814BF6FF003006FF0650004B010BD11
:1059F00060B300241FB54FF47A7400920A46014642
:105A00000848CDE90134012301F0CAFF40B105483F
:105A100002F0A7F8042814BF6FF003006FF06500D0
:105A200004B010BD60B3002400F008BD094A4FF473
:105A3000407C02604A684260012282608A68C260DB
:105A40000A6802610022C0E905C2C261CA68026236
:105A500003F08ABC0050005210B588B90A4C0B48BC
:105A6000A37861784BB9FFF7BAF910B16FF0040071
:105A700010BD022300202370FAE7FFF766F9F4E770
:105A80006FF00100F4E700BFBCBD0024C8990024FA
:105A9000F8B50C46174630BB174D2B78022B25D096
:105AA000B2FA82F3154E5B0930461B01F36003F036
:105AB0005BFCF0B96B78032B0FD1032C05D10123CC
:105AC00000206C702B70AF70F8BD3046FFF721F9E5
:105AD0000028F4D06FF00400F6E7032CEFD1304635
